{
  "contractName": "DContent",
  "abi": [
    {
      "anonymous": false,
      "inputs": [
        {
          "indexed": false,
          "internalType": "string",
          "name": "hash",
          "type": "string"
        },
        {
          "indexed": false,
          "internalType": "string",
          "name": "title",
          "type": "string"
        },
        {
          "indexed": false,
          "internalType": "string",
          "name": "caption",
          "type": "string"
        },
        {
          "indexed": false,
          "internalType": "uint256",
          "name": "likes",
          "type": "uint256"
        }
      ],
      "name": "PostUpdated",
      "type": "event"
    },
    {
      "anonymous": false,
      "inputs": [
        {
          "indexed": false,
          "internalType": "string",
          "name": "name",
          "type": "string"
        },
        {
          "indexed": false,
          "internalType": "string",
          "name": "photo",
          "type": "string"
        },
        {
          "indexed": false,
          "internalType": "string",
          "name": "bio",
          "type": "string"
        }
      ],
      "name": "UserUpdated",
      "type": "event"
    },
    {
      "inputs": [
        {
          "internalType": "address",
          "name": "",
          "type": "address"
        }
      ],
      "name": "amount",
      "outputs": [
        {
          "internalType": "uint256",
          "name": "",
          "type": "uint256"
        }
      ],
      "stateMutability": "view",
      "type": "function"
    },
    {
      "inputs": [
        {
          "internalType": "address",
          "name": "",
          "type": "address"
        },
        {
          "internalType": "address",
          "name": "",
          "type": "address"
        }
      ],
      "name": "followers",
      "outputs": [
        {
          "internalType": "bool",
          "name": "",
          "type": "bool"
        }
      ],
      "stateMutability": "view",
      "type": "function"
    },
    {
      "inputs": [
        {
          "internalType": "address",
          "name": "",
          "type": "address"
        },
        {
          "internalType": "address",
          "name": "",
          "type": "address"
        }
      ],
      "name": "following",
      "outputs": [
        {
          "internalType": "bool",
          "name": "",
          "type": "bool"
        }
      ],
      "stateMutability": "view",
      "type": "function"
    },
    {
      "inputs": [
        {
          "internalType": "address",
          "name": "",
          "type": "address"
        }
      ],
      "name": "isUser",
      "outputs": [
        {
          "internalType": "bool",
          "name": "",
          "type": "bool"
        }
      ],
      "stateMutability": "view",
      "type": "function"
    },
    {
      "inputs": [
        {
          "internalType": "address",
          "name": "",
          "type": "address"
        }
      ],
      "name": "networks",
      "outputs": [
        {
          "internalType": "uint256",
          "name": "num_followers",
          "type": "uint256"
        },
        {
          "internalType": "uint256",
          "name": "num_following",
          "type": "uint256"
        }
      ],
      "stateMutability": "view",
      "type": "function"
    },
    {
      "inputs": [],
      "name": "post_counter",
      "outputs": [
        {
          "internalType": "uint256",
          "name": "",
          "type": "uint256"
        }
      ],
      "stateMutability": "view",
      "type": "function"
    },
    {
      "inputs": [
        {
          "internalType": "address",
          "name": "",
          "type": "address"
        },
        {
          "internalType": "uint256",
          "name": "",
          "type": "uint256"
        }
      ],
      "name": "post_id",
      "outputs": [
        {
          "internalType": "uint256",
          "name": "",
          "type": "uint256"
        }
      ],
      "stateMutability": "view",
      "type": "function"
    },
    {
      "inputs": [
        {
          "internalType": "address",
          "name": "",
          "type": "address"
        },
        {
          "internalType": "uint256",
          "name": "",
          "type": "uint256"
        }
      ],
      "name": "posts",
      "outputs": [
        {
          "internalType": "uint256",
          "name": "id",
          "type": "uint256"
        },
        {
          "internalType": "address",
          "name": "owner",
          "type": "address"
        },
        {
          "internalType": "string",
          "name": "hash",
          "type": "string"
        },
        {
          "internalType": "string",
          "name": "title",
          "type": "string"
        },
        {
          "internalType": "string",
          "name": "caption",
          "type": "string"
        },
        {
          "internalType": "uint256",
          "name": "likes",
          "type": "uint256"
        }
      ],
      "stateMutability": "view",
      "type": "function"
    },
    {
      "inputs": [
        {
          "internalType": "uint256",
          "name": "",
          "type": "uint256"
        }
      ],
      "name": "user_id",
      "outputs": [
        {
          "internalType": "address",
          "name": "",
          "type": "address"
        }
      ],
      "stateMutability": "view",
      "type": "function"
    },
    {
      "inputs": [
        {
          "internalType": "address",
          "name": "",
          "type": "address"
        }
      ],
      "name": "users",
      "outputs": [
        {
          "internalType": "address",
          "name": "addr",
          "type": "address"
        },
        {
          "internalType": "string",
          "name": "name",
          "type": "string"
        },
        {
          "internalType": "string",
          "name": "photo",
          "type": "string"
        },
        {
          "internalType": "string",
          "name": "bio",
          "type": "string"
        }
      ],
      "stateMutability": "view",
      "type": "function"
    },
    {
      "inputs": [
        {
          "internalType": "string",
          "name": "_name",
          "type": "string"
        },
        {
          "internalType": "string",
          "name": "photo",
          "type": "string"
        },
        {
          "internalType": "string",
          "name": "bio",
          "type": "string"
        }
      ],
      "name": "createUser",
      "outputs": [],
      "stateMutability": "nonpayable",
      "type": "function"
    },
    {
      "inputs": [],
      "name": "getUsers",
      "outputs": [
        {
          "internalType": "address[]",
          "name": "",
          "type": "address[]"
        }
      ],
      "stateMutability": "view",
      "type": "function"
    },
    {
      "inputs": [
        {
          "internalType": "address",
          "name": "user",
          "type": "address"
        }
      ],
      "name": "getUser",
      "outputs": [
        {
          "components": [
            {
              "internalType": "address",
              "name": "addr",
              "type": "address"
            },
            {
              "internalType": "string",
              "name": "name",
              "type": "string"
            },
            {
              "internalType": "string",
              "name": "photo",
              "type": "string"
            },
            {
              "internalType": "string",
              "name": "bio",
              "type": "string"
            }
          ],
          "internalType": "struct DContent.User",
          "name": "",
          "type": "tuple"
        }
      ],
      "stateMutability": "view",
      "type": "function"
    },
    {
      "inputs": [
        {
          "internalType": "string",
          "name": "_name",
          "type": "string"
        },
        {
          "internalType": "string",
          "name": "photo",
          "type": "string"
        },
        {
          "internalType": "string",
          "name": "bio",
          "type": "string"
        }
      ],
      "name": "updateUser",
      "outputs": [],
      "stateMutability": "nonpayable",
      "type": "function"
    },
    {
      "inputs": [
        {
          "internalType": "address",
          "name": "user",
          "type": "address"
        }
      ],
      "name": "follow",
      "outputs": [],
      "stateMutability": "nonpayable",
      "type": "function"
    },
    {
      "inputs": [
        {
          "internalType": "address",
          "name": "user",
          "type": "address"
        }
      ],
      "name": "unfollow",
      "outputs": [],
      "stateMutability": "nonpayable",
      "type": "function"
    },
    {
      "inputs": [
        {
          "internalType": "string",
          "name": "title",
          "type": "string"
        },
        {
          "internalType": "string",
          "name": "hash",
          "type": "string"
        },
        {
          "internalType": "string",
          "name": "caption",
          "type": "string"
        }
      ],
      "name": "createPost",
      "outputs": [],
      "stateMutability": "nonpayable",
      "type": "function"
    },
    {
      "inputs": [
        {
          "internalType": "string",
          "name": "title",
          "type": "string"
        },
        {
          "internalType": "string",
          "name": "hash",
          "type": "string"
        },
        {
          "internalType": "string",
          "name": "caption",
          "type": "string"
        }
      ],
      "name": "createPrivatePost",
      "outputs": [],
      "stateMutability": "nonpayable",
      "type": "function"
    },
    {
      "inputs": [
        {
          "internalType": "address",
          "name": "user",
          "type": "address"
        }
      ],
      "name": "subscribedUser",
      "outputs": [],
      "stateMutability": "nonpayable",
      "type": "function"
    },
    {
      "inputs": [
        {
          "internalType": "string",
          "name": "title",
          "type": "string"
        },
        {
          "internalType": "string",
          "name": "hash",
          "type": "string"
        },
        {
          "internalType": "string",
          "name": "caption",
          "type": "string"
        },
        {
          "internalType": "uint256",
          "name": "id",
          "type": "uint256"
        }
      ],
      "name": "updatePost",
      "outputs": [],
      "stateMutability": "nonpayable",
      "type": "function"
    },
    {
      "inputs": [],
      "name": "getPosts",
      "outputs": [
        {
          "components": [
            {
              "internalType": "uint256",
              "name": "id",
              "type": "uint256"
            },
            {
              "internalType": "address",
              "name": "owner",
              "type": "address"
            },
            {
              "internalType": "string",
              "name": "hash",
              "type": "string"
            },
            {
              "internalType": "string",
              "name": "title",
              "type": "string"
            },
            {
              "internalType": "string",
              "name": "caption",
              "type": "string"
            },
            {
              "internalType": "uint256",
              "name": "likes",
              "type": "uint256"
            }
          ],
          "internalType": "struct DContent.Post_data[]",
          "name": "",
          "type": "tuple[]"
        }
      ],
      "stateMutability": "view",
      "type": "function"
    },
    {
      "inputs": [
        {
          "internalType": "address",
          "name": "user",
          "type": "address"
        }
      ],
      "name": "getPosts",
      "outputs": [
        {
          "components": [
            {
              "internalType": "uint256",
              "name": "id",
              "type": "uint256"
            },
            {
              "internalType": "address",
              "name": "owner",
              "type": "address"
            },
            {
              "internalType": "string",
              "name": "hash",
              "type": "string"
            },
            {
              "internalType": "string",
              "name": "title",
              "type": "string"
            },
            {
              "internalType": "string",
              "name": "caption",
              "type": "string"
            },
            {
              "internalType": "uint256",
              "name": "likes",
              "type": "uint256"
            }
          ],
          "internalType": "struct DContent.Post_data[]",
          "name": "",
          "type": "tuple[]"
        }
      ],
      "stateMutability": "view",
      "type": "function"
    },
    {
      "inputs": [
        {
          "internalType": "address",
          "name": "user",
          "type": "address"
        }
      ],
      "name": "getPrivatePosts",
      "outputs": [
        {
          "components": [
            {
              "internalType": "uint256",
              "name": "id",
              "type": "uint256"
            },
            {
              "internalType": "address",
              "name": "owner",
              "type": "address"
            },
            {
              "internalType": "string",
              "name": "hash",
              "type": "string"
            },
            {
              "internalType": "string",
              "name": "title",
              "type": "string"
            },
            {
              "internalType": "string",
              "name": "caption",
              "type": "string"
            },
            {
              "internalType": "uint256",
              "name": "likes",
              "type": "uint256"
            }
          ],
          "internalType": "struct DContent.Post_data[]",
          "name": "",
          "type": "tuple[]"
        }
      ],
      "stateMutability": "view",
      "type": "function"
    },
    {
      "inputs": [],
      "name": "getAllPosts",
      "outputs": [
        {
          "components": [
            {
              "internalType": "uint256",
              "name": "id",
              "type": "uint256"
            },
            {
              "internalType": "address",
              "name": "owner",
              "type": "address"
            },
            {
              "internalType": "string",
              "name": "hash",
              "type": "string"
            },
            {
              "internalType": "string",
              "name": "title",
              "type": "string"
            },
            {
              "internalType": "string",
              "name": "caption",
              "type": "string"
            },
            {
              "internalType": "uint256",
              "name": "likes",
              "type": "uint256"
            }
          ],
          "internalType": "struct DContent.Post_data[]",
          "name": "",
          "type": "tuple[]"
        }
      ],
      "stateMutability": "view",
      "type": "function"
    }
  ],
  "bytecode": "0x6080604052600060035534801561001557600080fd5b50614120806100256000396000f3fe608060405234801561001057600080fd5b50600436106101575760003560e01c80638244b44b116100c3578063b9f0bf661161007c578063b9f0bf6614610419578063c6b4507f14610449578063ce9ae00114610479578063ced95ed0146104a9578063cef4b20d146104c5578063e8a4a1eb146104e157610157565b80638244b44b1461031b578063847ef9181461034b5780638bb6b28414610367578063a87430ba14610385578063ad88881b146103b8578063b5e2efd2146103e857610157565b80634dbf27cc116101155780634dbf27cc1461023257806359ae069b1461024e5780635c538df31461026a57806360903be61461029f5780636f77926b146102bb5780637a60ab5a146102eb57610157565b8062ce8e3e1461015c578063015a4ead1461017a578063305611001461019657806341f3004a146101b45780634209fff1146101d25780634caf9d0b14610202575b600080fd5b6101646104fd565b6040516101719190613628565b60405180910390f35b610194600480360381019061018f919061368a565b6105c4565b005b61019e610953565b6040516101ab91906138c2565b60405180910390f35b6101bc610be6565b6040516101c991906138c2565b60405180910390f35b6101ec60048036038101906101e7919061368a565b61103d565b6040516101f991906138ff565b60405180910390f35b61021c6004803603810190610217919061368a565b61105d565b60405161022991906138c2565b60405180910390f35b61024c6004803603810190610247919061368a565b6114b6565b005b61026860048036038101906102639190613a4f565b611844565b005b610284600480360381019061027f9190613b22565b611bec565b60405161029696959493929190613bca565b60405180910390f35b6102b960048036038101906102b49190613a4f565b611ded565b005b6102d560048036038101906102d0919061368a565b611fd8565b6040516102e29190613cb1565b60405180910390f35b61030560048036038101906103009190613b22565b6122cb565b6040516103129190613cd3565b60405180910390f35b6103356004803603810190610330919061368a565b6122fc565b60405161034291906138c2565b60405180910390f35b6103656004803603810190610360919061368a565b6127e8565b005b61036f612965565b60405161037c9190613cd3565b60405180910390f35b61039f600480360381019061039a919061368a565b61296b565b6040516103af9493929190613cee565b60405180910390f35b6103d260048036038101906103cd9190613d48565b612b53565b6040516103df91906138ff565b60405180910390f35b61040260048036038101906103fd919061368a565b612b82565b604051610410929190613d88565b60405180910390f35b610433600480360381019061042e919061368a565b612ba6565b6040516104409190613cd3565b60405180910390f35b610463600480360381019061045e9190613db1565b612bbe565b6040516104709190613dde565b60405180910390f35b610493600480360381019061048e9190613d48565b612bfd565b6040516104a091906138ff565b60405180910390f35b6104c360048036038101906104be9190613df9565b612c2c565b005b6104df60048036038101906104da9190613a4f565b612eab565b005b6104fb60048036038101906104f69190613a4f565b61315b565b005b6060600073ffffffffffffffffffffffffffffffffffffffff163373ffffffffffffffffffffffffffffffffffffffff160361053857600080fd5b60028054806020026020016040519081016040528092919081815260200182805480156105ba57602002820191906000526020600020905b8160009054906101000a900473ffffffffffffffffffffffffffffffffffffffff1673ffffffffffffffffffffffffffffffffffffffff1681526020019060010190808311610570575b5050505050905090565b600073ffffffffffffffffffffffffffffffffffffffff163373ffffffffffffffffffffffffffffffffffffffff16036105fd57600080fd5b600073ffffffffffffffffffffffffffffffffffffffff168173ffffffffffffffffffffffffffffffffffffffff160361063657600080fd5b600160003373ffffffffffffffffffffffffffffffffffffffff1673ffffffffffffffffffffffffffffffffffffffff16815260200190815260200160002060009054906101000a900460ff1661068c57600080fd5b600160008273ffffffffffffffffffffffffffffffffffffffff1673ffffffffffffffffffffffffffffffffffffffff16815260200190815260200160002060009054906101000a900460ff166106e257600080fd5b600460008273ffffffffffffffffffffffffffffffffffffffff1673ffffffffffffffffffffffffffffffffffffffff16815260200190815260200160002060003373ffffffffffffffffffffffffffffffffffffffff1673ffffffffffffffffffffffffffffffffffffffff16815260200190815260200160002060009054906101000a900460ff1615610950576000600460008373ffffffffffffffffffffffffffffffffffffffff1673ffffffffffffffffffffffffffffffffffffffff16815260200190815260200160002060003373ffffffffffffffffffffffffffffffffffffffff1673ffffffffffffffffffffffffffffffffffffffff16815260200190815260200160002060006101000a81548160ff0219169083151502179055506000600560003373ffffffffffffffffffffffffffffffffffffffff1673ffffffffffffffffffffffffffffffffffffffff16815260200190815260200160002060008373ffffffffffffffffffffffffffffffffffffffff1673ffffffffffffffffffffffffffffffffffffffff16815260200190815260200160002060006101000a81548160ff0219169083151502179055506001600660008373ffffffffffffffffffffffffffffffffffffffff1673ffffffffffffffffffffffffffffffffffffffff16815260200190815260200160002060000160008282546108ee9190613ee3565b925050819055506001600660003373ffffffffffffffffffffffffffffffffffffffff1673ffffffffffffffffffffffffffffffffffffffff16815260200190815260200160002060010160008282546109489190613ee3565b925050819055505b50565b6060600073ffffffffffffffffffffffffffffffffffffffff163373ffffffffffffffffffffffffffffffffffffffff160361098e57600080fd5b6000600280549050036109f757600067ffffffffffffffff8111156109b6576109b5613924565b5b6040519080825280602002602001820160405280156109ef57816020015b6109dc61340b565b8152602001906001900390816109d45790505b509050610be3565b6000610a416002600081548110610a1157610a10613f17565b5b9060005260206000200160009054906101000a900473ffffffffffffffffffffffffffffffffffffffff1661105d565b90506000600190505b600280549050811015610bdd576000610aa060028381548110610a7057610a6f613f17565b5b9060005260206000200160009054906101000a900473ffffffffffffffffffffffffffffffffffffffff1661105d565b9050600081518451610ab29190613f46565b67ffffffffffffffff811115610acb57610aca613924565b5b604051908082528060200260200182016040528015610b0457816020015b610af161340b565b815260200190600190039081610ae95790505b50905060005b8451811015610b5f57848181518110610b2657610b25613f17565b5b6020026020010151828281518110610b4157610b40613f17565b5b60200260200101819052508080610b5790613f9c565b915050610b0a565b5060005b8251811015610bc457828181518110610b7f57610b7e613f17565b5b602002602001015182828751610b959190613f46565b81518110610ba657610ba5613f17565b5b60200260200101819052508080610bbc90613f9c565b915050610b63565b5080935050508080610bd590613f9c565b915050610a4a565b50809150505b90565b6060600073ffffffffffffffffffffffffffffffffffffffff163373ffffffffffffffffffffffffffffffffffffffff1603610c2157600080fd5b600160003373ffffffffffffffffffffffffffffffffffffffff1673ffffffffffffffffffffffffffffffffffffffff16815260200190815260200160002060009054906101000a900460ff16610c7757600080fd5b6000600b60003373ffffffffffffffffffffffffffffffffffffffff1673ffffffffffffffffffffffffffffffffffffffff168152602001908152602001600020805480602002602001604051908101604052809291908181526020018280548015610d0257602002820191906000526020600020905b815481526020019060010190808311610cee575b505050505090506000815167ffffffffffffffff811115610d2657610d25613924565b5b604051908082528060200260200182016040528015610d5f57816020015b610d4c61340b565b815260200190600190039081610d445790505b50905060005b825181101561103457600760003373ffffffffffffffffffffffffffffffffffffffff1673ffffffffffffffffffffffffffffffffffffffff1681526020019081526020016000206000848381518110610dc257610dc1613f17565b5b602002602001015181526020019081526020016000206040518060c0016040529081600082015481526020016001820160009054906101000a900473ffffffffffffffffffffffffffffffffffffffff1673ffffffffffffffffffffffffffffffffffffffff1673ffffffffffffffffffffffffffffffffffffffff168152602001600282018054610e5390614013565b80601f0160208091040260200160405190810160405280929190818152602001828054610e7f90614013565b8015610ecc5780601f10610ea157610100808354040283529160200191610ecc565b820191906000526020600020905b815481529060010190602001808311610eaf57829003601f168201915b50505050508152602001600382018054610ee590614013565b80601f0160208091040260200160405190810160405280929190818152602001828054610f1190614013565b8015610f5e5780601f10610f3357610100808354040283529160200191610f5e565b820191906000526020600020905b815481529060010190602001808311610f4157829003601f168201915b50505050508152602001600482018054610f7790614013565b80601f0160208091040260200160405190810160405280929190818152602001828054610fa390614013565b8015610ff05780601f10610fc557610100808354040283529160200191610ff0565b820191906000526020600020905b815481529060010190602001808311610fd357829003601f168201915b5050505050815260200160058201548152505082828151811061101657611015613f17565b5b6020026020010181905250808061102c90613f9c565b915050610d65565b50809250505090565b60016020528060005260406000206000915054906101000a900460ff1681565b6060600073ffffffffffffffffffffffffffffffffffffffff168273ffffffffffffffffffffffffffffffffffffffff160361109857600080fd5b600160008373ffffffffffffffffffffffffffffffffffffffff1673ffffffffffffffffffffffffffffffffffffffff16815260200190815260200160002060009054906101000a900460ff166110ee57600080fd5b6000600b60008473ffffffffffffffffffffffffffffffffffffffff1673ffffffffffffffffffffffffffffffffffffffff16815260200190815260200160002080548060200260200160405190810160405280929190818152602001828054801561117957602002820191906000526020600020905b815481526020019060010190808311611165575b505050505090506000815167ffffffffffffffff81111561119d5761119c613924565b5b6040519080825280602002602001820160405280156111d657816020015b6111c361340b565b8152602001906001900390816111bb5790505b50905060005b82518110156114ab57600760008673ffffffffffffffffffffffffffffffffffffffff1673ffffffffffffffffffffffffffffffffffffffff168152602001908152602001600020600084838151811061123957611238613f17565b5b602002602001015181526020019081526020016000206040518060c0016040529081600082015481526020016001820160009054906101000a900473ffffffffffffffffffffffffffffffffffffffff1673ffffffffffffffffffffffffffffffffffffffff1673ffffffffffffffffffffffffffffffffffffffff1681526020016002820180546112ca90614013565b80601f01602080910402602001604051908101604052809291908181526020018280546112f690614013565b80156113435780601f1061131857610100808354040283529160200191611343565b820191906000526020600020905b81548152906001019060200180831161132657829003601f168201915b5050505050815260200160038201805461135c90614013565b80601f016020809104026020016040519081016040528092919081815260200182805461138890614013565b80156113d55780601f106113aa576101008083540402835291602001916113d5565b820191906000526020600020905b8154815290600101906020018083116113b857829003601f168201915b505050505081526020016004820180546113ee90614013565b80601f016020809104026020016040519081016040528092919081815260200182805461141a90614013565b80156114675780601f1061143c57610100808354040283529160200191611467565b820191906000526020600020905b81548152906001019060200180831161144a57829003601f168201915b5050505050815260200160058201548152505082828151811061148d5761148c613f17565b5b602002602001018190525080806114a390613f9c565b9150506111dc565b508092505050919050565b600073ffffffffffffffffffffffffffffffffffffffff163373ffffffffffffffffffffffffffffffffffffffff16036114ef57600080fd5b600073ffffffffffffffffffffffffffffffffffffffff168173ffffffffffffffffffffffffffffffffffffffff160361152857600080fd5b600160003373ffffffffffffffffffffffffffffffffffffffff1673ffffffffffffffffffffffffffffffffffffffff16815260200190815260200160002060009054906101000a900460ff1661157e57600080fd5b600160008273ffffffffffffffffffffffffffffffffffffffff1673ffffffffffffffffffffffffffffffffffffffff16815260200190815260200160002060009054906101000a900460ff166115d457600080fd5b600460008273ffffffffffffffffffffffffffffffffffffffff1673ffffffffffffffffffffffffffffffffffffffff16815260200190815260200160002060003373ffffffffffffffffffffffffffffffffffffffff1673ffffffffffffffffffffffffffffffffffffffff16815260200190815260200160002060009054906101000a900460ff16611841576001600460008373ffffffffffffffffffffffffffffffffffffffff1673ffffffffffffffffffffffffffffffffffffffff16815260200190815260200160002060003373ffffffffffffffffffffffffffffffffffffffff1673ffffffffffffffffffffffffffffffffffffffff16815260200190815260200160002060006101000a81548160ff0219169083151502179055506001600560003373ffffffffffffffffffffffffffffffffffffffff1673ffffffffffffffffffffffffffffffffffffffff16815260200190815260200160002060008373ffffffffffffffffffffffffffffffffffffffff1673ffffffffffffffffffffffffffffffffffffffff16815260200190815260200160002060006101000a81548160ff0219169083151502179055506001600660008373ffffffffffffffffffffffffffffffffffffffff1673ffffffffffffffffffffffffffffffffffffffff16815260200190815260200160002060000160008282546117df9190613f46565b925050819055506001600660003373ffffffffffffffffffffffffffffffffffffffff1673ffffffffffffffffffffffffffffffffffffffff16815260200190815260200160002060010160008282546118399190613f46565b925050819055505b50565b600073ffffffffffffffffffffffffffffffffffffffff163373ffffffffffffffffffffffffffffffffffffffff160361187d57600080fd5b600160003373ffffffffffffffffffffffffffffffffffffffff1673ffffffffffffffffffffffffffffffffffffffff16815260200190815260200160002060009054906101000a900460ff16156118d457600080fd5b600060405180608001604052803373ffffffffffffffffffffffffffffffffffffffff1681526020018581526020018481526020018381525090506001600960003373ffffffffffffffffffffffffffffffffffffffff1673ffffffffffffffffffffffffffffffffffffffff16815260200190815260200160002060003373ffffffffffffffffffffffffffffffffffffffff1673ffffffffffffffffffffffffffffffffffffffff16815260200190815260200160002060006101000a81548160ff021916908315150217905550806000803373ffffffffffffffffffffffffffffffffffffffff1673ffffffffffffffffffffffffffffffffffffffff16815260200190815260200160002060008201518160000160006101000a81548173ffffffffffffffffffffffffffffffffffffffff021916908373ffffffffffffffffffffffffffffffffffffffff1602179055506020820151816001019080519060200190611a46929190613457565b506040820151816002019080519060200190611a63929190613457565b506060820151816003019080519060200190611a80929190613457565b509050506002339080600181540180825580915050600190039060005260206000200160009091909190916101000a81548173ffffffffffffffffffffffffffffffffffffffff021916908373ffffffffffffffffffffffffffffffffffffffff16021790555060018060003373ffffffffffffffffffffffffffffffffffffffff1673ffffffffffffffffffffffffffffffffffffffff16815260200190815260200160002060006101000a81548160ff0219169083151502179055506040518060400160405280600081526020016000815250600660003373ffffffffffffffffffffffffffffffffffffffff1673ffffffffffffffffffffffffffffffffffffffff16815260200190815260200160002060008201518160000155602082015181600101559050507f891043d2e94b4aef9153ad13cfd5726c8d60b0f025da0a8fd7160d875808192a848484604051611bde93929190614044565b60405180910390a150505050565b6007602052816000526040600020602052806000526040600020600091509150508060000154908060010160009054906101000a900473ffffffffffffffffffffffffffffffffffffffff1690806002018054611c4890614013565b80601f0160208091040260200160405190810160405280929190818152602001828054611c7490614013565b8015611cc15780601f10611c9657610100808354040283529160200191611cc1565b820191906000526020600020905b815481529060010190602001808311611ca457829003601f168201915b505050505090806003018054611cd690614013565b80601f0160208091040260200160405190810160405280929190818152602001828054611d0290614013565b8015611d4f5780601f10611d2457610100808354040283529160200191611d4f565b820191906000526020600020905b815481529060010190602001808311611d3257829003601f168201915b505050505090806004018054611d6490614013565b80601f0160208091040260200160405190810160405280929190818152602001828054611d9090614013565b8015611ddd5780601f10611db257610100808354040283529160200191611ddd565b820191906000526020600020905b815481529060010190602001808311611dc057829003601f168201915b5050505050908060050154905086565b600073ffffffffffffffffffffffffffffffffffffffff163373ffffffffffffffffffffffffffffffffffffffff1603611e2657600080fd5b600160003373ffffffffffffffffffffffffffffffffffffffff1673ffffffffffffffffffffffffffffffffffffffff16815260200190815260200160002060009054906101000a900460ff16611e7c57600080fd5b600060405180608001604052803373ffffffffffffffffffffffffffffffffffffffff168152602001858152602001848152602001838152509050806000803373ffffffffffffffffffffffffffffffffffffffff1673ffffffffffffffffffffffffffffffffffffffff16815260200190815260200160002060008201518160000160006101000a81548173ffffffffffffffffffffffffffffffffffffffff021916908373ffffffffffffffffffffffffffffffffffffffff1602179055506020820151816001019080519060200190611f59929190613457565b506040820151816002019080519060200190611f76929190613457565b506060820151816003019080519060200190611f93929190613457565b509050507f891043d2e94b4aef9153ad13cfd5726c8d60b0f025da0a8fd7160d875808192a848484604051611fca93929190614044565b60405180910390a150505050565b611fe06134dd565b600073ffffffffffffffffffffffffffffffffffffffff163373ffffffffffffffffffffffffffffffffffffffff160361201957600080fd5b600160008373ffffffffffffffffffffffffffffffffffffffff1673ffffffffffffffffffffffffffffffffffffffff16815260200190815260200160002060009054906101000a900460ff1661206f57600080fd5b6000808373ffffffffffffffffffffffffffffffffffffffff1673ffffffffffffffffffffffffffffffffffffffff1681526020019081526020016000206040518060800160405290816000820160009054906101000a900473ffffffffffffffffffffffffffffffffffffffff1673ffffffffffffffffffffffffffffffffffffffff1673ffffffffffffffffffffffffffffffffffffffff16815260200160018201805461211e90614013565b80601f016020809104026020016040519081016040528092919081815260200182805461214a90614013565b80156121975780601f1061216c57610100808354040283529160200191612197565b820191906000526020600020905b81548152906001019060200180831161217a57829003601f168201915b505050505081526020016002820180546121b090614013565b80601f01602080910402602001604051908101604052809291908181526020018280546121dc90614013565b80156122295780601f106121fe57610100808354040283529160200191612229565b820191906000526020600020905b81548152906001019060200180831161220c57829003601f168201915b5050505050815260200160038201805461224290614013565b80601f016020809104026020016040519081016040528092919081815260200182805461226e90614013565b80156122bb5780601f10612290576101008083540402835291602001916122bb565b820191906000526020600020905b81548152906001019060200180831161229e57829003601f168201915b5050505050815250509050919050565b600b60205281600052604060002081815481106122e757600080fd5b90600052602060002001600091509150505481565b6060600073ffffffffffffffffffffffffffffffffffffffff168273ffffffffffffffffffffffffffffffffffffffff160361233757600080fd5b600160008373ffffffffffffffffffffffffffffffffffffffff1673ffffffffffffffffffffffffffffffffffffffff16815260200190815260200160002060009054906101000a900460ff1661238d57600080fd5b600960008373ffffffffffffffffffffffffffffffffffffffff1673ffffffffffffffffffffffffffffffffffffffff16815260200190815260200160002060003373ffffffffffffffffffffffffffffffffffffffff1673ffffffffffffffffffffffffffffffffffffffff16815260200190815260200160002060009054906101000a900460ff1661242057600080fd5b6000600c60008473ffffffffffffffffffffffffffffffffffffffff1673ffffffffffffffffffffffffffffffffffffffff1681526020019081526020016000208054806020026020016040519081016040528092919081815260200182805480156124ab57602002820191906000526020600020905b815481526020019060010190808311612497575b505050505090506000815167ffffffffffffffff8111156124cf576124ce613924565b5b60405190808252806020026020018201604052801561250857816020015b6124f561340b565b8152602001906001900390816124ed5790505b50905060005b82518110156127dd57600860008673ffffffffffffffffffffffffffffffffffffffff1673ffffffffffffffffffffffffffffffffffffffff168152602001908152602001600020600084838151811061256b5761256a613f17565b5b602002602001015181526020019081526020016000206040518060c0016040529081600082015481526020016001820160009054906101000a900473ffffffffffffffffffffffffffffffffffffffff1673ffffffffffffffffffffffffffffffffffffffff1673ffffffffffffffffffffffffffffffffffffffff1681526020016002820180546125fc90614013565b80601f016020809104026020016040519081016040528092919081815260200182805461262890614013565b80156126755780601f1061264a57610100808354040283529160200191612675565b820191906000526020600020905b81548152906001019060200180831161265857829003601f168201915b5050505050815260200160038201805461268e90614013565b80601f01602080910402602001604051908101604052809291908181526020018280546126ba90614013565b80156127075780601f106126dc57610100808354040283529160200191612707565b820191906000526020600020905b8154815290600101906020018083116126ea57829003601f168201915b5050505050815260200160048201805461272090614013565b80601f016020809104026020016040519081016040528092919081815260200182805461274c90614013565b80156127995780601f1061276e57610100808354040283529160200191612799565b820191906000526020600020905b81548152906001019060200180831161277c57829003601f168201915b505050505081526020016005820154815250508282815181106127bf576127be613f17565b5b602002602001018190525080806127d590613f9c565b91505061250e565b508092505050919050565b600073ffffffffffffffffffffffffffffffffffffffff163373ffffffffffffffffffffffffffffffffffffffff160361282157600080fd5b600160003373ffffffffffffffffffffffffffffffffffffffff1673ffffffffffffffffffffffffffffffffffffffff16815260200190815260200160002060009054906101000a900460ff1661287757600080fd5b600160008273ffffffffffffffffffffffffffffffffffffffff1673ffffffffffffffffffffffffffffffffffffffff16815260200190815260200160002060009054906101000a900460ff166128cd57600080fd5b6001600960008373ffffffffffffffffffffffffffffffffffffffff1673ffffffffffffffffffffffffffffffffffffffff16815260200190815260200160002060003373ffffffffffffffffffffffffffffffffffffffff1673ffffffffffffffffffffffffffffffffffffffff16815260200190815260200160002060006101000a81548160ff02191690831515021790555050565b60035481565b60006020528060005260406000206000915090508060000160009054906101000a900473ffffffffffffffffffffffffffffffffffffffff16908060010180546129b490614013565b80601f01602080910402602001604051908101604052809291908181526020018280546129e090614013565b8015612a2d5780601f10612a0257610100808354040283529160200191612a2d565b820191906000526020600020905b815481529060010190602001808311612a1057829003601f168201915b505050505090806002018054612a4290614013565b80601f0160208091040260200160405190810160405280929190818152602001828054612a6e90614013565b8015612abb5780601f10612a9057610100808354040283529160200191612abb565b820191906000526020600020905b815481529060010190602001808311612a9e57829003601f168201915b505050505090806003018054612ad090614013565b80601f0160208091040260200160405190810160405280929190818152602001828054612afc90614013565b8015612b495780601f10612b1e57610100808354040283529160200191612b49565b820191906000526020600020905b815481529060010190602001808311612b2c57829003601f168201915b5050505050905084565b60046020528160005260406000206020528060005260406000206000915091509054906101000a900460ff1681565b60066020528060005260406000206000915090508060000154908060010154905082565b600a6020528060005260406000206000915090505481565b60028181548110612bce57600080fd5b906000526020600020016000915054906101000a900473ffffffffffffffffffffffffffffffffffffffff1681565b60056020528160005260406000206020528060005260406000206000915091509054906101000a900460ff1681565b600073ffffffffffffffffffffffffffffffffffffffff163373ffffffffffffffffffffffffffffffffffffffff1603612c6557600080fd5b600160003373ffffffffffffffffffffffffffffffffffffffff1673ffffffffffffffffffffffffffffffffffffffff16815260200190815260200160002060009054906101000a900460ff16612cbb57600080fd5b60006040518060c001604052808381526020013373ffffffffffffffffffffffffffffffffffffffff168152602001858152602001868152602001848152602001600760003373ffffffffffffffffffffffffffffffffffffffff1673ffffffffffffffffffffffffffffffffffffffff168152602001908152602001600020600085815260200190815260200160002060050154815250905080600760003373ffffffffffffffffffffffffffffffffffffffff1673ffffffffffffffffffffffffffffffffffffffff16815260200190815260200160002060008481526020019081526020016000206000820151816000015560208201518160010160006101000a81548173ffffffffffffffffffffffffffffffffffffffff021916908373ffffffffffffffffffffffffffffffffffffffff1602179055506040820151816002019080519060200190612e13929190613457565b506060820151816003019080519060200190612e30929190613457565b506080820151816004019080519060200190612e4d929190613457565b5060a082015181600501559050507f36d65d457c0bad214885511e167a23c9aa1587088d9d1af45f5dc9fe01cf99ba84826060015183608001518460a00151604051612e9c9493929190614090565b60405180910390a15050505050565b600073ffffffffffffffffffffffffffffffffffffffff163373ffffffffffffffffffffffffffffffffffffffff1603612ee457600080fd5b600160003373ffffffffffffffffffffffffffffffffffffffff1673ffffffffffffffffffffffffffffffffffffffff16815260200190815260200160002060009054906101000a900460ff16612f3a57600080fd5b60006040518060c0016040528060035481526020013373ffffffffffffffffffffffffffffffffffffffff1681526020018481526020018581526020018381526020016000815250905080600860003373ffffffffffffffffffffffffffffffffffffffff1673ffffffffffffffffffffffffffffffffffffffff168152602001908152602001600020600060035481526020019081526020016000206000820151816000015560208201518160010160006101000a81548173ffffffffffffffffffffffffffffffffffffffff021916908373ffffffffffffffffffffffffffffffffffffffff1602179055506040820151816002019080519060200190613044929190613457565b506060820151816003019080519060200190613061929190613457565b50608082015181600401908051906020019061307e929190613457565b5060a08201518160050155905050600c60003373ffffffffffffffffffffffffffffffffffffffff1673ffffffffffffffffffffffffffffffffffffffff16815260200190815260200160002060035490806001815401808255809150506001900390600052602060002001600090919091909150556003600081548092919061310790613f9c565b91905055507f36d65d457c0bad214885511e167a23c9aa1587088d9d1af45f5dc9fe01cf99ba83826060015183608001518460a0015160405161314d9493929190614090565b60405180910390a150505050565b600073ffffffffffffffffffffffffffffffffffffffff163373ffffffffffffffffffffffffffffffffffffffff160361319457600080fd5b600160003373ffffffffffffffffffffffffffffffffffffffff1673ffffffffffffffffffffffffffffffffffffffff16815260200190815260200160002060009054906101000a900460ff166131ea57600080fd5b60006040518060c0016040528060035481526020013373ffffffffffffffffffffffffffffffffffffffff1681526020018481526020018581526020018381526020016000815250905080600760003373ffffffffffffffffffffffffffffffffffffffff1673ffffffffffffffffffffffffffffffffffffffff168152602001908152602001600020600060035481526020019081526020016000206000820151816000015560208201518160010160006101000a81548173ffffffffffffffffffffffffffffffffffffffff021916908373ffffffffffffffffffffffffffffffffffffffff16021790555060408201518160020190805190602001906132f4929190613457565b506060820151816003019080519060200190613311929190613457565b50608082015181600401908051906020019061332e929190613457565b5060a08201518160050155905050600b60003373ffffffffffffffffffffffffffffffffffffffff1673ffffffffffffffffffffffffffffffffffffffff1681526020019081526020016000206003549080600181540180825580915050600190039060005260206000200160009091909190915055600360008154809291906133b790613f9c565b91905055507f36d65d457c0bad214885511e167a23c9aa1587088d9d1af45f5dc9fe01cf99ba83826060015183608001518460a001516040516133fd9493929190614090565b60405180910390a150505050565b6040518060c0016040528060008152602001600073ffffffffffffffffffffffffffffffffffffffff168152602001606081526020016060815260200160608152602001600081525090565b82805461346390614013565b90600052602060002090601f01602090048101928261348557600085556134cc565b82601f1061349e57805160ff19168380011785556134cc565b828001600101855582156134cc579182015b828111156134cb5782518255916020019190600101906134b0565b5b5090506134d9919061351b565b5090565b6040518060800160405280600073ffffffffffffffffffffffffffffffffffffffff1681526020016060815260200160608152602001606081525090565b5b8082111561353457600081600090555060010161351c565b5090565b600081519050919050565b600082825260208201905092915050565b6000819050602082019050919050565b600073ffffffffffffffffffffffffffffffffffffffff82169050919050565b600061358f82613564565b9050919050565b61359f81613584565b82525050565b60006135b18383613596565b60208301905092915050565b6000602082019050919050565b60006135d582613538565b6135df8185613543565b93506135ea83613554565b8060005b8381101561361b57815161360288826135a5565b975061360d836135bd565b9250506001810190506135ee565b5085935050505092915050565b6000602082019050818103600083015261364281846135ca565b905092915050565b6000604051905090565b600080fd5b600080fd5b61366781613584565b811461367257600080fd5b50565b6000813590506136848161365e565b92915050565b6000602082840312156136a05761369f613654565b5b60006136ae84828501613675565b91505092915050565b600081519050919050565b600082825260208201905092915050565b6000819050602082019050919050565b6000819050919050565b6136f6816136e3565b82525050565b600081519050919050565b600082825260208201905092915050565b60005b8381101561373657808201518184015260208101905061371b565b83811115613745576000848401525b50505050565b6000601f19601f8301169050919050565b6000613767826136fc565b6137718185613707565b9350613781818560208601613718565b61378a8161374b565b840191505092915050565b600060c0830160008301516137ad60008601826136ed565b5060208301516137c06020860182613596565b50604083015184820360408601526137d8828261375c565b915050606083015184820360608601526137f2828261375c565b9150506080830151848203608086015261380c828261375c565b91505060a083015161382160a08601826136ed565b508091505092915050565b60006138388383613795565b905092915050565b6000602082019050919050565b6000613858826136b7565b61386281856136c2565b935083602082028501613874856136d3565b8060005b858110156138b05784840389528151613891858261382c565b945061389c83613840565b925060208a01995050600181019050613878565b50829750879550505050505092915050565b600060208201905081810360008301526138dc818461384d565b905092915050565b60008115159050919050565b6138f9816138e4565b82525050565b600060208201905061391460008301846138f0565b92915050565b600080fd5b600080fd5b7f4e487b7100000000000000000000000000000000000000000000000000000000600052604160045260246000fd5b61395c8261374b565b810181811067ffffffffffffffff8211171561397b5761397a613924565b5b80604052505050565b600061398e61364a565b905061399a8282613953565b919050565b600067ffffffffffffffff8211156139ba576139b9613924565b5b6139c38261374b565b9050602081019050919050565b82818337600083830152505050565b60006139f26139ed8461399f565b613984565b905082815260208101848484011115613a0e57613a0d61391f565b5b613a198482856139d0565b509392505050565b600082601f830112613a3657613a3561391a565b5b8135613a468482602086016139df565b91505092915050565b600080600060608486031215613a6857613a67613654565b5b600084013567ffffffffffffffff811115613a8657613a85613659565b5b613a9286828701613a21565b935050602084013567ffffffffffffffff811115613ab357613ab2613659565b5b613abf86828701613a21565b925050604084013567ffffffffffffffff811115613ae057613adf613659565b5b613aec86828701613a21565b9150509250925092565b613aff816136e3565b8114613b0a57600080fd5b50565b600081359050613b1c81613af6565b92915050565b60008060408385031215613b3957613b38613654565b5b6000613b4785828601613675565b9250506020613b5885828601613b0d565b9150509250929050565b613b6b816136e3565b82525050565b613b7a81613584565b82525050565b600082825260208201905092915050565b6000613b9c826136fc565b613ba68185613b80565b9350613bb6818560208601613718565b613bbf8161374b565b840191505092915050565b600060c082019050613bdf6000830189613b62565b613bec6020830188613b71565b8181036040830152613bfe8187613b91565b90508181036060830152613c128186613b91565b90508181036080830152613c268185613b91565b9050613c3560a0830184613b62565b979650505050505050565b6000608083016000830151613c586000860182613596565b5060208301518482036020860152613c70828261375c565b91505060408301518482036040860152613c8a828261375c565b91505060608301518482036060860152613ca4828261375c565b9150508091505092915050565b60006020820190508181036000830152613ccb8184613c40565b905092915050565b6000602082019050613ce86000830184613b62565b92915050565b6000608082019050613d036000830187613b71565b8181036020830152613d158186613b91565b90508181036040830152613d298185613b91565b90508181036060830152613d3d8184613b91565b905095945050505050565b60008060408385031215613d5f57613d5e613654565b5b6000613d6d85828601613675565b9250506020613d7e85828601613675565b9150509250929050565b6000604082019050613d9d6000830185613b62565b613daa6020830184613b62565b9392505050565b600060208284031215613dc757613dc6613654565b5b6000613dd584828501613b0d565b91505092915050565b6000602082019050613df36000830184613b71565b92915050565b60008060008060808587031215613e1357613e12613654565b5b600085013567ffffffffffffffff811115613e3157613e30613659565b5b613e3d87828801613a21565b945050602085013567ffffffffffffffff811115613e5e57613e5d613659565b5b613e6a87828801613a21565b935050604085013567ffffffffffffffff811115613e8b57613e8a613659565b5b613e9787828801613a21565b9250506060613ea887828801613b0d565b91505092959194509250565b7f4e487b7100000000000000000000000000000000000000000000000000000000600052601160045260246000fd5b6000613eee826136e3565b9150613ef9836136e3565b925082821015613f0c57613f0b613eb4565b5b828203905092915050565b7f4e487b7100000000000000000000000000000000000000000000000000000000600052603260045260246000fd5b6000613f51826136e3565b9150613f5c836136e3565b9250827fffffffffffffffffffffffffffffffffffffffffffffffffffffffffffffffff03821115613f9157613f90613eb4565b5b828201905092915050565b6000613fa7826136e3565b91507fffffffffffffffffffffffffffffffffffffffffffffffffffffffffffffffff8203613fd957613fd8613eb4565b5b600182019050919050565b7f4e487b7100000000000000000000000000000000000000000000000000000000600052602260045260246000fd5b6000600282049050600182168061402b57607f821691505b60208210810361403e5761403d613fe4565b5b50919050565b6000606082019050818103600083015261405e8186613b91565b905081810360208301526140728185613b91565b905081810360408301526140868184613b91565b9050949350505050565b600060808201905081810360008301526140aa8187613b91565b905081810360208301526140be8186613b91565b905081810360408301526140d28185613b91565b90506140e16060830184613b62565b9594505050505056fea26469706673582212200ed0a0fac8b1ae235294c000df9d346b7d3ccd4c159ce2416c55701308ba2c4164736f6c634300080d0033",
  "immutableReferences": {},
  "source": "// SPDX-License-Identifier: GPL-3.0\n\n// pragma solidity >=0.5.0;\npragma solidity >=0.4.22 <0.9.0;\npragma experimental ABIEncoderV2;\n\n/**\n * @title User\n * @dev Implements decentralised content creation on Blockchain\n */\ncontract DContent {\n\tstruct User {\n\t\taddress addr;\n\t\tstring name;\n\t\tstring photo;\n\t\tstring bio;\n\t}\n\n\tstruct Post_data {\n\t\tuint256 id;\n\t\taddress owner;\n\t\tstring hash;\n\t\tstring title;\n\t\tstring caption;\n\t\tuint256 likes;\n\t}\n\n\tstruct Network {\n\t\tuint256 num_followers;\n\t\tuint256 num_following;\n\t}\n\n\t// Profile\n\tmapping(address => User) public users;\n\tmapping(address => bool) public isUser;\n\taddress[] public user_id;\n\tuint256 public post_counter = 0;\n\n\t// Network\n\tmapping(address => mapping(address => bool)) public followers;\n\tmapping(address => mapping(address => bool)) public following;\n\tmapping(address => Network) public networks;\n\n\tmapping(address => mapping(uint256 => Post_data)) public posts;\n\tmapping(address => mapping(uint256 => Post_data)) internal private_posts;\n\tmapping(address => mapping(address => bool)) internal subscribed;\n\tmapping(address => uint256) public amount;\n\n\tmapping(address => uint256[]) public post_id;\n\tmapping(address => uint256[]) internal private_id;\n\n\tevent UserUpdated(string name, string photo, string bio);\n\n\tevent PostUpdated(string hash, string title, string caption, uint256 likes);\n\n\tfunction createUser(\n\t\tstring memory _name,\n\t\tstring memory photo,\n\t\tstring memory bio\n\t) public {\n\t\trequire(msg.sender != address(0));\n\t\trequire(!isUser[msg.sender]);\n\t\tUser memory user = User(msg.sender, _name, photo, bio);\n\t\tsubscribed[msg.sender][msg.sender] = true;\n\t\tusers[msg.sender] = user;\n\t\tuser_id.push(msg.sender);\n\t\tisUser[msg.sender] = true;\n\t\tnetworks[msg.sender] = Network(0, 0);\n\t\temit UserUpdated(_name, photo, bio);\n\t}\n\n\tfunction getUsers() public view returns (address[] memory) {\n\t\trequire(msg.sender != address(0));\n\t\t// if (user_id.length == 0) return new User[](0);\n\t\t// User[] memory data = new User[](user_id.length);\n\t\t// for (uint256 i = 0; i < user_id.length; i++) {\n\t\t// \tdata[i] = users[user_id[i]];\n\t\t// }\n\t\treturn user_id;\n\t}\n\n\tfunction getUser(address user) public view returns (User memory) {\n\t\trequire(msg.sender != address(0));\n\t\trequire(isUser[user]);\n\t\treturn users[user];\n\t}\n\n\tfunction updateUser(\n\t\tstring memory _name,\n\t\tstring memory photo,\n\t\tstring memory bio\n\t) public {\n\t\trequire(msg.sender != address(0));\n\t\trequire(isUser[msg.sender]);\n\t\tUser memory user = User(msg.sender, _name, photo, bio);\n\t\tusers[msg.sender] = user;\n\t\temit UserUpdated(_name, photo, bio);\n\t}\n\n\tfunction follow(address user) public {\n\t\trequire(msg.sender != address(0));\n\t\trequire(user != address(0));\n\t\trequire(isUser[msg.sender]);\n\t\trequire(isUser[user]);\n\t\tif (!followers[user][msg.sender]) {\n\t\t\tfollowers[user][msg.sender] = true;\n\t\t\tfollowing[msg.sender][user] = true;\n\t\t\tnetworks[user].num_followers += 1;\n\t\t\tnetworks[msg.sender].num_following += 1;\n\t\t}\n\t}\n\n\tfunction unfollow(address user) public {\n\t\trequire(msg.sender != address(0));\n\t\trequire(user != address(0));\n\t\trequire(isUser[msg.sender]);\n\t\trequire(isUser[user]);\n\t\tif (followers[user][msg.sender]) {\n\t\t\tfollowers[user][msg.sender] = false;\n\t\t\tfollowing[msg.sender][user] = false;\n\t\t\tnetworks[user].num_followers -= 1;\n\t\t\tnetworks[msg.sender].num_following -= 1;\n\t\t}\n\t}\n\n\tfunction createPost(\n\t\tstring memory title,\n\t\tstring memory hash,\n\t\tstring memory caption\n\t) public {\n\t\trequire(msg.sender != address(0));\n\t\trequire(isUser[msg.sender]);\n\t\tPost_data memory post = Post_data(\n\t\t\tpost_counter,\n\t\t\tmsg.sender,\n\t\t\thash,\n\t\t\ttitle,\n\t\t\tcaption,\n\t\t\t0\n\t\t);\n\t\tposts[msg.sender][post_counter] = post;\n\t\tpost_id[msg.sender].push(post_counter);\n\t\tpost_counter++;\n\t\temit PostUpdated(hash, post.title, post.caption, post.likes);\n\t}\n\n\tfunction createPrivatePost(\n\t\tstring memory title,\n\t\tstring memory hash,\n\t\tstring memory caption\n\t) public {\n\t\trequire(msg.sender != address(0));\n\t\trequire(isUser[msg.sender]);\n\t\tPost_data memory post = Post_data(\n\t\t\tpost_counter,\n\t\t\tmsg.sender,\n\t\t\thash,\n\t\t\ttitle,\n\t\t\tcaption,\n\t\t\t0\n\t\t);\n\t\tprivate_posts[msg.sender][post_counter] = post;\n\t\tprivate_id[msg.sender].push(post_counter);\n\t\tpost_counter++;\n\t\temit PostUpdated(hash, post.title, post.caption, post.likes);\n\t}\n\n\tfunction subscribedUser(address user) public {\n\t\trequire(msg.sender != address(0));\n\t\trequire(isUser[msg.sender]);\n\t\trequire(isUser[user]);\n\n\t\t// do money trantions\n\t\tsubscribed[user][msg.sender] = true;\n\t}\n\n\tfunction updatePost(\n\t\tstring memory title,\n\t\tstring memory hash,\n\t\tstring memory caption,\n\t\tuint256 id\n\t) public {\n\t\trequire(msg.sender != address(0));\n\t\trequire(isUser[msg.sender]);\n\t\tPost_data memory post = Post_data(\n\t\t\tid,\n\t\t\tmsg.sender,\n\t\t\thash,\n\t\t\ttitle,\n\t\t\tcaption,\n\t\t\tposts[msg.sender][id].likes\n\t\t);\n\t\tposts[msg.sender][id] = post;\n\t\temit PostUpdated(hash, post.title, post.caption, post.likes);\n\t}\n\n\tfunction getPosts() public view returns (Post_data[] memory) {\n\t\trequire(msg.sender != address(0));\n\t\trequire(isUser[msg.sender]);\n\t\tuint256[] memory ids = post_id[msg.sender];\n\t\tPost_data[] memory retrieval = new Post_data[](ids.length);\n\t\tfor (uint256 i = 0; i < ids.length; i++) {\n\t\t\tretrieval[i] = posts[msg.sender][ids[i]];\n\t\t}\n\t\treturn retrieval;\n\t}\n\n\tfunction getPosts(address user) public view returns (Post_data[] memory) {\n\t\trequire(user != address(0));\n\t\trequire(isUser[user]);\n\t\tuint256[] memory ids = post_id[user];\n\t\tPost_data[] memory retrieval = new Post_data[](ids.length);\n\t\tfor (uint256 i = 0; i < ids.length; i++) {\n\t\t\tretrieval[i] = posts[user][ids[i]];\n\t\t}\n\t\treturn retrieval;\n\t}\n\n\tfunction getPrivatePosts(address user)\n\t\tpublic\n\t\tview\n\t\treturns (Post_data[] memory)\n\t{\n\t\trequire(user != address(0));\n\t\trequire(isUser[user]);\n\t\trequire(subscribed[user][msg.sender]);\n\n\t\tuint256[] memory ids = private_id[user];\n\t\tPost_data[] memory retrieval = new Post_data[](ids.length);\n\t\tfor (uint256 i = 0; i < ids.length; i++) {\n\t\t\tretrieval[i] = private_posts[user][ids[i]];\n\t\t}\n\t\treturn retrieval;\n\t}\n\n\tfunction getAllPosts() public view returns (Post_data[] memory) {\n\t\trequire(msg.sender != address(0));\n\t\tif (user_id.length == 0) return new Post_data[](0);\n\t\tPost_data[] memory all_posts = getPosts(user_id[0]);\n\t\tfor (uint256 i = 1; i < user_id.length; i++) {\n\t\t\tPost_data[] memory user_id_posts = getPosts(user_id[i]);\n\t\t\tPost_data[] memory temp = new Post_data[](\n\t\t\t\tall_posts.length + user_id_posts.length\n\t\t\t);\n\t\t\tfor (uint256 j = 0; j < all_posts.length; j++) {\n\t\t\t\ttemp[j] = all_posts[j];\n\t\t\t}\n\t\t\tfor (uint256 j = 0; j < user_id_posts.length; j++) {\n\t\t\t\ttemp[all_posts.length + j] = user_id_posts[j];\n\t\t\t}\n\t\t\tall_posts = temp;\n\t\t}\n\n\t\treturn all_posts;\n\t}\n}\n",
  "sourcePath": "/home/vatsal/Web-Development/DContent/src/contracts/DContent.sol",
  "compiler": {
    "name": "solc",
    "version": "0.8.13+commit.abaa5c0e.Emscripten.clang"
  },
  "schemaVersion": "3.4.7",
  "updatedAt": "2022-04-24T04:57:38.973Z",
  "devdoc": {
    "details": "Implements decentralised content creation on Blockchain",
    "kind": "dev",
    "methods": {},
    "title": "User",
    "version": 1
  },
  "userdoc": {
    "kind": "user",
    "methods": {},
    "version": 1
  }
}