{
  "contractName": "DContent",
  "abi": [
    {
      "anonymous": false,
      "inputs": [
        {
          "indexed": false,
          "internalType": "string",
          "name": "hash",
          "type": "string"
        },
        {
          "indexed": false,
          "internalType": "string",
          "name": "title",
          "type": "string"
        },
        {
          "indexed": false,
          "internalType": "string",
          "name": "caption",
          "type": "string"
        },
        {
          "indexed": false,
          "internalType": "uint256",
          "name": "likes",
          "type": "uint256"
        }
      ],
      "name": "PostUpdated",
      "type": "event"
    },
    {
      "anonymous": false,
      "inputs": [
        {
          "indexed": false,
          "internalType": "string",
          "name": "name",
          "type": "string"
        },
        {
          "indexed": false,
          "internalType": "string",
          "name": "photo",
          "type": "string"
        },
        {
          "indexed": false,
          "internalType": "string",
          "name": "bio",
          "type": "string"
        }
      ],
      "name": "UserUpdated",
      "type": "event"
    },
    {
      "inputs": [
        {
          "internalType": "address",
          "name": "",
          "type": "address"
        }
      ],
      "name": "amount",
      "outputs": [
        {
          "internalType": "uint256",
          "name": "",
          "type": "uint256"
        }
      ],
      "stateMutability": "view",
      "type": "function"
    },
    {
      "inputs": [
        {
          "internalType": "address",
          "name": "",
          "type": "address"
        },
        {
          "internalType": "address",
          "name": "",
          "type": "address"
        }
      ],
      "name": "followers",
      "outputs": [
        {
          "internalType": "bool",
          "name": "",
          "type": "bool"
        }
      ],
      "stateMutability": "view",
      "type": "function"
    },
    {
      "inputs": [
        {
          "internalType": "address",
          "name": "",
          "type": "address"
        },
        {
          "internalType": "address",
          "name": "",
          "type": "address"
        }
      ],
      "name": "following",
      "outputs": [
        {
          "internalType": "bool",
          "name": "",
          "type": "bool"
        }
      ],
      "stateMutability": "view",
      "type": "function"
    },
    {
      "inputs": [
        {
          "internalType": "address",
          "name": "",
          "type": "address"
        }
      ],
      "name": "isUser",
      "outputs": [
        {
          "internalType": "bool",
          "name": "",
          "type": "bool"
        }
      ],
      "stateMutability": "view",
      "type": "function"
    },
    {
      "inputs": [
        {
          "internalType": "address",
          "name": "",
          "type": "address"
        }
      ],
      "name": "networks",
      "outputs": [
        {
          "internalType": "uint256",
          "name": "num_followers",
          "type": "uint256"
        },
        {
          "internalType": "uint256",
          "name": "num_following",
          "type": "uint256"
        }
      ],
      "stateMutability": "view",
      "type": "function"
    },
    {
      "inputs": [],
      "name": "post_counter",
      "outputs": [
        {
          "internalType": "uint256",
          "name": "",
          "type": "uint256"
        }
      ],
      "stateMutability": "view",
      "type": "function"
    },
    {
      "inputs": [
        {
          "internalType": "address",
          "name": "",
          "type": "address"
        },
        {
          "internalType": "uint256",
          "name": "",
          "type": "uint256"
        }
      ],
      "name": "post_id",
      "outputs": [
        {
          "internalType": "uint256",
          "name": "",
          "type": "uint256"
        }
      ],
      "stateMutability": "view",
      "type": "function"
    },
    {
      "inputs": [
        {
          "internalType": "address",
          "name": "",
          "type": "address"
        },
        {
          "internalType": "uint256",
          "name": "",
          "type": "uint256"
        }
      ],
      "name": "posts",
      "outputs": [
        {
          "internalType": "uint256",
          "name": "id",
          "type": "uint256"
        },
        {
          "internalType": "address",
          "name": "owner",
          "type": "address"
        },
        {
          "internalType": "string",
          "name": "hash",
          "type": "string"
        },
        {
          "internalType": "string",
          "name": "title",
          "type": "string"
        },
        {
          "internalType": "string",
          "name": "caption",
          "type": "string"
        },
        {
          "internalType": "uint256",
          "name": "likes",
          "type": "uint256"
        }
      ],
      "stateMutability": "view",
      "type": "function"
    },
    {
      "inputs": [
        {
          "internalType": "uint256",
          "name": "",
          "type": "uint256"
        }
      ],
      "name": "user_id",
      "outputs": [
        {
          "internalType": "address",
          "name": "",
          "type": "address"
        }
      ],
      "stateMutability": "view",
      "type": "function"
    },
    {
      "inputs": [
        {
          "internalType": "address",
          "name": "",
          "type": "address"
        }
      ],
      "name": "users",
      "outputs": [
        {
          "internalType": "address",
          "name": "addr",
          "type": "address"
        },
        {
          "internalType": "string",
          "name": "name",
          "type": "string"
        },
        {
          "internalType": "string",
          "name": "photo",
          "type": "string"
        },
        {
          "internalType": "string",
          "name": "bio",
          "type": "string"
        }
      ],
      "stateMutability": "view",
      "type": "function"
    },
    {
      "inputs": [
        {
          "internalType": "string",
          "name": "_name",
          "type": "string"
        },
        {
          "internalType": "string",
          "name": "photo",
          "type": "string"
        },
        {
          "internalType": "string",
          "name": "bio",
          "type": "string"
        },
        {
          "internalType": "uint256",
          "name": "_amount",
          "type": "uint256"
        }
      ],
      "name": "createUser",
      "outputs": [],
      "stateMutability": "nonpayable",
      "type": "function"
    },
    {
      "inputs": [],
      "name": "getUsers",
      "outputs": [
        {
          "internalType": "address[]",
          "name": "",
          "type": "address[]"
        }
      ],
      "stateMutability": "view",
      "type": "function"
    },
    {
      "inputs": [
        {
          "internalType": "address",
          "name": "user",
          "type": "address"
        }
      ],
      "name": "getUser",
      "outputs": [
        {
          "components": [
            {
              "internalType": "address",
              "name": "addr",
              "type": "address"
            },
            {
              "internalType": "string",
              "name": "name",
              "type": "string"
            },
            {
              "internalType": "string",
              "name": "photo",
              "type": "string"
            },
            {
              "internalType": "string",
              "name": "bio",
              "type": "string"
            }
          ],
          "internalType": "struct DContent.User",
          "name": "",
          "type": "tuple"
        }
      ],
      "stateMutability": "view",
      "type": "function"
    },
    {
      "inputs": [
        {
          "internalType": "string",
          "name": "_name",
          "type": "string"
        },
        {
          "internalType": "string",
          "name": "photo",
          "type": "string"
        },
        {
          "internalType": "string",
          "name": "bio",
          "type": "string"
        },
        {
          "internalType": "uint256",
          "name": "_amount",
          "type": "uint256"
        }
      ],
      "name": "updateUser",
      "outputs": [],
      "stateMutability": "nonpayable",
      "type": "function"
    },
    {
      "inputs": [
        {
          "internalType": "address",
          "name": "user",
          "type": "address"
        }
      ],
      "name": "follow",
      "outputs": [],
      "stateMutability": "nonpayable",
      "type": "function"
    },
    {
      "inputs": [
        {
          "internalType": "address",
          "name": "user",
          "type": "address"
        }
      ],
      "name": "unfollow",
      "outputs": [],
      "stateMutability": "nonpayable",
      "type": "function"
    },
    {
      "inputs": [
        {
          "internalType": "string",
          "name": "title",
          "type": "string"
        },
        {
          "internalType": "string",
          "name": "hash",
          "type": "string"
        },
        {
          "internalType": "string",
          "name": "caption",
          "type": "string"
        }
      ],
      "name": "createPost",
      "outputs": [],
      "stateMutability": "nonpayable",
      "type": "function"
    },
    {
      "inputs": [
        {
          "internalType": "string",
          "name": "title",
          "type": "string"
        },
        {
          "internalType": "string",
          "name": "hash",
          "type": "string"
        },
        {
          "internalType": "string",
          "name": "caption",
          "type": "string"
        }
      ],
      "name": "createPrivatePost",
      "outputs": [],
      "stateMutability": "nonpayable",
      "type": "function"
    },
    {
      "inputs": [
        {
          "internalType": "address payable",
          "name": "receiver",
          "type": "address"
        }
      ],
      "name": "subscribedUser",
      "outputs": [],
      "stateMutability": "payable",
      "type": "function"
    },
    {
      "inputs": [
        {
          "internalType": "string",
          "name": "title",
          "type": "string"
        },
        {
          "internalType": "string",
          "name": "hash",
          "type": "string"
        },
        {
          "internalType": "string",
          "name": "caption",
          "type": "string"
        },
        {
          "internalType": "uint256",
          "name": "id",
          "type": "uint256"
        }
      ],
      "name": "updatePost",
      "outputs": [],
      "stateMutability": "nonpayable",
      "type": "function"
    },
    {
      "inputs": [],
      "name": "getMySubscriptions",
      "outputs": [
        {
          "internalType": "address[]",
          "name": "",
          "type": "address[]"
        }
      ],
      "stateMutability": "view",
      "type": "function"
    },
    {
      "inputs": [],
      "name": "getPosts",
      "outputs": [
        {
          "components": [
            {
              "internalType": "uint256",
              "name": "id",
              "type": "uint256"
            },
            {
              "internalType": "address",
              "name": "owner",
              "type": "address"
            },
            {
              "internalType": "string",
              "name": "hash",
              "type": "string"
            },
            {
              "internalType": "string",
              "name": "title",
              "type": "string"
            },
            {
              "internalType": "string",
              "name": "caption",
              "type": "string"
            },
            {
              "internalType": "uint256",
              "name": "likes",
              "type": "uint256"
            }
          ],
          "internalType": "struct DContent.Post_data[]",
          "name": "",
          "type": "tuple[]"
        }
      ],
      "stateMutability": "view",
      "type": "function"
    },
    {
      "inputs": [
        {
          "internalType": "address",
          "name": "user",
          "type": "address"
        }
      ],
      "name": "getPosts",
      "outputs": [
        {
          "components": [
            {
              "internalType": "uint256",
              "name": "id",
              "type": "uint256"
            },
            {
              "internalType": "address",
              "name": "owner",
              "type": "address"
            },
            {
              "internalType": "string",
              "name": "hash",
              "type": "string"
            },
            {
              "internalType": "string",
              "name": "title",
              "type": "string"
            },
            {
              "internalType": "string",
              "name": "caption",
              "type": "string"
            },
            {
              "internalType": "uint256",
              "name": "likes",
              "type": "uint256"
            }
          ],
          "internalType": "struct DContent.Post_data[]",
          "name": "",
          "type": "tuple[]"
        }
      ],
      "stateMutability": "view",
      "type": "function"
    },
    {
      "inputs": [
        {
          "internalType": "address",
          "name": "user",
          "type": "address"
        }
      ],
      "name": "getPrivatePosts",
      "outputs": [
        {
          "components": [
            {
              "internalType": "uint256",
              "name": "id",
              "type": "uint256"
            },
            {
              "internalType": "address",
              "name": "owner",
              "type": "address"
            },
            {
              "internalType": "string",
              "name": "hash",
              "type": "string"
            },
            {
              "internalType": "string",
              "name": "title",
              "type": "string"
            },
            {
              "internalType": "string",
              "name": "caption",
              "type": "string"
            },
            {
              "internalType": "uint256",
              "name": "likes",
              "type": "uint256"
            }
          ],
          "internalType": "struct DContent.Post_data[]",
          "name": "",
          "type": "tuple[]"
        }
      ],
      "stateMutability": "view",
      "type": "function"
    },
    {
      "inputs": [],
      "name": "getAllPosts",
      "outputs": [
        {
          "components": [
            {
              "internalType": "uint256",
              "name": "id",
              "type": "uint256"
            },
            {
              "internalType": "address",
              "name": "owner",
              "type": "address"
            },
            {
              "internalType": "string",
              "name": "hash",
              "type": "string"
            },
            {
              "internalType": "string",
              "name": "title",
              "type": "string"
            },
            {
              "internalType": "string",
              "name": "caption",
              "type": "string"
            },
            {
              "internalType": "uint256",
              "name": "likes",
              "type": "uint256"
            }
          ],
          "internalType": "struct DContent.Post_data[]",
          "name": "",
          "type": "tuple[]"
        }
      ],
      "stateMutability": "view",
      "type": "function"
    }
  ],
  "bytecode": "0x6080604052600060035534801561001557600080fd5b50614740806100256000396000f3fe6080604052600436106101655760003560e01c8063847ef918116100d1578063c1976b831161008a578063ced95ed011610064578063ced95ed0146105bd578063cef4b20d146105e6578063d26a72281461060f578063e8a4a1eb1461063857610165565b8063c1976b831461051a578063c6b4507f14610543578063ce9ae0011461058057610165565b8063847ef918146103db5780638bb6b284146103f7578063a87430ba14610422578063ad88881b14610462578063b5e2efd21461049f578063b9f0bf66146104dd57610165565b80634caf9d0b116101235780634caf9d0b1461027c5780634dbf27cc146102b95780635c538df3146102e25780636f77926b146103245780637a60ab5a146103615780638244b44b1461039e57610165565b8062ce8e3e1461016a578063015a4ead146101955780632b36d949146101be57806330561100146101e957806341f3004a146102145780634209fff11461023f575b600080fd5b34801561017657600080fd5b5061017f610661565b60405161018c9190613bdd565b60405180910390f35b3480156101a157600080fd5b506101bc60048036038101906101b79190613c3f565b610728565b005b3480156101ca57600080fd5b506101d3610ab7565b6040516101e09190613bdd565b60405180910390f35b3480156101f557600080fd5b506101fe610e2e565b60405161020b9190613e77565b60405180910390f35b34801561022057600080fd5b506102296110c1565b6040516102369190613e77565b60405180910390f35b34801561024b57600080fd5b5061026660048036038101906102619190613c3f565b611518565b6040516102739190613eb4565b60405180910390f35b34801561028857600080fd5b506102a3600480360381019061029e9190613c3f565b611538565b6040516102b09190613e77565b60405180910390f35b3480156102c557600080fd5b506102e060048036038101906102db9190613c3f565b611991565b005b3480156102ee57600080fd5b5061030960048036038101906103049190613efb565b611d1f565b60405161031b96959493929190613fa3565b60405180910390f35b34801561033057600080fd5b5061034b60048036038101906103469190613c3f565b611f20565b604051610358919061408a565b60405180910390f35b34801561036d57600080fd5b5061038860048036038101906103839190613efb565b612213565b60405161039591906140ac565b60405180910390f35b3480156103aa57600080fd5b506103c560048036038101906103c09190613c3f565b612244565b6040516103d29190613e77565b60405180910390f35b6103f560048036038101906103f09190614105565b612730565b005b34801561040357600080fd5b5061040c6128f4565b60405161041991906140ac565b60405180910390f35b34801561042e57600080fd5b5061044960048036038101906104449190613c3f565b6128fa565b6040516104599493929190614132565b60405180910390f35b34801561046e57600080fd5b506104896004803603810190610484919061418c565b612ae2565b6040516104969190613eb4565b60405180910390f35b3480156104ab57600080fd5b506104c660048036038101906104c19190613c3f565b612b11565b6040516104d49291906141cc565b60405180910390f35b3480156104e957600080fd5b5061050460048036038101906104ff9190613c3f565b612b35565b60405161051191906140ac565b60405180910390f35b34801561052657600080fd5b50610541600480360381019061053c919061432a565b612b4d565b005b34801561054f57600080fd5b5061056a600480360381019061056591906143e5565b612d86565b6040516105779190614412565b60405180910390f35b34801561058c57600080fd5b506105a760048036038101906105a2919061418c565b612dc5565b6040516105b49190613eb4565b60405180910390f35b3480156105c957600080fd5b506105e460048036038101906105df919061432a565b612df4565b005b3480156105f257600080fd5b5061060d6004803603810190610608919061442d565b613073565b005b34801561061b57600080fd5b506106366004803603810190610631919061432a565b613323565b005b34801561064457600080fd5b5061065f600480360381019061065a919061442d565b613710565b005b6060600073ffffffffffffffffffffffffffffffffffffffff163373ffffffffffffffffffffffffffffffffffffffff160361069c57600080fd5b600280548060200260200160405190810160405280929190818152602001828054801561071e57602002820191906000526020600020905b8160009054906101000a900473ffffffffffffffffffffffffffffffffffffffff1673ffffffffffffffffffffffffffffffffffffffff16815260200190600101908083116106d4575b5050505050905090565b600073ffffffffffffffffffffffffffffffffffffffff163373ffffffffffffffffffffffffffffffffffffffff160361076157600080fd5b600073ffffffffffffffffffffffffffffffffffffffff168173ffffffffffffffffffffffffffffffffffffffff160361079a57600080fd5b600160003373ffffffffffffffffffffffffffffffffffffffff1673ffffffffffffffffffffffffffffffffffffffff16815260200190815260200160002060009054906101000a900460ff166107f057600080fd5b600160008273ffffffffffffffffffffffffffffffffffffffff1673ffffffffffffffffffffffffffffffffffffffff16815260200190815260200160002060009054906101000a900460ff1661084657600080fd5b600460008273ffffffffffffffffffffffffffffffffffffffff1673ffffffffffffffffffffffffffffffffffffffff16815260200190815260200160002060003373ffffffffffffffffffffffffffffffffffffffff1673ffffffffffffffffffffffffffffffffffffffff16815260200190815260200160002060009054906101000a900460ff1615610ab4576000600460008373ffffffffffffffffffffffffffffffffffffffff1673ffffffffffffffffffffffffffffffffffffffff16815260200190815260200160002060003373ffffffffffffffffffffffffffffffffffffffff1673ffffffffffffffffffffffffffffffffffffffff16815260200190815260200160002060006101000a81548160ff0219169083151502179055506000600560003373ffffffffffffffffffffffffffffffffffffffff1673ffffffffffffffffffffffffffffffffffffffff16815260200190815260200160002060008373ffffffffffffffffffffffffffffffffffffffff1673ffffffffffffffffffffffffffffffffffffffff16815260200190815260200160002060006101000a81548160ff0219169083151502179055506001600660008373ffffffffffffffffffffffffffffffffffffffff1673ffffffffffffffffffffffffffffffffffffffff1681526020019081526020016000206000016000828254610a529190614503565b925050819055506001600660003373ffffffffffffffffffffffffffffffffffffffff1673ffffffffffffffffffffffffffffffffffffffff1681526020019081526020016000206001016000828254610aac9190614503565b925050819055505b50565b6060600073ffffffffffffffffffffffffffffffffffffffff163373ffffffffffffffffffffffffffffffffffffffff1603610af257600080fd5b600160003373ffffffffffffffffffffffffffffffffffffffff1673ffffffffffffffffffffffffffffffffffffffff16815260200190815260200160002060009054906101000a900460ff16610b4857600080fd5b6000805b600280549050811015610c48576009600060028381548110610b7157610b70614537565b5b9060005260206000200160009054906101000a900473ffffffffffffffffffffffffffffffffffffffff1673ffffffffffffffffffffffffffffffffffffffff1673ffffffffffffffffffffffffffffffffffffffff16815260200190815260200160002060003373ffffffffffffffffffffffffffffffffffffffff1673ffffffffffffffffffffffffffffffffffffffff16815260200190815260200160002060009054906101000a900460ff1615610c35578180610c3190614566565b9250505b8080610c4090614566565b915050610b4c565b5060008167ffffffffffffffff811115610c6557610c646141ff565b5b604051908082528060200260200182016040528015610c935781602001602082028036833780820191505090505b5090506000915060005b600280549050811015610e25576009600060028381548110610cc257610cc1614537565b5b9060005260206000200160009054906101000a900473ffffffffffffffffffffffffffffffffffffffff1673ffffffffffffffffffffffffffffffffffffffff1673ffffffffffffffffffffffffffffffffffffffff16815260200190815260200160002060003373ffffffffffffffffffffffffffffffffffffffff1673ffffffffffffffffffffffffffffffffffffffff16815260200190815260200160002060009054906101000a900460ff1615610e125760028181548110610d8b57610d8a614537565b5b9060005260206000200160009054906101000a900473ffffffffffffffffffffffffffffffffffffffff16828481518110610dc957610dc8614537565b5b602002602001019073ffffffffffffffffffffffffffffffffffffffff16908173ffffffffffffffffffffffffffffffffffffffff16815250508280610e0e90614566565b9350505b8080610e1d90614566565b915050610c9d565b50809250505090565b6060600073ffffffffffffffffffffffffffffffffffffffff163373ffffffffffffffffffffffffffffffffffffffff1603610e6957600080fd5b600060028054905003610ed257600067ffffffffffffffff811115610e9157610e906141ff565b5b604051908082528060200260200182016040528015610eca57816020015b610eb76139c0565b815260200190600190039081610eaf5790505b5090506110be565b6000610f1c6002600081548110610eec57610eeb614537565b5b9060005260206000200160009054906101000a900473ffffffffffffffffffffffffffffffffffffffff16611538565b90506000600190505b6002805490508110156110b8576000610f7b60028381548110610f4b57610f4a614537565b5b9060005260206000200160009054906101000a900473ffffffffffffffffffffffffffffffffffffffff16611538565b9050600081518451610f8d91906145ae565b67ffffffffffffffff811115610fa657610fa56141ff565b5b604051908082528060200260200182016040528015610fdf57816020015b610fcc6139c0565b815260200190600190039081610fc45790505b50905060005b845181101561103a5784818151811061100157611000614537565b5b602002602001015182828151811061101c5761101b614537565b5b6020026020010181905250808061103290614566565b915050610fe5565b5060005b825181101561109f5782818151811061105a57611059614537565b5b60200260200101518282875161107091906145ae565b8151811061108157611080614537565b5b6020026020010181905250808061109790614566565b91505061103e565b50809350505080806110b090614566565b915050610f25565b50809150505b90565b6060600073ffffffffffffffffffffffffffffffffffffffff163373ffffffffffffffffffffffffffffffffffffffff16036110fc57600080fd5b600160003373ffffffffffffffffffffffffffffffffffffffff1673ffffffffffffffffffffffffffffffffffffffff16815260200190815260200160002060009054906101000a900460ff1661115257600080fd5b6000600b60003373ffffffffffffffffffffffffffffffffffffffff1673ffffffffffffffffffffffffffffffffffffffff1681526020019081526020016000208054806020026020016040519081016040528092919081815260200182805480156111dd57602002820191906000526020600020905b8154815260200190600101908083116111c9575b505050505090506000815167ffffffffffffffff811115611201576112006141ff565b5b60405190808252806020026020018201604052801561123a57816020015b6112276139c0565b81526020019060019003908161121f5790505b50905060005b825181101561150f57600760003373ffffffffffffffffffffffffffffffffffffffff1673ffffffffffffffffffffffffffffffffffffffff168152602001908152602001600020600084838151811061129d5761129c614537565b5b602002602001015181526020019081526020016000206040518060c0016040529081600082015481526020016001820160009054906101000a900473ffffffffffffffffffffffffffffffffffffffff1673ffffffffffffffffffffffffffffffffffffffff1673ffffffffffffffffffffffffffffffffffffffff16815260200160028201805461132e90614633565b80601f016020809104026020016040519081016040528092919081815260200182805461135a90614633565b80156113a75780601f1061137c576101008083540402835291602001916113a7565b820191906000526020600020905b81548152906001019060200180831161138a57829003601f168201915b505050505081526020016003820180546113c090614633565b80601f01602080910402602001604051908101604052809291908181526020018280546113ec90614633565b80156114395780601f1061140e57610100808354040283529160200191611439565b820191906000526020600020905b81548152906001019060200180831161141c57829003601f168201915b5050505050815260200160048201805461145290614633565b80601f016020809104026020016040519081016040528092919081815260200182805461147e90614633565b80156114cb5780601f106114a0576101008083540402835291602001916114cb565b820191906000526020600020905b8154815290600101906020018083116114ae57829003601f168201915b505050505081526020016005820154815250508282815181106114f1576114f0614537565b5b6020026020010181905250808061150790614566565b915050611240565b50809250505090565b60016020528060005260406000206000915054906101000a900460ff1681565b6060600073ffffffffffffffffffffffffffffffffffffffff168273ffffffffffffffffffffffffffffffffffffffff160361157357600080fd5b600160008373ffffffffffffffffffffffffffffffffffffffff1673ffffffffffffffffffffffffffffffffffffffff16815260200190815260200160002060009054906101000a900460ff166115c957600080fd5b6000600b60008473ffffffffffffffffffffffffffffffffffffffff1673ffffffffffffffffffffffffffffffffffffffff16815260200190815260200160002080548060200260200160405190810160405280929190818152602001828054801561165457602002820191906000526020600020905b815481526020019060010190808311611640575b505050505090506000815167ffffffffffffffff811115611678576116776141ff565b5b6040519080825280602002602001820160405280156116b157816020015b61169e6139c0565b8152602001906001900390816116965790505b50905060005b825181101561198657600760008673ffffffffffffffffffffffffffffffffffffffff1673ffffffffffffffffffffffffffffffffffffffff168152602001908152602001600020600084838151811061171457611713614537565b5b602002602001015181526020019081526020016000206040518060c0016040529081600082015481526020016001820160009054906101000a900473ffffffffffffffffffffffffffffffffffffffff1673ffffffffffffffffffffffffffffffffffffffff1673ffffffffffffffffffffffffffffffffffffffff1681526020016002820180546117a590614633565b80601f01602080910402602001604051908101604052809291908181526020018280546117d190614633565b801561181e5780601f106117f35761010080835404028352916020019161181e565b820191906000526020600020905b81548152906001019060200180831161180157829003601f168201915b5050505050815260200160038201805461183790614633565b80601f016020809104026020016040519081016040528092919081815260200182805461186390614633565b80156118b05780601f10611885576101008083540402835291602001916118b0565b820191906000526020600020905b81548152906001019060200180831161189357829003601f168201915b505050505081526020016004820180546118c990614633565b80601f01602080910402602001604051908101604052809291908181526020018280546118f590614633565b80156119425780601f1061191757610100808354040283529160200191611942565b820191906000526020600020905b81548152906001019060200180831161192557829003601f168201915b5050505050815260200160058201548152505082828151811061196857611967614537565b5b6020026020010181905250808061197e90614566565b9150506116b7565b508092505050919050565b600073ffffffffffffffffffffffffffffffffffffffff163373ffffffffffffffffffffffffffffffffffffffff16036119ca57600080fd5b600073ffffffffffffffffffffffffffffffffffffffff168173ffffffffffffffffffffffffffffffffffffffff1603611a0357600080fd5b600160003373ffffffffffffffffffffffffffffffffffffffff1673ffffffffffffffffffffffffffffffffffffffff16815260200190815260200160002060009054906101000a900460ff16611a5957600080fd5b600160008273ffffffffffffffffffffffffffffffffffffffff1673ffffffffffffffffffffffffffffffffffffffff16815260200190815260200160002060009054906101000a900460ff16611aaf57600080fd5b600460008273ffffffffffffffffffffffffffffffffffffffff1673ffffffffffffffffffffffffffffffffffffffff16815260200190815260200160002060003373ffffffffffffffffffffffffffffffffffffffff1673ffffffffffffffffffffffffffffffffffffffff16815260200190815260200160002060009054906101000a900460ff16611d1c576001600460008373ffffffffffffffffffffffffffffffffffffffff1673ffffffffffffffffffffffffffffffffffffffff16815260200190815260200160002060003373ffffffffffffffffffffffffffffffffffffffff1673ffffffffffffffffffffffffffffffffffffffff16815260200190815260200160002060006101000a81548160ff0219169083151502179055506001600560003373ffffffffffffffffffffffffffffffffffffffff1673ffffffffffffffffffffffffffffffffffffffff16815260200190815260200160002060008373ffffffffffffffffffffffffffffffffffffffff1673ffffffffffffffffffffffffffffffffffffffff16815260200190815260200160002060006101000a81548160ff0219169083151502179055506001600660008373ffffffffffffffffffffffffffffffffffffffff1673ffffffffffffffffffffffffffffffffffffffff1681526020019081526020016000206000016000828254611cba91906145ae565b925050819055506001600660003373ffffffffffffffffffffffffffffffffffffffff1673ffffffffffffffffffffffffffffffffffffffff1681526020019081526020016000206001016000828254611d1491906145ae565b925050819055505b50565b6007602052816000526040600020602052806000526040600020600091509150508060000154908060010160009054906101000a900473ffffffffffffffffffffffffffffffffffffffff1690806002018054611d7b90614633565b80601f0160208091040260200160405190810160405280929190818152602001828054611da790614633565b8015611df45780601f10611dc957610100808354040283529160200191611df4565b820191906000526020600020905b815481529060010190602001808311611dd757829003601f168201915b505050505090806003018054611e0990614633565b80601f0160208091040260200160405190810160405280929190818152602001828054611e3590614633565b8015611e825780601f10611e5757610100808354040283529160200191611e82565b820191906000526020600020905b815481529060010190602001808311611e6557829003601f168201915b505050505090806004018054611e9790614633565b80601f0160208091040260200160405190810160405280929190818152602001828054611ec390614633565b8015611f105780601f10611ee557610100808354040283529160200191611f10565b820191906000526020600020905b815481529060010190602001808311611ef357829003601f168201915b5050505050908060050154905086565b611f28613a0c565b600073ffffffffffffffffffffffffffffffffffffffff163373ffffffffffffffffffffffffffffffffffffffff1603611f6157600080fd5b600160008373ffffffffffffffffffffffffffffffffffffffff1673ffffffffffffffffffffffffffffffffffffffff16815260200190815260200160002060009054906101000a900460ff16611fb757600080fd5b6000808373ffffffffffffffffffffffffffffffffffffffff1673ffffffffffffffffffffffffffffffffffffffff1681526020019081526020016000206040518060800160405290816000820160009054906101000a900473ffffffffffffffffffffffffffffffffffffffff1673ffffffffffffffffffffffffffffffffffffffff1673ffffffffffffffffffffffffffffffffffffffff16815260200160018201805461206690614633565b80601f016020809104026020016040519081016040528092919081815260200182805461209290614633565b80156120df5780601f106120b4576101008083540402835291602001916120df565b820191906000526020600020905b8154815290600101906020018083116120c257829003601f168201915b505050505081526020016002820180546120f890614633565b80601f016020809104026020016040519081016040528092919081815260200182805461212490614633565b80156121715780601f1061214657610100808354040283529160200191612171565b820191906000526020600020905b81548152906001019060200180831161215457829003601f168201915b5050505050815260200160038201805461218a90614633565b80601f01602080910402602001604051908101604052809291908181526020018280546121b690614633565b80156122035780601f106121d857610100808354040283529160200191612203565b820191906000526020600020905b8154815290600101906020018083116121e657829003601f168201915b5050505050815250509050919050565b600b602052816000526040600020818154811061222f57600080fd5b90600052602060002001600091509150505481565b6060600073ffffffffffffffffffffffffffffffffffffffff168273ffffffffffffffffffffffffffffffffffffffff160361227f57600080fd5b600160008373ffffffffffffffffffffffffffffffffffffffff1673ffffffffffffffffffffffffffffffffffffffff16815260200190815260200160002060009054906101000a900460ff166122d557600080fd5b600960008373ffffffffffffffffffffffffffffffffffffffff1673ffffffffffffffffffffffffffffffffffffffff16815260200190815260200160002060003373ffffffffffffffffffffffffffffffffffffffff1673ffffffffffffffffffffffffffffffffffffffff16815260200190815260200160002060009054906101000a900460ff1661236857600080fd5b6000600c60008473ffffffffffffffffffffffffffffffffffffffff1673ffffffffffffffffffffffffffffffffffffffff1681526020019081526020016000208054806020026020016040519081016040528092919081815260200182805480156123f357602002820191906000526020600020905b8154815260200190600101908083116123df575b505050505090506000815167ffffffffffffffff811115612417576124166141ff565b5b60405190808252806020026020018201604052801561245057816020015b61243d6139c0565b8152602001906001900390816124355790505b50905060005b825181101561272557600860008673ffffffffffffffffffffffffffffffffffffffff1673ffffffffffffffffffffffffffffffffffffffff16815260200190815260200160002060008483815181106124b3576124b2614537565b5b602002602001015181526020019081526020016000206040518060c0016040529081600082015481526020016001820160009054906101000a900473ffffffffffffffffffffffffffffffffffffffff1673ffffffffffffffffffffffffffffffffffffffff1673ffffffffffffffffffffffffffffffffffffffff16815260200160028201805461254490614633565b80601f016020809104026020016040519081016040528092919081815260200182805461257090614633565b80156125bd5780601f10612592576101008083540402835291602001916125bd565b820191906000526020600020905b8154815290600101906020018083116125a057829003601f168201915b505050505081526020016003820180546125d690614633565b80601f016020809104026020016040519081016040528092919081815260200182805461260290614633565b801561264f5780601f106126245761010080835404028352916020019161264f565b820191906000526020600020905b81548152906001019060200180831161263257829003601f168201915b5050505050815260200160048201805461266890614633565b80601f016020809104026020016040519081016040528092919081815260200182805461269490614633565b80156126e15780601f106126b6576101008083540402835291602001916126e1565b820191906000526020600020905b8154815290600101906020018083116126c457829003601f168201915b5050505050815260200160058201548152505082828151811061270757612706614537565b5b6020026020010181905250808061271d90614566565b915050612456565b508092505050919050565b600073ffffffffffffffffffffffffffffffffffffffff163373ffffffffffffffffffffffffffffffffffffffff160361276957600080fd5b600160003373ffffffffffffffffffffffffffffffffffffffff1673ffffffffffffffffffffffffffffffffffffffff16815260200190815260200160002060009054906101000a900460ff166127bf57600080fd5b600160008273ffffffffffffffffffffffffffffffffffffffff1673ffffffffffffffffffffffffffffffffffffffff16815260200190815260200160002060009054906101000a900460ff1661281557600080fd5b8073ffffffffffffffffffffffffffffffffffffffff166108fc349081150290604051600060405180830381858888f1935050505015801561285b573d6000803e3d6000fd5b506001600960008373ffffffffffffffffffffffffffffffffffffffff1673ffffffffffffffffffffffffffffffffffffffff16815260200190815260200160002060003373ffffffffffffffffffffffffffffffffffffffff1673ffffffffffffffffffffffffffffffffffffffff16815260200190815260200160002060006101000a81548160ff02191690831515021790555050565b60035481565b60006020528060005260406000206000915090508060000160009054906101000a900473ffffffffffffffffffffffffffffffffffffffff169080600101805461294390614633565b80601f016020809104026020016040519081016040528092919081815260200182805461296f90614633565b80156129bc5780601f10612991576101008083540402835291602001916129bc565b820191906000526020600020905b81548152906001019060200180831161299f57829003601f168201915b5050505050908060020180546129d190614633565b80601f01602080910402602001604051908101604052809291908181526020018280546129fd90614633565b8015612a4a5780601f10612a1f57610100808354040283529160200191612a4a565b820191906000526020600020905b815481529060010190602001808311612a2d57829003601f168201915b505050505090806003018054612a5f90614633565b80601f0160208091040260200160405190810160405280929190818152602001828054612a8b90614633565b8015612ad85780601f10612aad57610100808354040283529160200191612ad8565b820191906000526020600020905b815481529060010190602001808311612abb57829003601f168201915b5050505050905084565b60046020528160005260406000206020528060005260406000206000915091509054906101000a900460ff1681565b60066020528060005260406000206000915090508060000154908060010154905082565b600a6020528060005260406000206000915090505481565b600073ffffffffffffffffffffffffffffffffffffffff163373ffffffffffffffffffffffffffffffffffffffff1603612b8657600080fd5b600160003373ffffffffffffffffffffffffffffffffffffffff1673ffffffffffffffffffffffffffffffffffffffff16815260200190815260200160002060009054906101000a900460ff16612bdc57600080fd5b600060405180608001604052803373ffffffffffffffffffffffffffffffffffffffff168152602001868152602001858152602001848152509050806000803373ffffffffffffffffffffffffffffffffffffffff1673ffffffffffffffffffffffffffffffffffffffff16815260200190815260200160002060008201518160000160006101000a81548173ffffffffffffffffffffffffffffffffffffffff021916908373ffffffffffffffffffffffffffffffffffffffff1602179055506020820151816001019080519060200190612cb9929190613a4a565b506040820151816002019080519060200190612cd6929190613a4a565b506060820151816003019080519060200190612cf3929190613a4a565b5090505060008214612d445781600a60003373ffffffffffffffffffffffffffffffffffffffff1673ffffffffffffffffffffffffffffffffffffffff168152602001908152602001600020819055505b7f891043d2e94b4aef9153ad13cfd5726c8d60b0f025da0a8fd7160d875808192a858585604051612d7793929190614664565b60405180910390a15050505050565b60028181548110612d9657600080fd5b906000526020600020016000915054906101000a900473ffffffffffffffffffffffffffffffffffffffff1681565b60056020528160005260406000206020528060005260406000206000915091509054906101000a900460ff1681565b600073ffffffffffffffffffffffffffffffffffffffff163373ffffffffffffffffffffffffffffffffffffffff1603612e2d57600080fd5b600160003373ffffffffffffffffffffffffffffffffffffffff1673ffffffffffffffffffffffffffffffffffffffff16815260200190815260200160002060009054906101000a900460ff16612e8357600080fd5b60006040518060c001604052808381526020013373ffffffffffffffffffffffffffffffffffffffff168152602001858152602001868152602001848152602001600760003373ffffffffffffffffffffffffffffffffffffffff1673ffffffffffffffffffffffffffffffffffffffff168152602001908152602001600020600085815260200190815260200160002060050154815250905080600760003373ffffffffffffffffffffffffffffffffffffffff1673ffffffffffffffffffffffffffffffffffffffff16815260200190815260200160002060008481526020019081526020016000206000820151816000015560208201518160010160006101000a81548173ffffffffffffffffffffffffffffffffffffffff021916908373ffffffffffffffffffffffffffffffffffffffff1602179055506040820151816002019080519060200190612fdb929190613a4a565b506060820151816003019080519060200190612ff8929190613a4a565b506080820151816004019080519060200190613015929190613a4a565b5060a082015181600501559050507f36d65d457c0bad214885511e167a23c9aa1587088d9d1af45f5dc9fe01cf99ba84826060015183608001518460a0015160405161306494939291906146b0565b60405180910390a15050505050565b600073ffffffffffffffffffffffffffffffffffffffff163373ffffffffffffffffffffffffffffffffffffffff16036130ac57600080fd5b600160003373ffffffffffffffffffffffffffffffffffffffff1673ffffffffffffffffffffffffffffffffffffffff16815260200190815260200160002060009054906101000a900460ff1661310257600080fd5b60006040518060c0016040528060035481526020013373ffffffffffffffffffffffffffffffffffffffff1681526020018481526020018581526020018381526020016000815250905080600860003373ffffffffffffffffffffffffffffffffffffffff1673ffffffffffffffffffffffffffffffffffffffff168152602001908152602001600020600060035481526020019081526020016000206000820151816000015560208201518160010160006101000a81548173ffffffffffffffffffffffffffffffffffffffff021916908373ffffffffffffffffffffffffffffffffffffffff160217905550604082015181600201908051906020019061320c929190613a4a565b506060820151816003019080519060200190613229929190613a4a565b506080820151816004019080519060200190613246929190613a4a565b5060a08201518160050155905050600c60003373ffffffffffffffffffffffffffffffffffffffff1673ffffffffffffffffffffffffffffffffffffffff1681526020019081526020016000206003549080600181540180825580915050600190039060005260206000200160009091909190915055600360008154809291906132cf90614566565b91905055507f36d65d457c0bad214885511e167a23c9aa1587088d9d1af45f5dc9fe01cf99ba83826060015183608001518460a0015160405161331594939291906146b0565b60405180910390a150505050565b600073ffffffffffffffffffffffffffffffffffffffff163373ffffffffffffffffffffffffffffffffffffffff160361335c57600080fd5b600160003373ffffffffffffffffffffffffffffffffffffffff1673ffffffffffffffffffffffffffffffffffffffff16815260200190815260200160002060009054906101000a900460ff16156133b357600080fd5b600060405180608001604052803373ffffffffffffffffffffffffffffffffffffffff1681526020018681526020018581526020018481525090506001600960003373ffffffffffffffffffffffffffffffffffffffff1673ffffffffffffffffffffffffffffffffffffffff16815260200190815260200160002060003373ffffffffffffffffffffffffffffffffffffffff1673ffffffffffffffffffffffffffffffffffffffff16815260200190815260200160002060006101000a81548160ff021916908315150217905550806000803373ffffffffffffffffffffffffffffffffffffffff1673ffffffffffffffffffffffffffffffffffffffff16815260200190815260200160002060008201518160000160006101000a81548173ffffffffffffffffffffffffffffffffffffffff021916908373ffffffffffffffffffffffffffffffffffffffff1602179055506020820151816001019080519060200190613525929190613a4a565b506040820151816002019080519060200190613542929190613a4a565b50606082015181600301908051906020019061355f929190613a4a565b509050506002339080600181540180825580915050600190039060005260206000200160009091909190916101000a81548173ffffffffffffffffffffffffffffffffffffffff021916908373ffffffffffffffffffffffffffffffffffffffff16021790555060018060003373ffffffffffffffffffffffffffffffffffffffff1673ffffffffffffffffffffffffffffffffffffffff16815260200190815260200160002060006101000a81548160ff0219169083151502179055506040518060400160405280600081526020016000815250600660003373ffffffffffffffffffffffffffffffffffffffff1673ffffffffffffffffffffffffffffffffffffffff168152602001908152602001600020600082015181600001556020820151816001015590505081600a60003373ffffffffffffffffffffffffffffffffffffffff1673ffffffffffffffffffffffffffffffffffffffff168152602001908152602001600020819055507f891043d2e94b4aef9153ad13cfd5726c8d60b0f025da0a8fd7160d875808192a85858560405161370193929190614664565b60405180910390a15050505050565b600073ffffffffffffffffffffffffffffffffffffffff163373ffffffffffffffffffffffffffffffffffffffff160361374957600080fd5b600160003373ffffffffffffffffffffffffffffffffffffffff1673ffffffffffffffffffffffffffffffffffffffff16815260200190815260200160002060009054906101000a900460ff1661379f57600080fd5b60006040518060c0016040528060035481526020013373ffffffffffffffffffffffffffffffffffffffff1681526020018481526020018581526020018381526020016000815250905080600760003373ffffffffffffffffffffffffffffffffffffffff1673ffffffffffffffffffffffffffffffffffffffff168152602001908152602001600020600060035481526020019081526020016000206000820151816000015560208201518160010160006101000a81548173ffffffffffffffffffffffffffffffffffffffff021916908373ffffffffffffffffffffffffffffffffffffffff16021790555060408201518160020190805190602001906138a9929190613a4a565b5060608201518160030190805190602001906138c6929190613a4a565b5060808201518160040190805190602001906138e3929190613a4a565b5060a08201518160050155905050600b60003373ffffffffffffffffffffffffffffffffffffffff1673ffffffffffffffffffffffffffffffffffffffff16815260200190815260200160002060035490806001815401808255809150506001900390600052602060002001600090919091909150556003600081548092919061396c90614566565b91905055507f36d65d457c0bad214885511e167a23c9aa1587088d9d1af45f5dc9fe01cf99ba83826060015183608001518460a001516040516139b294939291906146b0565b60405180910390a150505050565b6040518060c0016040528060008152602001600073ffffffffffffffffffffffffffffffffffffffff168152602001606081526020016060815260200160608152602001600081525090565b6040518060800160405280600073ffffffffffffffffffffffffffffffffffffffff1681526020016060815260200160608152602001606081525090565b828054613a5690614633565b90600052602060002090601f016020900481019282613a785760008555613abf565b82601f10613a9157805160ff1916838001178555613abf565b82800160010185558215613abf579182015b82811115613abe578251825591602001919060010190613aa3565b5b509050613acc9190613ad0565b5090565b5b80821115613ae9576000816000905550600101613ad1565b5090565b600081519050919050565b600082825260208201905092915050565b6000819050602082019050919050565b600073ffffffffffffffffffffffffffffffffffffffff82169050919050565b6000613b4482613b19565b9050919050565b613b5481613b39565b82525050565b6000613b668383613b4b565b60208301905092915050565b6000602082019050919050565b6000613b8a82613aed565b613b948185613af8565b9350613b9f83613b09565b8060005b83811015613bd0578151613bb78882613b5a565b9750613bc283613b72565b925050600181019050613ba3565b5085935050505092915050565b60006020820190508181036000830152613bf78184613b7f565b905092915050565b6000604051905090565b600080fd5b600080fd5b613c1c81613b39565b8114613c2757600080fd5b50565b600081359050613c3981613c13565b92915050565b600060208284031215613c5557613c54613c09565b5b6000613c6384828501613c2a565b91505092915050565b600081519050919050565b600082825260208201905092915050565b6000819050602082019050919050565b6000819050919050565b613cab81613c98565b82525050565b600081519050919050565b600082825260208201905092915050565b60005b83811015613ceb578082015181840152602081019050613cd0565b83811115613cfa576000848401525b50505050565b6000601f19601f8301169050919050565b6000613d1c82613cb1565b613d268185613cbc565b9350613d36818560208601613ccd565b613d3f81613d00565b840191505092915050565b600060c083016000830151613d626000860182613ca2565b506020830151613d756020860182613b4b565b5060408301518482036040860152613d8d8282613d11565b91505060608301518482036060860152613da78282613d11565b91505060808301518482036080860152613dc18282613d11565b91505060a0830151613dd660a0860182613ca2565b508091505092915050565b6000613ded8383613d4a565b905092915050565b6000602082019050919050565b6000613e0d82613c6c565b613e178185613c77565b935083602082028501613e2985613c88565b8060005b85811015613e655784840389528151613e468582613de1565b9450613e5183613df5565b925060208a01995050600181019050613e2d565b50829750879550505050505092915050565b60006020820190508181036000830152613e918184613e02565b905092915050565b60008115159050919050565b613eae81613e99565b82525050565b6000602082019050613ec96000830184613ea5565b92915050565b613ed881613c98565b8114613ee357600080fd5b50565b600081359050613ef581613ecf565b92915050565b60008060408385031215613f1257613f11613c09565b5b6000613f2085828601613c2a565b9250506020613f3185828601613ee6565b9150509250929050565b613f4481613c98565b82525050565b613f5381613b39565b82525050565b600082825260208201905092915050565b6000613f7582613cb1565b613f7f8185613f59565b9350613f8f818560208601613ccd565b613f9881613d00565b840191505092915050565b600060c082019050613fb86000830189613f3b565b613fc56020830188613f4a565b8181036040830152613fd78187613f6a565b90508181036060830152613feb8186613f6a565b90508181036080830152613fff8185613f6a565b905061400e60a0830184613f3b565b979650505050505050565b60006080830160008301516140316000860182613b4b565b50602083015184820360208601526140498282613d11565b915050604083015184820360408601526140638282613d11565b9150506060830151848203606086015261407d8282613d11565b9150508091505092915050565b600060208201905081810360008301526140a48184614019565b905092915050565b60006020820190506140c16000830184613f3b565b92915050565b60006140d282613b19565b9050919050565b6140e2816140c7565b81146140ed57600080fd5b50565b6000813590506140ff816140d9565b92915050565b60006020828403121561411b5761411a613c09565b5b6000614129848285016140f0565b91505092915050565b60006080820190506141476000830187613f4a565b81810360208301526141598186613f6a565b9050818103604083015261416d8185613f6a565b905081810360608301526141818184613f6a565b905095945050505050565b600080604083850312156141a3576141a2613c09565b5b60006141b185828601613c2a565b92505060206141c285828601613c2a565b9150509250929050565b60006040820190506141e16000830185613f3b565b6141ee6020830184613f3b565b9392505050565b600080fd5b600080fd5b7f4e487b7100000000000000000000000000000000000000000000000000000000600052604160045260246000fd5b61423782613d00565b810181811067ffffffffffffffff82111715614256576142556141ff565b5b80604052505050565b6000614269613bff565b9050614275828261422e565b919050565b600067ffffffffffffffff821115614295576142946141ff565b5b61429e82613d00565b9050602081019050919050565b82818337600083830152505050565b60006142cd6142c88461427a565b61425f565b9050828152602081018484840111156142e9576142e86141fa565b5b6142f48482856142ab565b509392505050565b600082601f830112614311576143106141f5565b5b81356143218482602086016142ba565b91505092915050565b6000806000806080858703121561434457614343613c09565b5b600085013567ffffffffffffffff81111561436257614361613c0e565b5b61436e878288016142fc565b945050602085013567ffffffffffffffff81111561438f5761438e613c0e565b5b61439b878288016142fc565b935050604085013567ffffffffffffffff8111156143bc576143bb613c0e565b5b6143c8878288016142fc565b92505060606143d987828801613ee6565b91505092959194509250565b6000602082840312156143fb576143fa613c09565b5b600061440984828501613ee6565b91505092915050565b60006020820190506144276000830184613f4a565b92915050565b60008060006060848603121561444657614445613c09565b5b600084013567ffffffffffffffff81111561446457614463613c0e565b5b614470868287016142fc565b935050602084013567ffffffffffffffff81111561449157614490613c0e565b5b61449d868287016142fc565b925050604084013567ffffffffffffffff8111156144be576144bd613c0e565b5b6144ca868287016142fc565b9150509250925092565b7f4e487b7100000000000000000000000000000000000000000000000000000000600052601160045260246000fd5b600061450e82613c98565b915061451983613c98565b92508282101561452c5761452b6144d4565b5b828203905092915050565b7f4e487b7100000000000000000000000000000000000000000000000000000000600052603260045260246000fd5b600061457182613c98565b91507fffffffffffffffffffffffffffffffffffffffffffffffffffffffffffffffff82036145a3576145a26144d4565b5b600182019050919050565b60006145b982613c98565b91506145c483613c98565b9250827fffffffffffffffffffffffffffffffffffffffffffffffffffffffffffffffff038211156145f9576145f86144d4565b5b828201905092915050565b7f4e487b7100000000000000000000000000000000000000000000000000000000600052602260045260246000fd5b6000600282049050600182168061464b57607f821691505b60208210810361465e5761465d614604565b5b50919050565b6000606082019050818103600083015261467e8186613f6a565b905081810360208301526146928185613f6a565b905081810360408301526146a68184613f6a565b9050949350505050565b600060808201905081810360008301526146ca8187613f6a565b905081810360208301526146de8186613f6a565b905081810360408301526146f28185613f6a565b90506147016060830184613f3b565b9594505050505056fea26469706673582212207c1985ead713a5cb4970448a82e1df30b2151c72ac952868adcbcb6b640031a564736f6c634300080d0033",
  "immutableReferences": {},
  "source": "// SPDX-License-Identifier: GPL-3.0\n\n// pragma solidity >=0.5.0;\npragma solidity >=0.4.22 <0.9.0;\npragma experimental ABIEncoderV2;\n\n/**\n * @title User\n * @dev Implements decentralised content creation on Blockchain\n */\ncontract DContent {\n\tstruct User {\n\t\taddress addr;\n\t\tstring name;\n\t\tstring photo;\n\t\tstring bio;\n\t}\n\n\tstruct Post_data {\n\t\tuint256 id;\n\t\taddress owner;\n\t\tstring hash;\n\t\tstring title;\n\t\tstring caption;\n\t\tuint256 likes;\n\t}\n\n\tstruct Network {\n\t\tuint256 num_followers;\n\t\tuint256 num_following;\n\t}\n\n\t// Profile\n\tmapping(address => User) public users;\n\tmapping(address => bool) public isUser;\n\taddress[] public user_id;\n\tuint256 public post_counter = 0;\n\n\t// Network\n\tmapping(address => mapping(address => bool)) public followers;\n\tmapping(address => mapping(address => bool)) public following;\n\tmapping(address => Network) public networks;\n\n\tmapping(address => mapping(uint256 => Post_data)) public posts;\n\tmapping(address => mapping(uint256 => Post_data)) internal private_posts;\n\tmapping(address => mapping(address => bool)) internal subscribed;\n\tmapping(address => uint256) public amount;\n\n\tmapping(address => uint256[]) public post_id;\n\tmapping(address => uint256[]) internal private_id;\n\n\tevent UserUpdated(string name, string photo, string bio);\n\n\tevent PostUpdated(string hash, string title, string caption, uint256 likes);\n\n\tfunction createUser(\n\t\tstring memory _name,\n\t\tstring memory photo,\n\t\tstring memory bio,\n\t\tuint256 _amount\n\t) public {\n\t\trequire(msg.sender != address(0));\n\t\trequire(!isUser[msg.sender]);\n\t\tUser memory user = User(msg.sender, _name, photo, bio);\n\t\tsubscribed[msg.sender][msg.sender] = true;\n\t\tusers[msg.sender] = user;\n\t\tuser_id.push(msg.sender);\n\t\tisUser[msg.sender] = true;\n\t\tnetworks[msg.sender] = Network(0, 0);\n\t\tamount[msg.sender] = _amount;\n\t\temit UserUpdated(_name, photo, bio);\n\t}\n\n\tfunction getUsers() public view returns (address[] memory) {\n\t\trequire(msg.sender != address(0));\n\t\t// if (user_id.length == 0) return new User[](0);\n\t\t// User[] memory data = new User[](user_id.length);\n\t\t// for (uint256 i = 0; i < user_id.length; i++) {\n\t\t// \tdata[i] = users[user_id[i]];\n\t\t// }\n\t\treturn user_id;\n\t}\n\n\tfunction getUser(address user) public view returns (User memory) {\n\t\trequire(msg.sender != address(0));\n\t\trequire(isUser[user]);\n\t\treturn users[user];\n\t}\n\n\tfunction updateUser(\n\t\tstring memory _name,\n\t\tstring memory photo,\n\t\tstring memory bio,\n\t\tuint256 _amount\n\t) public {\n\t\trequire(msg.sender != address(0));\n\t\trequire(isUser[msg.sender]);\n\t\tUser memory user = User(msg.sender, _name, photo, bio);\n\t\tusers[msg.sender] = user;\n\t\tif (_amount != 0) {\n\t\t\tamount[msg.sender] = _amount;\n\t\t}\n\t\temit UserUpdated(_name, photo, bio);\n\t}\n\n\tfunction follow(address user) public {\n\t\trequire(msg.sender != address(0));\n\t\trequire(user != address(0));\n\t\trequire(isUser[msg.sender]);\n\t\trequire(isUser[user]);\n\t\tif (!followers[user][msg.sender]) {\n\t\t\tfollowers[user][msg.sender] = true;\n\t\t\tfollowing[msg.sender][user] = true;\n\t\t\tnetworks[user].num_followers += 1;\n\t\t\tnetworks[msg.sender].num_following += 1;\n\t\t}\n\t}\n\n\tfunction unfollow(address user) public {\n\t\trequire(msg.sender != address(0));\n\t\trequire(user != address(0));\n\t\trequire(isUser[msg.sender]);\n\t\trequire(isUser[user]);\n\t\tif (followers[user][msg.sender]) {\n\t\t\tfollowers[user][msg.sender] = false;\n\t\t\tfollowing[msg.sender][user] = false;\n\t\t\tnetworks[user].num_followers -= 1;\n\t\t\tnetworks[msg.sender].num_following -= 1;\n\t\t}\n\t}\n\n\tfunction createPost(\n\t\tstring memory title,\n\t\tstring memory hash,\n\t\tstring memory caption\n\t) public {\n\t\trequire(msg.sender != address(0));\n\t\trequire(isUser[msg.sender]);\n\t\tPost_data memory post = Post_data(\n\t\t\tpost_counter,\n\t\t\tmsg.sender,\n\t\t\thash,\n\t\t\ttitle,\n\t\t\tcaption,\n\t\t\t0\n\t\t);\n\t\tposts[msg.sender][post_counter] = post;\n\t\tpost_id[msg.sender].push(post_counter);\n\t\tpost_counter++;\n\t\temit PostUpdated(hash, post.title, post.caption, post.likes);\n\t}\n\n\tfunction createPrivatePost(\n\t\tstring memory title,\n\t\tstring memory hash,\n\t\tstring memory caption\n\t) public {\n\t\trequire(msg.sender != address(0));\n\t\trequire(isUser[msg.sender]);\n\t\tPost_data memory post = Post_data(\n\t\t\tpost_counter,\n\t\t\tmsg.sender,\n\t\t\thash,\n\t\t\ttitle,\n\t\t\tcaption,\n\t\t\t0\n\t\t);\n\t\tprivate_posts[msg.sender][post_counter] = post;\n\t\tprivate_id[msg.sender].push(post_counter);\n\t\tpost_counter++;\n\t\temit PostUpdated(hash, post.title, post.caption, post.likes);\n\t}\n\n\t// function sendBal(address payable receiver) external payable onlyOwner {\n\t// \tuint256 amount = msg.value;\n\t// \treceiver.transfer(amount);\n\t// }\n\n\tfunction subscribedUser(address payable receiver) external payable {\n\t\trequire(msg.sender != address(0));\n\t\trequire(isUser[msg.sender]);\n\t\trequire(isUser[receiver]);\n\n\t\treceiver.transfer(msg.value);\n\n\t\t// do money trantions\n\t\tsubscribed[receiver][msg.sender] = true;\n\t}\n\n\tfunction updatePost(\n\t\tstring memory title,\n\t\tstring memory hash,\n\t\tstring memory caption,\n\t\tuint256 id\n\t) public {\n\t\trequire(msg.sender != address(0));\n\t\trequire(isUser[msg.sender]);\n\t\tPost_data memory post = Post_data(\n\t\t\tid,\n\t\t\tmsg.sender,\n\t\t\thash,\n\t\t\ttitle,\n\t\t\tcaption,\n\t\t\tposts[msg.sender][id].likes\n\t\t);\n\t\tposts[msg.sender][id] = post;\n\t\temit PostUpdated(hash, post.title, post.caption, post.likes);\n\t}\n\n\tfunction getMySubscriptions() public view returns (address[] memory) {\n\t\trequire(msg.sender != address(0));\n\t\trequire(isUser[msg.sender]);\n\n\t\tuint256 count = 0;\n\t\tfor (uint256 i = 0; i < user_id.length; i++) {\n\t\t\tif (subscribed[user_id[i]][msg.sender]) {\n\t\t\t\tcount++;\n\t\t\t}\n\t\t}\n\n\t\taddress[] memory user = new address[](count);\n\t\tcount = 0;\n\t\tfor (uint256 i = 0; i < user_id.length; i++) {\n\t\t\tif (subscribed[user_id[i]][msg.sender]) {\n\t\t\t\tuser[count] = user_id[i];\n\t\t\t\tcount++;\n\t\t\t}\n\t\t}\n\t\treturn user;\n\t}\n\n\tfunction getPosts() public view returns (Post_data[] memory) {\n\t\trequire(msg.sender != address(0));\n\t\trequire(isUser[msg.sender]);\n\t\tuint256[] memory ids = post_id[msg.sender];\n\t\tPost_data[] memory retrieval = new Post_data[](ids.length);\n\t\tfor (uint256 i = 0; i < ids.length; i++) {\n\t\t\tretrieval[i] = posts[msg.sender][ids[i]];\n\t\t}\n\t\treturn retrieval;\n\t}\n\n\tfunction getPosts(address user) public view returns (Post_data[] memory) {\n\t\trequire(user != address(0));\n\t\trequire(isUser[user]);\n\t\tuint256[] memory ids = post_id[user];\n\t\tPost_data[] memory retrieval = new Post_data[](ids.length);\n\t\tfor (uint256 i = 0; i < ids.length; i++) {\n\t\t\tretrieval[i] = posts[user][ids[i]];\n\t\t}\n\t\treturn retrieval;\n\t}\n\n\tfunction getPrivatePosts(address user)\n\t\tpublic\n\t\tview\n\t\treturns (Post_data[] memory)\n\t{\n\t\trequire(user != address(0));\n\t\trequire(isUser[user]);\n\t\trequire(subscribed[user][msg.sender]);\n\n\t\tuint256[] memory ids = private_id[user];\n\t\tPost_data[] memory retrieval = new Post_data[](ids.length);\n\t\tfor (uint256 i = 0; i < ids.length; i++) {\n\t\t\tretrieval[i] = private_posts[user][ids[i]];\n\t\t}\n\t\treturn retrieval;\n\t}\n\n\tfunction getAllPosts() public view returns (Post_data[] memory) {\n\t\trequire(msg.sender != address(0));\n\t\tif (user_id.length == 0) return new Post_data[](0);\n\t\tPost_data[] memory all_posts = getPosts(user_id[0]);\n\t\tfor (uint256 i = 1; i < user_id.length; i++) {\n\t\t\tPost_data[] memory user_id_posts = getPosts(user_id[i]);\n\t\t\tPost_data[] memory temp = new Post_data[](\n\t\t\t\tall_posts.length + user_id_posts.length\n\t\t\t);\n\t\t\tfor (uint256 j = 0; j < all_posts.length; j++) {\n\t\t\t\ttemp[j] = all_posts[j];\n\t\t\t}\n\t\t\tfor (uint256 j = 0; j < user_id_posts.length; j++) {\n\t\t\t\ttemp[all_posts.length + j] = user_id_posts[j];\n\t\t\t}\n\t\t\tall_posts = temp;\n\t\t}\n\n\t\treturn all_posts;\n\t}\n}\n",
  "sourcePath": "/home/vatsal/Web-Development/DContent/src/contracts/DContent.sol",
  "compiler": {
    "name": "solc",
    "version": "0.8.13+commit.abaa5c0e.Emscripten.clang"
  },
  "schemaVersion": "3.4.7",
  "updatedAt": "2022-04-24T06:09:20.888Z",
  "devdoc": {
    "details": "Implements decentralised content creation on Blockchain",
    "kind": "dev",
    "methods": {},
    "title": "User",
    "version": 1
  },
  "userdoc": {
    "kind": "user",
    "methods": {},
    "version": 1
  }
}