{
  "contractName": "DContent",
  "abi": [
    {
      "anonymous": false,
      "inputs": [
        {
          "indexed": false,
          "internalType": "string",
          "name": "hash",
          "type": "string"
        },
        {
          "indexed": false,
          "internalType": "string",
          "name": "title",
          "type": "string"
        },
        {
          "indexed": false,
          "internalType": "string",
          "name": "caption",
          "type": "string"
        },
        {
          "indexed": false,
          "internalType": "uint256",
          "name": "likes",
          "type": "uint256"
        }
      ],
      "name": "PostUpdated",
      "type": "event"
    },
    {
      "anonymous": false,
      "inputs": [
        {
          "indexed": false,
          "internalType": "string",
          "name": "name",
          "type": "string"
        },
        {
          "indexed": false,
          "internalType": "string",
          "name": "photo",
          "type": "string"
        },
        {
          "indexed": false,
          "internalType": "string",
          "name": "bio",
          "type": "string"
        }
      ],
      "name": "UserUpdated",
      "type": "event"
    },
    {
      "inputs": [
        {
          "internalType": "address",
          "name": "",
          "type": "address"
        }
      ],
      "name": "amount",
      "outputs": [
        {
          "internalType": "uint256",
          "name": "",
          "type": "uint256"
        }
      ],
      "stateMutability": "view",
      "type": "function"
    },
    {
      "inputs": [
        {
          "internalType": "address",
          "name": "",
          "type": "address"
        },
        {
          "internalType": "address",
          "name": "",
          "type": "address"
        }
      ],
      "name": "followers",
      "outputs": [
        {
          "internalType": "bool",
          "name": "",
          "type": "bool"
        }
      ],
      "stateMutability": "view",
      "type": "function"
    },
    {
      "inputs": [
        {
          "internalType": "address",
          "name": "",
          "type": "address"
        },
        {
          "internalType": "address",
          "name": "",
          "type": "address"
        }
      ],
      "name": "following",
      "outputs": [
        {
          "internalType": "bool",
          "name": "",
          "type": "bool"
        }
      ],
      "stateMutability": "view",
      "type": "function"
    },
    {
      "inputs": [
        {
          "internalType": "address",
          "name": "",
          "type": "address"
        }
      ],
      "name": "isUser",
      "outputs": [
        {
          "internalType": "bool",
          "name": "",
          "type": "bool"
        }
      ],
      "stateMutability": "view",
      "type": "function"
    },
    {
      "inputs": [
        {
          "internalType": "address",
          "name": "",
          "type": "address"
        }
      ],
      "name": "networks",
      "outputs": [
        {
          "internalType": "uint256",
          "name": "num_followers",
          "type": "uint256"
        },
        {
          "internalType": "uint256",
          "name": "num_following",
          "type": "uint256"
        }
      ],
      "stateMutability": "view",
      "type": "function"
    },
    {
      "inputs": [],
      "name": "post_counter",
      "outputs": [
        {
          "internalType": "uint256",
          "name": "",
          "type": "uint256"
        }
      ],
      "stateMutability": "view",
      "type": "function"
    },
    {
      "inputs": [
        {
          "internalType": "address",
          "name": "",
          "type": "address"
        },
        {
          "internalType": "uint256",
          "name": "",
          "type": "uint256"
        }
      ],
      "name": "post_id",
      "outputs": [
        {
          "internalType": "uint256",
          "name": "",
          "type": "uint256"
        }
      ],
      "stateMutability": "view",
      "type": "function"
    },
    {
      "inputs": [
        {
          "internalType": "address",
          "name": "",
          "type": "address"
        },
        {
          "internalType": "uint256",
          "name": "",
          "type": "uint256"
        }
      ],
      "name": "posts",
      "outputs": [
        {
          "internalType": "uint256",
          "name": "id",
          "type": "uint256"
        },
        {
          "internalType": "address",
          "name": "owner",
          "type": "address"
        },
        {
          "internalType": "string",
          "name": "hash",
          "type": "string"
        },
        {
          "internalType": "string",
          "name": "title",
          "type": "string"
        },
        {
          "internalType": "string",
          "name": "caption",
          "type": "string"
        },
        {
          "internalType": "uint256",
          "name": "likes",
          "type": "uint256"
        }
      ],
      "stateMutability": "view",
      "type": "function"
    },
    {
      "inputs": [
        {
          "internalType": "uint256",
          "name": "",
          "type": "uint256"
        }
      ],
      "name": "user_id",
      "outputs": [
        {
          "internalType": "address",
          "name": "",
          "type": "address"
        }
      ],
      "stateMutability": "view",
      "type": "function"
    },
    {
      "inputs": [
        {
          "internalType": "address",
          "name": "",
          "type": "address"
        }
      ],
      "name": "users",
      "outputs": [
        {
          "internalType": "address",
          "name": "addr",
          "type": "address"
        },
        {
          "internalType": "string",
          "name": "name",
          "type": "string"
        },
        {
          "internalType": "string",
          "name": "photo",
          "type": "string"
        },
        {
          "internalType": "string",
          "name": "bio",
          "type": "string"
        }
      ],
      "stateMutability": "view",
      "type": "function"
    },
    {
      "inputs": [
        {
          "internalType": "string",
          "name": "_name",
          "type": "string"
        },
        {
          "internalType": "string",
          "name": "photo",
          "type": "string"
        },
        {
          "internalType": "string",
          "name": "bio",
          "type": "string"
        },
        {
          "internalType": "uint256",
          "name": "_amount",
          "type": "uint256"
        }
      ],
      "name": "createUser",
      "outputs": [],
      "stateMutability": "nonpayable",
      "type": "function"
    },
    {
      "inputs": [],
      "name": "getUsers",
      "outputs": [
        {
          "internalType": "address[]",
          "name": "",
          "type": "address[]"
        }
      ],
      "stateMutability": "view",
      "type": "function"
    },
    {
      "inputs": [
        {
          "internalType": "address",
          "name": "user",
          "type": "address"
        }
      ],
      "name": "getUser",
      "outputs": [
        {
          "components": [
            {
              "internalType": "address",
              "name": "addr",
              "type": "address"
            },
            {
              "internalType": "string",
              "name": "name",
              "type": "string"
            },
            {
              "internalType": "string",
              "name": "photo",
              "type": "string"
            },
            {
              "internalType": "string",
              "name": "bio",
              "type": "string"
            }
          ],
          "internalType": "struct DContent.User",
          "name": "",
          "type": "tuple"
        }
      ],
      "stateMutability": "view",
      "type": "function"
    },
    {
      "inputs": [
        {
          "internalType": "address",
          "name": "user",
          "type": "address"
        }
      ],
      "name": "getAmount",
      "outputs": [
        {
          "internalType": "uint256",
          "name": "",
          "type": "uint256"
        }
      ],
      "stateMutability": "view",
      "type": "function"
    },
    {
      "inputs": [
        {
          "internalType": "string",
          "name": "_name",
          "type": "string"
        },
        {
          "internalType": "string",
          "name": "photo",
          "type": "string"
        },
        {
          "internalType": "string",
          "name": "bio",
          "type": "string"
        },
        {
          "internalType": "uint256",
          "name": "_amount",
          "type": "uint256"
        }
      ],
      "name": "updateUser",
      "outputs": [],
      "stateMutability": "nonpayable",
      "type": "function"
    },
    {
      "inputs": [
        {
          "internalType": "address",
          "name": "user",
          "type": "address"
        }
      ],
      "name": "follow",
      "outputs": [],
      "stateMutability": "nonpayable",
      "type": "function"
    },
    {
      "inputs": [
        {
          "internalType": "address",
          "name": "user",
          "type": "address"
        }
      ],
      "name": "unfollow",
      "outputs": [],
      "stateMutability": "nonpayable",
      "type": "function"
    },
    {
      "inputs": [
        {
          "internalType": "string",
          "name": "title",
          "type": "string"
        },
        {
          "internalType": "string",
          "name": "hash",
          "type": "string"
        },
        {
          "internalType": "string",
          "name": "caption",
          "type": "string"
        }
      ],
      "name": "createPost",
      "outputs": [],
      "stateMutability": "nonpayable",
      "type": "function"
    },
    {
      "inputs": [
        {
          "internalType": "string",
          "name": "title",
          "type": "string"
        },
        {
          "internalType": "string",
          "name": "hash",
          "type": "string"
        },
        {
          "internalType": "string",
          "name": "caption",
          "type": "string"
        }
      ],
      "name": "createPrivatePost",
      "outputs": [],
      "stateMutability": "nonpayable",
      "type": "function"
    },
    {
      "inputs": [
        {
          "internalType": "address payable",
          "name": "receiver",
          "type": "address"
        }
      ],
      "name": "subscribedUser",
      "outputs": [],
      "stateMutability": "payable",
      "type": "function"
    },
    {
      "inputs": [
        {
          "internalType": "string",
          "name": "title",
          "type": "string"
        },
        {
          "internalType": "string",
          "name": "hash",
          "type": "string"
        },
        {
          "internalType": "string",
          "name": "caption",
          "type": "string"
        },
        {
          "internalType": "uint256",
          "name": "id",
          "type": "uint256"
        }
      ],
      "name": "updatePost",
      "outputs": [],
      "stateMutability": "nonpayable",
      "type": "function"
    },
    {
      "inputs": [],
      "name": "getMySubscriptions",
      "outputs": [
        {
          "internalType": "address[]",
          "name": "",
          "type": "address[]"
        }
      ],
      "stateMutability": "view",
      "type": "function"
    },
    {
      "inputs": [],
      "name": "getPosts",
      "outputs": [
        {
          "components": [
            {
              "internalType": "uint256",
              "name": "id",
              "type": "uint256"
            },
            {
              "internalType": "address",
              "name": "owner",
              "type": "address"
            },
            {
              "internalType": "string",
              "name": "hash",
              "type": "string"
            },
            {
              "internalType": "string",
              "name": "title",
              "type": "string"
            },
            {
              "internalType": "string",
              "name": "caption",
              "type": "string"
            },
            {
              "internalType": "uint256",
              "name": "likes",
              "type": "uint256"
            }
          ],
          "internalType": "struct DContent.Post_data[]",
          "name": "",
          "type": "tuple[]"
        }
      ],
      "stateMutability": "view",
      "type": "function"
    },
    {
      "inputs": [
        {
          "internalType": "address",
          "name": "user",
          "type": "address"
        }
      ],
      "name": "getPosts",
      "outputs": [
        {
          "components": [
            {
              "internalType": "uint256",
              "name": "id",
              "type": "uint256"
            },
            {
              "internalType": "address",
              "name": "owner",
              "type": "address"
            },
            {
              "internalType": "string",
              "name": "hash",
              "type": "string"
            },
            {
              "internalType": "string",
              "name": "title",
              "type": "string"
            },
            {
              "internalType": "string",
              "name": "caption",
              "type": "string"
            },
            {
              "internalType": "uint256",
              "name": "likes",
              "type": "uint256"
            }
          ],
          "internalType": "struct DContent.Post_data[]",
          "name": "",
          "type": "tuple[]"
        }
      ],
      "stateMutability": "view",
      "type": "function"
    },
    {
      "inputs": [
        {
          "internalType": "address",
          "name": "user",
          "type": "address"
        }
      ],
      "name": "getPrivatePosts",
      "outputs": [
        {
          "components": [
            {
              "internalType": "uint256",
              "name": "id",
              "type": "uint256"
            },
            {
              "internalType": "address",
              "name": "owner",
              "type": "address"
            },
            {
              "internalType": "string",
              "name": "hash",
              "type": "string"
            },
            {
              "internalType": "string",
              "name": "title",
              "type": "string"
            },
            {
              "internalType": "string",
              "name": "caption",
              "type": "string"
            },
            {
              "internalType": "uint256",
              "name": "likes",
              "type": "uint256"
            }
          ],
          "internalType": "struct DContent.Post_data[]",
          "name": "",
          "type": "tuple[]"
        }
      ],
      "stateMutability": "view",
      "type": "function"
    },
    {
      "inputs": [],
      "name": "getAllPosts",
      "outputs": [
        {
          "components": [
            {
              "internalType": "uint256",
              "name": "id",
              "type": "uint256"
            },
            {
              "internalType": "address",
              "name": "owner",
              "type": "address"
            },
            {
              "internalType": "string",
              "name": "hash",
              "type": "string"
            },
            {
              "internalType": "string",
              "name": "title",
              "type": "string"
            },
            {
              "internalType": "string",
              "name": "caption",
              "type": "string"
            },
            {
              "internalType": "uint256",
              "name": "likes",
              "type": "uint256"
            }
          ],
          "internalType": "struct DContent.Post_data[]",
          "name": "",
          "type": "tuple[]"
        }
      ],
      "stateMutability": "view",
      "type": "function"
    }
  ],
  "bytecode": "0x6080604052600060035534801561001557600080fd5b5061486f806100256000396000f3fe6080604052600436106101805760003560e01c80638bb6b284116100d1578063c6b4507f1161008a578063cef4b20d11610064578063cef4b20d14610601578063d26a72281461062a578063e8a4a1eb14610653578063f5a797671461067c57610180565b8063c6b4507f1461055e578063ce9ae0011461059b578063ced95ed0146105d857610180565b80638bb6b28414610412578063a87430ba1461043d578063ad88881b1461047d578063b5e2efd2146104ba578063b9f0bf66146104f8578063c1976b831461053557610180565b80634caf9d0b1161013e5780636f77926b116101185780636f77926b1461033f5780637a60ab5a1461037c5780638244b44b146103b9578063847ef918146103f657610180565b80634caf9d0b146102975780634dbf27cc146102d45780635c538df3146102fd57610180565b8062ce8e3e14610185578063015a4ead146101b05780632b36d949146101d9578063305611001461020457806341f3004a1461022f5780634209fff11461025a575b600080fd5b34801561019157600080fd5b5061019a6106b9565b6040516101a79190613d0c565b60405180910390f35b3480156101bc57600080fd5b506101d760048036038101906101d29190613d6e565b610780565b005b3480156101e557600080fd5b506101ee610b0f565b6040516101fb9190613d0c565b60405180910390f35b34801561021057600080fd5b50610219610e86565b6040516102269190613fa6565b60405180910390f35b34801561023b57600080fd5b50610244611119565b6040516102519190613fa6565b60405180910390f35b34801561026657600080fd5b50610281600480360381019061027c9190613d6e565b611570565b60405161028e9190613fe3565b60405180910390f35b3480156102a357600080fd5b506102be60048036038101906102b99190613d6e565b611590565b6040516102cb9190613fa6565b60405180910390f35b3480156102e057600080fd5b506102fb60048036038101906102f69190613d6e565b6119e9565b005b34801561030957600080fd5b50610324600480360381019061031f919061402a565b611d77565b604051610336969594939291906140d2565b60405180910390f35b34801561034b57600080fd5b5061036660048036038101906103619190613d6e565b611f78565b60405161037391906141b9565b60405180910390f35b34801561038857600080fd5b506103a3600480360381019061039e919061402a565b61226b565b6040516103b091906141db565b60405180910390f35b3480156103c557600080fd5b506103e060048036038101906103db9190613d6e565b61229c565b6040516103ed9190613fa6565b60405180910390f35b610410600480360381019061040b9190614234565b612788565b005b34801561041e57600080fd5b5061042761294c565b60405161043491906141db565b60405180910390f35b34801561044957600080fd5b50610464600480360381019061045f9190613d6e565b612952565b6040516104749493929190614261565b60405180910390f35b34801561048957600080fd5b506104a4600480360381019061049f91906142bb565b612b3a565b6040516104b19190613fe3565b60405180910390f35b3480156104c657600080fd5b506104e160048036038101906104dc9190613d6e565b612b69565b6040516104ef9291906142fb565b60405180910390f35b34801561050457600080fd5b5061051f600480360381019061051a9190613d6e565b612b8d565b60405161052c91906141db565b60405180910390f35b34801561054157600080fd5b5061055c60048036038101906105579190614459565b612ba5565b005b34801561056a57600080fd5b5061058560048036038101906105809190614514565b612dde565b6040516105929190614541565b60405180910390f35b3480156105a757600080fd5b506105c260048036038101906105bd91906142bb565b612e1d565b6040516105cf9190613fe3565b60405180910390f35b3480156105e457600080fd5b506105ff60048036038101906105fa9190614459565b612e4c565b005b34801561060d57600080fd5b506106286004803603810190610623919061455c565b6130cb565b005b34801561063657600080fd5b50610651600480360381019061064c9190614459565b61337b565b005b34801561065f57600080fd5b5061067a6004803603810190610675919061455c565b613768565b005b34801561068857600080fd5b506106a3600480360381019061069e9190613d6e565b613a18565b6040516106b091906141db565b60405180910390f35b6060600073ffffffffffffffffffffffffffffffffffffffff163373ffffffffffffffffffffffffffffffffffffffff16036106f457600080fd5b600280548060200260200160405190810160405280929190818152602001828054801561077657602002820191906000526020600020905b8160009054906101000a900473ffffffffffffffffffffffffffffffffffffffff1673ffffffffffffffffffffffffffffffffffffffff168152602001906001019080831161072c575b5050505050905090565b600073ffffffffffffffffffffffffffffffffffffffff163373ffffffffffffffffffffffffffffffffffffffff16036107b957600080fd5b600073ffffffffffffffffffffffffffffffffffffffff168173ffffffffffffffffffffffffffffffffffffffff16036107f257600080fd5b600160003373ffffffffffffffffffffffffffffffffffffffff1673ffffffffffffffffffffffffffffffffffffffff16815260200190815260200160002060009054906101000a900460ff1661084857600080fd5b600160008273ffffffffffffffffffffffffffffffffffffffff1673ffffffffffffffffffffffffffffffffffffffff16815260200190815260200160002060009054906101000a900460ff1661089e57600080fd5b600460008273ffffffffffffffffffffffffffffffffffffffff1673ffffffffffffffffffffffffffffffffffffffff16815260200190815260200160002060003373ffffffffffffffffffffffffffffffffffffffff1673ffffffffffffffffffffffffffffffffffffffff16815260200190815260200160002060009054906101000a900460ff1615610b0c576000600460008373ffffffffffffffffffffffffffffffffffffffff1673ffffffffffffffffffffffffffffffffffffffff16815260200190815260200160002060003373ffffffffffffffffffffffffffffffffffffffff1673ffffffffffffffffffffffffffffffffffffffff16815260200190815260200160002060006101000a81548160ff0219169083151502179055506000600560003373ffffffffffffffffffffffffffffffffffffffff1673ffffffffffffffffffffffffffffffffffffffff16815260200190815260200160002060008373ffffffffffffffffffffffffffffffffffffffff1673ffffffffffffffffffffffffffffffffffffffff16815260200190815260200160002060006101000a81548160ff0219169083151502179055506001600660008373ffffffffffffffffffffffffffffffffffffffff1673ffffffffffffffffffffffffffffffffffffffff1681526020019081526020016000206000016000828254610aaa9190614632565b925050819055506001600660003373ffffffffffffffffffffffffffffffffffffffff1673ffffffffffffffffffffffffffffffffffffffff1681526020019081526020016000206001016000828254610b049190614632565b925050819055505b50565b6060600073ffffffffffffffffffffffffffffffffffffffff163373ffffffffffffffffffffffffffffffffffffffff1603610b4a57600080fd5b600160003373ffffffffffffffffffffffffffffffffffffffff1673ffffffffffffffffffffffffffffffffffffffff16815260200190815260200160002060009054906101000a900460ff16610ba057600080fd5b6000805b600280549050811015610ca0576009600060028381548110610bc957610bc8614666565b5b9060005260206000200160009054906101000a900473ffffffffffffffffffffffffffffffffffffffff1673ffffffffffffffffffffffffffffffffffffffff1673ffffffffffffffffffffffffffffffffffffffff16815260200190815260200160002060003373ffffffffffffffffffffffffffffffffffffffff1673ffffffffffffffffffffffffffffffffffffffff16815260200190815260200160002060009054906101000a900460ff1615610c8d578180610c8990614695565b9250505b8080610c9890614695565b915050610ba4565b5060008167ffffffffffffffff811115610cbd57610cbc61432e565b5b604051908082528060200260200182016040528015610ceb5781602001602082028036833780820191505090505b5090506000915060005b600280549050811015610e7d576009600060028381548110610d1a57610d19614666565b5b9060005260206000200160009054906101000a900473ffffffffffffffffffffffffffffffffffffffff1673ffffffffffffffffffffffffffffffffffffffff1673ffffffffffffffffffffffffffffffffffffffff16815260200190815260200160002060003373ffffffffffffffffffffffffffffffffffffffff1673ffffffffffffffffffffffffffffffffffffffff16815260200190815260200160002060009054906101000a900460ff1615610e6a5760028181548110610de357610de2614666565b5b9060005260206000200160009054906101000a900473ffffffffffffffffffffffffffffffffffffffff16828481518110610e2157610e20614666565b5b602002602001019073ffffffffffffffffffffffffffffffffffffffff16908173ffffffffffffffffffffffffffffffffffffffff16815250508280610e6690614695565b9350505b8080610e7590614695565b915050610cf5565b50809250505090565b6060600073ffffffffffffffffffffffffffffffffffffffff163373ffffffffffffffffffffffffffffffffffffffff1603610ec157600080fd5b600060028054905003610f2a57600067ffffffffffffffff811115610ee957610ee861432e565b5b604051908082528060200260200182016040528015610f2257816020015b610f0f613aef565b815260200190600190039081610f075790505b509050611116565b6000610f746002600081548110610f4457610f43614666565b5b9060005260206000200160009054906101000a900473ffffffffffffffffffffffffffffffffffffffff16611590565b90506000600190505b600280549050811015611110576000610fd360028381548110610fa357610fa2614666565b5b9060005260206000200160009054906101000a900473ffffffffffffffffffffffffffffffffffffffff16611590565b9050600081518451610fe591906146dd565b67ffffffffffffffff811115610ffe57610ffd61432e565b5b60405190808252806020026020018201604052801561103757816020015b611024613aef565b81526020019060019003908161101c5790505b50905060005b84518110156110925784818151811061105957611058614666565b5b602002602001015182828151811061107457611073614666565b5b6020026020010181905250808061108a90614695565b91505061103d565b5060005b82518110156110f7578281815181106110b2576110b1614666565b5b6020026020010151828287516110c891906146dd565b815181106110d9576110d8614666565b5b602002602001018190525080806110ef90614695565b915050611096565b508093505050808061110890614695565b915050610f7d565b50809150505b90565b6060600073ffffffffffffffffffffffffffffffffffffffff163373ffffffffffffffffffffffffffffffffffffffff160361115457600080fd5b600160003373ffffffffffffffffffffffffffffffffffffffff1673ffffffffffffffffffffffffffffffffffffffff16815260200190815260200160002060009054906101000a900460ff166111aa57600080fd5b6000600b60003373ffffffffffffffffffffffffffffffffffffffff1673ffffffffffffffffffffffffffffffffffffffff16815260200190815260200160002080548060200260200160405190810160405280929190818152602001828054801561123557602002820191906000526020600020905b815481526020019060010190808311611221575b505050505090506000815167ffffffffffffffff8111156112595761125861432e565b5b60405190808252806020026020018201604052801561129257816020015b61127f613aef565b8152602001906001900390816112775790505b50905060005b825181101561156757600760003373ffffffffffffffffffffffffffffffffffffffff1673ffffffffffffffffffffffffffffffffffffffff16815260200190815260200160002060008483815181106112f5576112f4614666565b5b602002602001015181526020019081526020016000206040518060c0016040529081600082015481526020016001820160009054906101000a900473ffffffffffffffffffffffffffffffffffffffff1673ffffffffffffffffffffffffffffffffffffffff1673ffffffffffffffffffffffffffffffffffffffff16815260200160028201805461138690614762565b80601f01602080910402602001604051908101604052809291908181526020018280546113b290614762565b80156113ff5780601f106113d4576101008083540402835291602001916113ff565b820191906000526020600020905b8154815290600101906020018083116113e257829003601f168201915b5050505050815260200160038201805461141890614762565b80601f016020809104026020016040519081016040528092919081815260200182805461144490614762565b80156114915780601f1061146657610100808354040283529160200191611491565b820191906000526020600020905b81548152906001019060200180831161147457829003601f168201915b505050505081526020016004820180546114aa90614762565b80601f01602080910402602001604051908101604052809291908181526020018280546114d690614762565b80156115235780601f106114f857610100808354040283529160200191611523565b820191906000526020600020905b81548152906001019060200180831161150657829003601f168201915b5050505050815260200160058201548152505082828151811061154957611548614666565b5b6020026020010181905250808061155f90614695565b915050611298565b50809250505090565b60016020528060005260406000206000915054906101000a900460ff1681565b6060600073ffffffffffffffffffffffffffffffffffffffff168273ffffffffffffffffffffffffffffffffffffffff16036115cb57600080fd5b600160008373ffffffffffffffffffffffffffffffffffffffff1673ffffffffffffffffffffffffffffffffffffffff16815260200190815260200160002060009054906101000a900460ff1661162157600080fd5b6000600b60008473ffffffffffffffffffffffffffffffffffffffff1673ffffffffffffffffffffffffffffffffffffffff1681526020019081526020016000208054806020026020016040519081016040528092919081815260200182805480156116ac57602002820191906000526020600020905b815481526020019060010190808311611698575b505050505090506000815167ffffffffffffffff8111156116d0576116cf61432e565b5b60405190808252806020026020018201604052801561170957816020015b6116f6613aef565b8152602001906001900390816116ee5790505b50905060005b82518110156119de57600760008673ffffffffffffffffffffffffffffffffffffffff1673ffffffffffffffffffffffffffffffffffffffff168152602001908152602001600020600084838151811061176c5761176b614666565b5b602002602001015181526020019081526020016000206040518060c0016040529081600082015481526020016001820160009054906101000a900473ffffffffffffffffffffffffffffffffffffffff1673ffffffffffffffffffffffffffffffffffffffff1673ffffffffffffffffffffffffffffffffffffffff1681526020016002820180546117fd90614762565b80601f016020809104026020016040519081016040528092919081815260200182805461182990614762565b80156118765780601f1061184b57610100808354040283529160200191611876565b820191906000526020600020905b81548152906001019060200180831161185957829003601f168201915b5050505050815260200160038201805461188f90614762565b80601f01602080910402602001604051908101604052809291908181526020018280546118bb90614762565b80156119085780601f106118dd57610100808354040283529160200191611908565b820191906000526020600020905b8154815290600101906020018083116118eb57829003601f168201915b5050505050815260200160048201805461192190614762565b80601f016020809104026020016040519081016040528092919081815260200182805461194d90614762565b801561199a5780601f1061196f5761010080835404028352916020019161199a565b820191906000526020600020905b81548152906001019060200180831161197d57829003601f168201915b505050505081526020016005820154815250508282815181106119c0576119bf614666565b5b602002602001018190525080806119d690614695565b91505061170f565b508092505050919050565b600073ffffffffffffffffffffffffffffffffffffffff163373ffffffffffffffffffffffffffffffffffffffff1603611a2257600080fd5b600073ffffffffffffffffffffffffffffffffffffffff168173ffffffffffffffffffffffffffffffffffffffff1603611a5b57600080fd5b600160003373ffffffffffffffffffffffffffffffffffffffff1673ffffffffffffffffffffffffffffffffffffffff16815260200190815260200160002060009054906101000a900460ff16611ab157600080fd5b600160008273ffffffffffffffffffffffffffffffffffffffff1673ffffffffffffffffffffffffffffffffffffffff16815260200190815260200160002060009054906101000a900460ff16611b0757600080fd5b600460008273ffffffffffffffffffffffffffffffffffffffff1673ffffffffffffffffffffffffffffffffffffffff16815260200190815260200160002060003373ffffffffffffffffffffffffffffffffffffffff1673ffffffffffffffffffffffffffffffffffffffff16815260200190815260200160002060009054906101000a900460ff16611d74576001600460008373ffffffffffffffffffffffffffffffffffffffff1673ffffffffffffffffffffffffffffffffffffffff16815260200190815260200160002060003373ffffffffffffffffffffffffffffffffffffffff1673ffffffffffffffffffffffffffffffffffffffff16815260200190815260200160002060006101000a81548160ff0219169083151502179055506001600560003373ffffffffffffffffffffffffffffffffffffffff1673ffffffffffffffffffffffffffffffffffffffff16815260200190815260200160002060008373ffffffffffffffffffffffffffffffffffffffff1673ffffffffffffffffffffffffffffffffffffffff16815260200190815260200160002060006101000a81548160ff0219169083151502179055506001600660008373ffffffffffffffffffffffffffffffffffffffff1673ffffffffffffffffffffffffffffffffffffffff1681526020019081526020016000206000016000828254611d1291906146dd565b925050819055506001600660003373ffffffffffffffffffffffffffffffffffffffff1673ffffffffffffffffffffffffffffffffffffffff1681526020019081526020016000206001016000828254611d6c91906146dd565b925050819055505b50565b6007602052816000526040600020602052806000526040600020600091509150508060000154908060010160009054906101000a900473ffffffffffffffffffffffffffffffffffffffff1690806002018054611dd390614762565b80601f0160208091040260200160405190810160405280929190818152602001828054611dff90614762565b8015611e4c5780601f10611e2157610100808354040283529160200191611e4c565b820191906000526020600020905b815481529060010190602001808311611e2f57829003601f168201915b505050505090806003018054611e6190614762565b80601f0160208091040260200160405190810160405280929190818152602001828054611e8d90614762565b8015611eda5780601f10611eaf57610100808354040283529160200191611eda565b820191906000526020600020905b815481529060010190602001808311611ebd57829003601f168201915b505050505090806004018054611eef90614762565b80601f0160208091040260200160405190810160405280929190818152602001828054611f1b90614762565b8015611f685780601f10611f3d57610100808354040283529160200191611f68565b820191906000526020600020905b815481529060010190602001808311611f4b57829003601f168201915b5050505050908060050154905086565b611f80613b3b565b600073ffffffffffffffffffffffffffffffffffffffff163373ffffffffffffffffffffffffffffffffffffffff1603611fb957600080fd5b600160008373ffffffffffffffffffffffffffffffffffffffff1673ffffffffffffffffffffffffffffffffffffffff16815260200190815260200160002060009054906101000a900460ff1661200f57600080fd5b6000808373ffffffffffffffffffffffffffffffffffffffff1673ffffffffffffffffffffffffffffffffffffffff1681526020019081526020016000206040518060800160405290816000820160009054906101000a900473ffffffffffffffffffffffffffffffffffffffff1673ffffffffffffffffffffffffffffffffffffffff1673ffffffffffffffffffffffffffffffffffffffff1681526020016001820180546120be90614762565b80601f01602080910402602001604051908101604052809291908181526020018280546120ea90614762565b80156121375780601f1061210c57610100808354040283529160200191612137565b820191906000526020600020905b81548152906001019060200180831161211a57829003601f168201915b5050505050815260200160028201805461215090614762565b80601f016020809104026020016040519081016040528092919081815260200182805461217c90614762565b80156121c95780601f1061219e576101008083540402835291602001916121c9565b820191906000526020600020905b8154815290600101906020018083116121ac57829003601f168201915b505050505081526020016003820180546121e290614762565b80601f016020809104026020016040519081016040528092919081815260200182805461220e90614762565b801561225b5780601f106122305761010080835404028352916020019161225b565b820191906000526020600020905b81548152906001019060200180831161223e57829003601f168201915b5050505050815250509050919050565b600b602052816000526040600020818154811061228757600080fd5b90600052602060002001600091509150505481565b6060600073ffffffffffffffffffffffffffffffffffffffff168273ffffffffffffffffffffffffffffffffffffffff16036122d757600080fd5b600160008373ffffffffffffffffffffffffffffffffffffffff1673ffffffffffffffffffffffffffffffffffffffff16815260200190815260200160002060009054906101000a900460ff1661232d57600080fd5b600960008373ffffffffffffffffffffffffffffffffffffffff1673ffffffffffffffffffffffffffffffffffffffff16815260200190815260200160002060003373ffffffffffffffffffffffffffffffffffffffff1673ffffffffffffffffffffffffffffffffffffffff16815260200190815260200160002060009054906101000a900460ff166123c057600080fd5b6000600c60008473ffffffffffffffffffffffffffffffffffffffff1673ffffffffffffffffffffffffffffffffffffffff16815260200190815260200160002080548060200260200160405190810160405280929190818152602001828054801561244b57602002820191906000526020600020905b815481526020019060010190808311612437575b505050505090506000815167ffffffffffffffff81111561246f5761246e61432e565b5b6040519080825280602002602001820160405280156124a857816020015b612495613aef565b81526020019060019003908161248d5790505b50905060005b825181101561277d57600860008673ffffffffffffffffffffffffffffffffffffffff1673ffffffffffffffffffffffffffffffffffffffff168152602001908152602001600020600084838151811061250b5761250a614666565b5b602002602001015181526020019081526020016000206040518060c0016040529081600082015481526020016001820160009054906101000a900473ffffffffffffffffffffffffffffffffffffffff1673ffffffffffffffffffffffffffffffffffffffff1673ffffffffffffffffffffffffffffffffffffffff16815260200160028201805461259c90614762565b80601f01602080910402602001604051908101604052809291908181526020018280546125c890614762565b80156126155780601f106125ea57610100808354040283529160200191612615565b820191906000526020600020905b8154815290600101906020018083116125f857829003601f168201915b5050505050815260200160038201805461262e90614762565b80601f016020809104026020016040519081016040528092919081815260200182805461265a90614762565b80156126a75780601f1061267c576101008083540402835291602001916126a7565b820191906000526020600020905b81548152906001019060200180831161268a57829003601f168201915b505050505081526020016004820180546126c090614762565b80601f01602080910402602001604051908101604052809291908181526020018280546126ec90614762565b80156127395780601f1061270e57610100808354040283529160200191612739565b820191906000526020600020905b81548152906001019060200180831161271c57829003601f168201915b5050505050815260200160058201548152505082828151811061275f5761275e614666565b5b6020026020010181905250808061277590614695565b9150506124ae565b508092505050919050565b600073ffffffffffffffffffffffffffffffffffffffff163373ffffffffffffffffffffffffffffffffffffffff16036127c157600080fd5b600160003373ffffffffffffffffffffffffffffffffffffffff1673ffffffffffffffffffffffffffffffffffffffff16815260200190815260200160002060009054906101000a900460ff1661281757600080fd5b600160008273ffffffffffffffffffffffffffffffffffffffff1673ffffffffffffffffffffffffffffffffffffffff16815260200190815260200160002060009054906101000a900460ff1661286d57600080fd5b8073ffffffffffffffffffffffffffffffffffffffff166108fc349081150290604051600060405180830381858888f193505050501580156128b3573d6000803e3d6000fd5b506001600960008373ffffffffffffffffffffffffffffffffffffffff1673ffffffffffffffffffffffffffffffffffffffff16815260200190815260200160002060003373ffffffffffffffffffffffffffffffffffffffff1673ffffffffffffffffffffffffffffffffffffffff16815260200190815260200160002060006101000a81548160ff02191690831515021790555050565b60035481565b60006020528060005260406000206000915090508060000160009054906101000a900473ffffffffffffffffffffffffffffffffffffffff169080600101805461299b90614762565b80601f01602080910402602001604051908101604052809291908181526020018280546129c790614762565b8015612a145780601f106129e957610100808354040283529160200191612a14565b820191906000526020600020905b8154815290600101906020018083116129f757829003601f168201915b505050505090806002018054612a2990614762565b80601f0160208091040260200160405190810160405280929190818152602001828054612a5590614762565b8015612aa25780601f10612a7757610100808354040283529160200191612aa2565b820191906000526020600020905b815481529060010190602001808311612a8557829003601f168201915b505050505090806003018054612ab790614762565b80601f0160208091040260200160405190810160405280929190818152602001828054612ae390614762565b8015612b305780601f10612b0557610100808354040283529160200191612b30565b820191906000526020600020905b815481529060010190602001808311612b1357829003601f168201915b5050505050905084565b60046020528160005260406000206020528060005260406000206000915091509054906101000a900460ff1681565b60066020528060005260406000206000915090508060000154908060010154905082565b600a6020528060005260406000206000915090505481565b600073ffffffffffffffffffffffffffffffffffffffff163373ffffffffffffffffffffffffffffffffffffffff1603612bde57600080fd5b600160003373ffffffffffffffffffffffffffffffffffffffff1673ffffffffffffffffffffffffffffffffffffffff16815260200190815260200160002060009054906101000a900460ff16612c3457600080fd5b600060405180608001604052803373ffffffffffffffffffffffffffffffffffffffff168152602001868152602001858152602001848152509050806000803373ffffffffffffffffffffffffffffffffffffffff1673ffffffffffffffffffffffffffffffffffffffff16815260200190815260200160002060008201518160000160006101000a81548173ffffffffffffffffffffffffffffffffffffffff021916908373ffffffffffffffffffffffffffffffffffffffff1602179055506020820151816001019080519060200190612d11929190613b79565b506040820151816002019080519060200190612d2e929190613b79565b506060820151816003019080519060200190612d4b929190613b79565b5090505060008214612d9c5781600a60003373ffffffffffffffffffffffffffffffffffffffff1673ffffffffffffffffffffffffffffffffffffffff168152602001908152602001600020819055505b7f891043d2e94b4aef9153ad13cfd5726c8d60b0f025da0a8fd7160d875808192a858585604051612dcf93929190614793565b60405180910390a15050505050565b60028181548110612dee57600080fd5b906000526020600020016000915054906101000a900473ffffffffffffffffffffffffffffffffffffffff1681565b60056020528160005260406000206020528060005260406000206000915091509054906101000a900460ff1681565b600073ffffffffffffffffffffffffffffffffffffffff163373ffffffffffffffffffffffffffffffffffffffff1603612e8557600080fd5b600160003373ffffffffffffffffffffffffffffffffffffffff1673ffffffffffffffffffffffffffffffffffffffff16815260200190815260200160002060009054906101000a900460ff16612edb57600080fd5b60006040518060c001604052808381526020013373ffffffffffffffffffffffffffffffffffffffff168152602001858152602001868152602001848152602001600760003373ffffffffffffffffffffffffffffffffffffffff1673ffffffffffffffffffffffffffffffffffffffff168152602001908152602001600020600085815260200190815260200160002060050154815250905080600760003373ffffffffffffffffffffffffffffffffffffffff1673ffffffffffffffffffffffffffffffffffffffff16815260200190815260200160002060008481526020019081526020016000206000820151816000015560208201518160010160006101000a81548173ffffffffffffffffffffffffffffffffffffffff021916908373ffffffffffffffffffffffffffffffffffffffff1602179055506040820151816002019080519060200190613033929190613b79565b506060820151816003019080519060200190613050929190613b79565b50608082015181600401908051906020019061306d929190613b79565b5060a082015181600501559050507f36d65d457c0bad214885511e167a23c9aa1587088d9d1af45f5dc9fe01cf99ba84826060015183608001518460a001516040516130bc94939291906147df565b60405180910390a15050505050565b600073ffffffffffffffffffffffffffffffffffffffff163373ffffffffffffffffffffffffffffffffffffffff160361310457600080fd5b600160003373ffffffffffffffffffffffffffffffffffffffff1673ffffffffffffffffffffffffffffffffffffffff16815260200190815260200160002060009054906101000a900460ff1661315a57600080fd5b60006040518060c0016040528060035481526020013373ffffffffffffffffffffffffffffffffffffffff1681526020018481526020018581526020018381526020016000815250905080600860003373ffffffffffffffffffffffffffffffffffffffff1673ffffffffffffffffffffffffffffffffffffffff168152602001908152602001600020600060035481526020019081526020016000206000820151816000015560208201518160010160006101000a81548173ffffffffffffffffffffffffffffffffffffffff021916908373ffffffffffffffffffffffffffffffffffffffff1602179055506040820151816002019080519060200190613264929190613b79565b506060820151816003019080519060200190613281929190613b79565b50608082015181600401908051906020019061329e929190613b79565b5060a08201518160050155905050600c60003373ffffffffffffffffffffffffffffffffffffffff1673ffffffffffffffffffffffffffffffffffffffff16815260200190815260200160002060035490806001815401808255809150506001900390600052602060002001600090919091909150556003600081548092919061332790614695565b91905055507f36d65d457c0bad214885511e167a23c9aa1587088d9d1af45f5dc9fe01cf99ba83826060015183608001518460a0015160405161336d94939291906147df565b60405180910390a150505050565b600073ffffffffffffffffffffffffffffffffffffffff163373ffffffffffffffffffffffffffffffffffffffff16036133b457600080fd5b600160003373ffffffffffffffffffffffffffffffffffffffff1673ffffffffffffffffffffffffffffffffffffffff16815260200190815260200160002060009054906101000a900460ff161561340b57600080fd5b600060405180608001604052803373ffffffffffffffffffffffffffffffffffffffff1681526020018681526020018581526020018481525090506001600960003373ffffffffffffffffffffffffffffffffffffffff1673ffffffffffffffffffffffffffffffffffffffff16815260200190815260200160002060003373ffffffffffffffffffffffffffffffffffffffff1673ffffffffffffffffffffffffffffffffffffffff16815260200190815260200160002060006101000a81548160ff021916908315150217905550806000803373ffffffffffffffffffffffffffffffffffffffff1673ffffffffffffffffffffffffffffffffffffffff16815260200190815260200160002060008201518160000160006101000a81548173ffffffffffffffffffffffffffffffffffffffff021916908373ffffffffffffffffffffffffffffffffffffffff160217905550602082015181600101908051906020019061357d929190613b79565b50604082015181600201908051906020019061359a929190613b79565b5060608201518160030190805190602001906135b7929190613b79565b509050506002339080600181540180825580915050600190039060005260206000200160009091909190916101000a81548173ffffffffffffffffffffffffffffffffffffffff021916908373ffffffffffffffffffffffffffffffffffffffff16021790555060018060003373ffffffffffffffffffffffffffffffffffffffff1673ffffffffffffffffffffffffffffffffffffffff16815260200190815260200160002060006101000a81548160ff0219169083151502179055506040518060400160405280600081526020016000815250600660003373ffffffffffffffffffffffffffffffffffffffff1673ffffffffffffffffffffffffffffffffffffffff168152602001908152602001600020600082015181600001556020820151816001015590505081600a60003373ffffffffffffffffffffffffffffffffffffffff1673ffffffffffffffffffffffffffffffffffffffff168152602001908152602001600020819055507f891043d2e94b4aef9153ad13cfd5726c8d60b0f025da0a8fd7160d875808192a85858560405161375993929190614793565b60405180910390a15050505050565b600073ffffffffffffffffffffffffffffffffffffffff163373ffffffffffffffffffffffffffffffffffffffff16036137a157600080fd5b600160003373ffffffffffffffffffffffffffffffffffffffff1673ffffffffffffffffffffffffffffffffffffffff16815260200190815260200160002060009054906101000a900460ff166137f757600080fd5b60006040518060c0016040528060035481526020013373ffffffffffffffffffffffffffffffffffffffff1681526020018481526020018581526020018381526020016000815250905080600760003373ffffffffffffffffffffffffffffffffffffffff1673ffffffffffffffffffffffffffffffffffffffff168152602001908152602001600020600060035481526020019081526020016000206000820151816000015560208201518160010160006101000a81548173ffffffffffffffffffffffffffffffffffffffff021916908373ffffffffffffffffffffffffffffffffffffffff1602179055506040820151816002019080519060200190613901929190613b79565b50606082015181600301908051906020019061391e929190613b79565b50608082015181600401908051906020019061393b929190613b79565b5060a08201518160050155905050600b60003373ffffffffffffffffffffffffffffffffffffffff1673ffffffffffffffffffffffffffffffffffffffff1681526020019081526020016000206003549080600181540180825580915050600190039060005260206000200160009091909190915055600360008154809291906139c490614695565b91905055507f36d65d457c0bad214885511e167a23c9aa1587088d9d1af45f5dc9fe01cf99ba83826060015183608001518460a00151604051613a0a94939291906147df565b60405180910390a150505050565b60008073ffffffffffffffffffffffffffffffffffffffff163373ffffffffffffffffffffffffffffffffffffffff1603613a5257600080fd5b600160008373ffffffffffffffffffffffffffffffffffffffff1673ffffffffffffffffffffffffffffffffffffffff16815260200190815260200160002060009054906101000a900460ff16613aa857600080fd5b600a60008373ffffffffffffffffffffffffffffffffffffffff1673ffffffffffffffffffffffffffffffffffffffff168152602001908152602001600020549050919050565b6040518060c0016040528060008152602001600073ffffffffffffffffffffffffffffffffffffffff168152602001606081526020016060815260200160608152602001600081525090565b6040518060800160405280600073ffffffffffffffffffffffffffffffffffffffff1681526020016060815260200160608152602001606081525090565b828054613b8590614762565b90600052602060002090601f016020900481019282613ba75760008555613bee565b82601f10613bc057805160ff1916838001178555613bee565b82800160010185558215613bee579182015b82811115613bed578251825591602001919060010190613bd2565b5b509050613bfb9190613bff565b5090565b5b80821115613c18576000816000905550600101613c00565b5090565b600081519050919050565b600082825260208201905092915050565b6000819050602082019050919050565b600073ffffffffffffffffffffffffffffffffffffffff82169050919050565b6000613c7382613c48565b9050919050565b613c8381613c68565b82525050565b6000613c958383613c7a565b60208301905092915050565b6000602082019050919050565b6000613cb982613c1c565b613cc38185613c27565b9350613cce83613c38565b8060005b83811015613cff578151613ce68882613c89565b9750613cf183613ca1565b925050600181019050613cd2565b5085935050505092915050565b60006020820190508181036000830152613d268184613cae565b905092915050565b6000604051905090565b600080fd5b600080fd5b613d4b81613c68565b8114613d5657600080fd5b50565b600081359050613d6881613d42565b92915050565b600060208284031215613d8457613d83613d38565b5b6000613d9284828501613d59565b91505092915050565b600081519050919050565b600082825260208201905092915050565b6000819050602082019050919050565b6000819050919050565b613dda81613dc7565b82525050565b600081519050919050565b600082825260208201905092915050565b60005b83811015613e1a578082015181840152602081019050613dff565b83811115613e29576000848401525b50505050565b6000601f19601f8301169050919050565b6000613e4b82613de0565b613e558185613deb565b9350613e65818560208601613dfc565b613e6e81613e2f565b840191505092915050565b600060c083016000830151613e916000860182613dd1565b506020830151613ea46020860182613c7a565b5060408301518482036040860152613ebc8282613e40565b91505060608301518482036060860152613ed68282613e40565b91505060808301518482036080860152613ef08282613e40565b91505060a0830151613f0560a0860182613dd1565b508091505092915050565b6000613f1c8383613e79565b905092915050565b6000602082019050919050565b6000613f3c82613d9b565b613f468185613da6565b935083602082028501613f5885613db7565b8060005b85811015613f945784840389528151613f758582613f10565b9450613f8083613f24565b925060208a01995050600181019050613f5c565b50829750879550505050505092915050565b60006020820190508181036000830152613fc08184613f31565b905092915050565b60008115159050919050565b613fdd81613fc8565b82525050565b6000602082019050613ff86000830184613fd4565b92915050565b61400781613dc7565b811461401257600080fd5b50565b60008135905061402481613ffe565b92915050565b6000806040838503121561404157614040613d38565b5b600061404f85828601613d59565b925050602061406085828601614015565b9150509250929050565b61407381613dc7565b82525050565b61408281613c68565b82525050565b600082825260208201905092915050565b60006140a482613de0565b6140ae8185614088565b93506140be818560208601613dfc565b6140c781613e2f565b840191505092915050565b600060c0820190506140e7600083018961406a565b6140f46020830188614079565b81810360408301526141068187614099565b9050818103606083015261411a8186614099565b9050818103608083015261412e8185614099565b905061413d60a083018461406a565b979650505050505050565b60006080830160008301516141606000860182613c7a565b50602083015184820360208601526141788282613e40565b915050604083015184820360408601526141928282613e40565b915050606083015184820360608601526141ac8282613e40565b9150508091505092915050565b600060208201905081810360008301526141d38184614148565b905092915050565b60006020820190506141f0600083018461406a565b92915050565b600061420182613c48565b9050919050565b614211816141f6565b811461421c57600080fd5b50565b60008135905061422e81614208565b92915050565b60006020828403121561424a57614249613d38565b5b60006142588482850161421f565b91505092915050565b60006080820190506142766000830187614079565b81810360208301526142888186614099565b9050818103604083015261429c8185614099565b905081810360608301526142b08184614099565b905095945050505050565b600080604083850312156142d2576142d1613d38565b5b60006142e085828601613d59565b92505060206142f185828601613d59565b9150509250929050565b6000604082019050614310600083018561406a565b61431d602083018461406a565b9392505050565b600080fd5b600080fd5b7f4e487b7100000000000000000000000000000000000000000000000000000000600052604160045260246000fd5b61436682613e2f565b810181811067ffffffffffffffff821117156143855761438461432e565b5b80604052505050565b6000614398613d2e565b90506143a4828261435d565b919050565b600067ffffffffffffffff8211156143c4576143c361432e565b5b6143cd82613e2f565b9050602081019050919050565b82818337600083830152505050565b60006143fc6143f7846143a9565b61438e565b90508281526020810184848401111561441857614417614329565b5b6144238482856143da565b509392505050565b600082601f8301126144405761443f614324565b5b81356144508482602086016143e9565b91505092915050565b6000806000806080858703121561447357614472613d38565b5b600085013567ffffffffffffffff81111561449157614490613d3d565b5b61449d8782880161442b565b945050602085013567ffffffffffffffff8111156144be576144bd613d3d565b5b6144ca8782880161442b565b935050604085013567ffffffffffffffff8111156144eb576144ea613d3d565b5b6144f78782880161442b565b925050606061450887828801614015565b91505092959194509250565b60006020828403121561452a57614529613d38565b5b600061453884828501614015565b91505092915050565b60006020820190506145566000830184614079565b92915050565b60008060006060848603121561457557614574613d38565b5b600084013567ffffffffffffffff81111561459357614592613d3d565b5b61459f8682870161442b565b935050602084013567ffffffffffffffff8111156145c0576145bf613d3d565b5b6145cc8682870161442b565b925050604084013567ffffffffffffffff8111156145ed576145ec613d3d565b5b6145f98682870161442b565b9150509250925092565b7f4e487b7100000000000000000000000000000000000000000000000000000000600052601160045260246000fd5b600061463d82613dc7565b915061464883613dc7565b92508282101561465b5761465a614603565b5b828203905092915050565b7f4e487b7100000000000000000000000000000000000000000000000000000000600052603260045260246000fd5b60006146a082613dc7565b91507fffffffffffffffffffffffffffffffffffffffffffffffffffffffffffffffff82036146d2576146d1614603565b5b600182019050919050565b60006146e882613dc7565b91506146f383613dc7565b9250827fffffffffffffffffffffffffffffffffffffffffffffffffffffffffffffffff0382111561472857614727614603565b5b828201905092915050565b7f4e487b7100000000000000000000000000000000000000000000000000000000600052602260045260246000fd5b6000600282049050600182168061477a57607f821691505b60208210810361478d5761478c614733565b5b50919050565b600060608201905081810360008301526147ad8186614099565b905081810360208301526147c18185614099565b905081810360408301526147d58184614099565b9050949350505050565b600060808201905081810360008301526147f98187614099565b9050818103602083015261480d8186614099565b905081810360408301526148218185614099565b9050614830606083018461406a565b9594505050505056fea2646970667358221220ae55ca47b4918acbc50b592cb540215a145e212fa00a1e67f86514d0675060cf64736f6c634300080d0033",
  "immutableReferences": {},
  "source": "// SPDX-License-Identifier: GPL-3.0\n\n// pragma solidity >=0.5.0;\npragma solidity >=0.4.22 <0.9.0;\npragma experimental ABIEncoderV2;\n\n/**\n * @title User\n * @dev Implements decentralised content creation on Blockchain\n */\ncontract DContent {\n\tstruct User {\n\t\taddress addr;\n\t\tstring name;\n\t\tstring photo;\n\t\tstring bio;\n\t}\n\n\tstruct Post_data {\n\t\tuint256 id;\n\t\taddress owner;\n\t\tstring hash;\n\t\tstring title;\n\t\tstring caption;\n\t\tuint256 likes;\n\t}\n\n\tstruct Network {\n\t\tuint256 num_followers;\n\t\tuint256 num_following;\n\t}\n\n\t// Profile\n\tmapping(address => User) public users;\n\tmapping(address => bool) public isUser;\n\taddress[] public user_id;\n\tuint256 public post_counter = 0;\n\n\t// Network\n\tmapping(address => mapping(address => bool)) public followers;\n\tmapping(address => mapping(address => bool)) public following;\n\tmapping(address => Network) public networks;\n\n\tmapping(address => mapping(uint256 => Post_data)) public posts;\n\tmapping(address => mapping(uint256 => Post_data)) internal private_posts;\n\tmapping(address => mapping(address => bool)) internal subscribed;\n\tmapping(address => uint256) public amount;\n\n\tmapping(address => uint256[]) public post_id;\n\tmapping(address => uint256[]) internal private_id;\n\n\tevent UserUpdated(string name, string photo, string bio);\n\n\tevent PostUpdated(string hash, string title, string caption, uint256 likes);\n\n\tfunction createUser(\n\t\tstring memory _name,\n\t\tstring memory photo,\n\t\tstring memory bio,\n\t\tuint256 _amount\n\t) public {\n\t\trequire(msg.sender != address(0));\n\t\trequire(!isUser[msg.sender]);\n\t\tUser memory user = User(msg.sender, _name, photo, bio);\n\t\tsubscribed[msg.sender][msg.sender] = true;\n\t\tusers[msg.sender] = user;\n\t\tuser_id.push(msg.sender);\n\t\tisUser[msg.sender] = true;\n\t\tnetworks[msg.sender] = Network(0, 0);\n\t\tamount[msg.sender] = _amount;\n\t\temit UserUpdated(_name, photo, bio);\n\t}\n\n\tfunction getUsers() public view returns (address[] memory) {\n\t\trequire(msg.sender != address(0));\n\t\t// if (user_id.length == 0) return new User[](0);\n\t\t// User[] memory data = new User[](user_id.length);\n\t\t// for (uint256 i = 0; i < user_id.length; i++) {\n\t\t// \tdata[i] = users[user_id[i]];\n\t\t// }\n\t\treturn user_id;\n\t}\n\n\tfunction getUser(address user) public view returns (User memory) {\n\t\trequire(msg.sender != address(0));\n\t\trequire(isUser[user]);\n\t\treturn users[user];\n\t}\n\n\tfunction getAmount(address user) public view returns (uint256) {\n\t\trequire(msg.sender != address(0));\n\t\trequire(isUser[user]);\n\t\treturn amount[user];\n\t}\n\n\tfunction updateUser(\n\t\tstring memory _name,\n\t\tstring memory photo,\n\t\tstring memory bio,\n\t\tuint256 _amount\n\t) public {\n\t\trequire(msg.sender != address(0));\n\t\trequire(isUser[msg.sender]);\n\t\tUser memory user = User(msg.sender, _name, photo, bio);\n\t\tusers[msg.sender] = user;\n\t\tif (_amount != 0) {\n\t\t\tamount[msg.sender] = _amount;\n\t\t}\n\t\temit UserUpdated(_name, photo, bio);\n\t}\n\n\tfunction follow(address user) public {\n\t\trequire(msg.sender != address(0));\n\t\trequire(user != address(0));\n\t\trequire(isUser[msg.sender]);\n\t\trequire(isUser[user]);\n\t\tif (!followers[user][msg.sender]) {\n\t\t\tfollowers[user][msg.sender] = true;\n\t\t\tfollowing[msg.sender][user] = true;\n\t\t\tnetworks[user].num_followers += 1;\n\t\t\tnetworks[msg.sender].num_following += 1;\n\t\t}\n\t}\n\n\tfunction unfollow(address user) public {\n\t\trequire(msg.sender != address(0));\n\t\trequire(user != address(0));\n\t\trequire(isUser[msg.sender]);\n\t\trequire(isUser[user]);\n\t\tif (followers[user][msg.sender]) {\n\t\t\tfollowers[user][msg.sender] = false;\n\t\t\tfollowing[msg.sender][user] = false;\n\t\t\tnetworks[user].num_followers -= 1;\n\t\t\tnetworks[msg.sender].num_following -= 1;\n\t\t}\n\t}\n\n\tfunction createPost(\n\t\tstring memory title,\n\t\tstring memory hash,\n\t\tstring memory caption\n\t) public {\n\t\trequire(msg.sender != address(0));\n\t\trequire(isUser[msg.sender]);\n\t\tPost_data memory post = Post_data(\n\t\t\tpost_counter,\n\t\t\tmsg.sender,\n\t\t\thash,\n\t\t\ttitle,\n\t\t\tcaption,\n\t\t\t0\n\t\t);\n\t\tposts[msg.sender][post_counter] = post;\n\t\tpost_id[msg.sender].push(post_counter);\n\t\tpost_counter++;\n\t\temit PostUpdated(hash, post.title, post.caption, post.likes);\n\t}\n\n\tfunction createPrivatePost(\n\t\tstring memory title,\n\t\tstring memory hash,\n\t\tstring memory caption\n\t) public {\n\t\trequire(msg.sender != address(0));\n\t\trequire(isUser[msg.sender]);\n\t\tPost_data memory post = Post_data(\n\t\t\tpost_counter,\n\t\t\tmsg.sender,\n\t\t\thash,\n\t\t\ttitle,\n\t\t\tcaption,\n\t\t\t0\n\t\t);\n\t\tprivate_posts[msg.sender][post_counter] = post;\n\t\tprivate_id[msg.sender].push(post_counter);\n\t\tpost_counter++;\n\t\temit PostUpdated(hash, post.title, post.caption, post.likes);\n\t}\n\n\t// function sendBal(address payable receiver) external payable onlyOwner {\n\t// \tuint256 amount = msg.value;\n\t// \treceiver.transfer(amount);\n\t// }\n\n\tfunction subscribedUser(address payable receiver) external payable {\n\t\trequire(msg.sender != address(0));\n\t\trequire(isUser[msg.sender]);\n\t\trequire(isUser[receiver]);\n\n\t\treceiver.transfer(msg.value);\n\n\t\t// do money trantions\n\t\tsubscribed[receiver][msg.sender] = true;\n\t}\n\n\tfunction updatePost(\n\t\tstring memory title,\n\t\tstring memory hash,\n\t\tstring memory caption,\n\t\tuint256 id\n\t) public {\n\t\trequire(msg.sender != address(0));\n\t\trequire(isUser[msg.sender]);\n\t\tPost_data memory post = Post_data(\n\t\t\tid,\n\t\t\tmsg.sender,\n\t\t\thash,\n\t\t\ttitle,\n\t\t\tcaption,\n\t\t\tposts[msg.sender][id].likes\n\t\t);\n\t\tposts[msg.sender][id] = post;\n\t\temit PostUpdated(hash, post.title, post.caption, post.likes);\n\t}\n\n\tfunction getMySubscriptions() public view returns (address[] memory) {\n\t\trequire(msg.sender != address(0));\n\t\trequire(isUser[msg.sender]);\n\n\t\tuint256 count = 0;\n\t\tfor (uint256 i = 0; i < user_id.length; i++) {\n\t\t\tif (subscribed[user_id[i]][msg.sender]) {\n\t\t\t\tcount++;\n\t\t\t}\n\t\t}\n\n\t\taddress[] memory user = new address[](count);\n\t\tcount = 0;\n\t\tfor (uint256 i = 0; i < user_id.length; i++) {\n\t\t\tif (subscribed[user_id[i]][msg.sender]) {\n\t\t\t\tuser[count] = user_id[i];\n\t\t\t\tcount++;\n\t\t\t}\n\t\t}\n\t\treturn user;\n\t}\n\n\tfunction getPosts() public view returns (Post_data[] memory) {\n\t\trequire(msg.sender != address(0));\n\t\trequire(isUser[msg.sender]);\n\t\tuint256[] memory ids = post_id[msg.sender];\n\t\tPost_data[] memory retrieval = new Post_data[](ids.length);\n\t\tfor (uint256 i = 0; i < ids.length; i++) {\n\t\t\tretrieval[i] = posts[msg.sender][ids[i]];\n\t\t}\n\t\treturn retrieval;\n\t}\n\n\tfunction getPosts(address user) public view returns (Post_data[] memory) {\n\t\trequire(user != address(0));\n\t\trequire(isUser[user]);\n\t\tuint256[] memory ids = post_id[user];\n\t\tPost_data[] memory retrieval = new Post_data[](ids.length);\n\t\tfor (uint256 i = 0; i < ids.length; i++) {\n\t\t\tretrieval[i] = posts[user][ids[i]];\n\t\t}\n\t\treturn retrieval;\n\t}\n\n\tfunction getPrivatePosts(address user)\n\t\tpublic\n\t\tview\n\t\treturns (Post_data[] memory)\n\t{\n\t\trequire(user != address(0));\n\t\trequire(isUser[user]);\n\t\trequire(subscribed[user][msg.sender]);\n\n\t\tuint256[] memory ids = private_id[user];\n\t\tPost_data[] memory retrieval = new Post_data[](ids.length);\n\t\tfor (uint256 i = 0; i < ids.length; i++) {\n\t\t\tretrieval[i] = private_posts[user][ids[i]];\n\t\t}\n\t\treturn retrieval;\n\t}\n\n\tfunction getAllPosts() public view returns (Post_data[] memory) {\n\t\trequire(msg.sender != address(0));\n\t\tif (user_id.length == 0) return new Post_data[](0);\n\t\tPost_data[] memory all_posts = getPosts(user_id[0]);\n\t\tfor (uint256 i = 1; i < user_id.length; i++) {\n\t\t\tPost_data[] memory user_id_posts = getPosts(user_id[i]);\n\t\t\tPost_data[] memory temp = new Post_data[](\n\t\t\t\tall_posts.length + user_id_posts.length\n\t\t\t);\n\t\t\tfor (uint256 j = 0; j < all_posts.length; j++) {\n\t\t\t\ttemp[j] = all_posts[j];\n\t\t\t}\n\t\t\tfor (uint256 j = 0; j < user_id_posts.length; j++) {\n\t\t\t\ttemp[all_posts.length + j] = user_id_posts[j];\n\t\t\t}\n\t\t\tall_posts = temp;\n\t\t}\n\n\t\treturn all_posts;\n\t}\n}\n",
  "sourcePath": "/home/zeel/Desktop/mycode/hakrthon/DContent/src/contracts/DContent.sol",
  "compiler": {
    "name": "solc",
    "version": "0.8.13+commit.abaa5c0e.Emscripten.clang"
  },
  "schemaVersion": "3.4.7",
  "updatedAt": "2022-04-24T09:35:16.261Z",
  "devdoc": {
    "details": "Implements decentralised content creation on Blockchain",
    "kind": "dev",
    "methods": {},
    "title": "User",
    "version": 1
  },
  "userdoc": {
    "kind": "user",
    "methods": {},
    "version": 1
  }
}