{
  "contractName": "DContent",
  "abi": [
    {
      "anonymous": false,
      "inputs": [
        {
          "indexed": false,
          "internalType": "string",
          "name": "hash",
          "type": "string"
        },
        {
          "indexed": false,
          "internalType": "string",
          "name": "title",
          "type": "string"
        },
        {
          "indexed": false,
          "internalType": "string",
          "name": "caption",
          "type": "string"
        },
        {
          "indexed": false,
          "internalType": "uint256",
          "name": "likes",
          "type": "uint256"
        }
      ],
      "name": "PostUpdated",
      "type": "event"
    },
    {
      "anonymous": false,
      "inputs": [
        {
          "indexed": false,
          "internalType": "string",
          "name": "name",
          "type": "string"
        },
        {
          "indexed": false,
          "internalType": "string",
          "name": "photo",
          "type": "string"
        },
        {
          "indexed": false,
          "internalType": "string",
          "name": "bio",
          "type": "string"
        }
      ],
      "name": "UserUpdated",
      "type": "event"
    },
    {
      "constant": true,
      "inputs": [
        {
          "internalType": "address",
          "name": "",
          "type": "address"
        }
      ],
      "name": "amount",
      "outputs": [
        {
          "internalType": "uint256",
          "name": "",
          "type": "uint256"
        }
      ],
      "payable": false,
      "stateMutability": "view",
      "type": "function"
    },
    {
      "constant": true,
      "inputs": [
        {
          "internalType": "address",
          "name": "",
          "type": "address"
        },
        {
          "internalType": "address",
          "name": "",
          "type": "address"
        }
      ],
      "name": "followers",
      "outputs": [
        {
          "internalType": "bool",
          "name": "",
          "type": "bool"
        }
      ],
      "payable": false,
      "stateMutability": "view",
      "type": "function"
    },
    {
      "constant": true,
      "inputs": [
        {
          "internalType": "address",
          "name": "",
          "type": "address"
        },
        {
          "internalType": "address",
          "name": "",
          "type": "address"
        }
      ],
      "name": "following",
      "outputs": [
        {
          "internalType": "bool",
          "name": "",
          "type": "bool"
        }
      ],
      "payable": false,
      "stateMutability": "view",
      "type": "function"
    },
    {
      "constant": true,
      "inputs": [
        {
          "internalType": "address",
          "name": "",
          "type": "address"
        }
      ],
      "name": "isUser",
      "outputs": [
        {
          "internalType": "bool",
          "name": "",
          "type": "bool"
        }
      ],
      "payable": false,
      "stateMutability": "view",
      "type": "function"
    },
    {
      "constant": true,
      "inputs": [
        {
          "internalType": "address",
          "name": "",
          "type": "address"
        }
      ],
      "name": "networks",
      "outputs": [
        {
          "internalType": "uint256",
          "name": "num_followers",
          "type": "uint256"
        },
        {
          "internalType": "uint256",
          "name": "num_following",
          "type": "uint256"
        }
      ],
      "payable": false,
      "stateMutability": "view",
      "type": "function"
    },
    {
      "constant": true,
      "inputs": [],
      "name": "post_counter",
      "outputs": [
        {
          "internalType": "uint256",
          "name": "",
          "type": "uint256"
        }
      ],
      "payable": false,
      "stateMutability": "view",
      "type": "function"
    },
    {
      "constant": true,
      "inputs": [
        {
          "internalType": "address",
          "name": "",
          "type": "address"
        },
        {
          "internalType": "uint256",
          "name": "",
          "type": "uint256"
        }
      ],
      "name": "post_id",
      "outputs": [
        {
          "internalType": "uint256",
          "name": "",
          "type": "uint256"
        }
      ],
      "payable": false,
      "stateMutability": "view",
      "type": "function"
    },
    {
      "constant": true,
      "inputs": [
        {
          "internalType": "address",
          "name": "",
          "type": "address"
        },
        {
          "internalType": "uint256",
          "name": "",
          "type": "uint256"
        }
      ],
      "name": "posts",
      "outputs": [
        {
          "internalType": "uint256",
          "name": "id",
          "type": "uint256"
        },
        {
          "internalType": "address",
          "name": "owner",
          "type": "address"
        },
        {
          "internalType": "string",
          "name": "hash",
          "type": "string"
        },
        {
          "internalType": "string",
          "name": "title",
          "type": "string"
        },
        {
          "internalType": "string",
          "name": "caption",
          "type": "string"
        },
        {
          "internalType": "uint256",
          "name": "likes",
          "type": "uint256"
        }
      ],
      "payable": false,
      "stateMutability": "view",
      "type": "function"
    },
    {
      "constant": true,
      "inputs": [
        {
          "internalType": "uint256",
          "name": "",
          "type": "uint256"
        }
      ],
      "name": "user_id",
      "outputs": [
        {
          "internalType": "address",
          "name": "",
          "type": "address"
        }
      ],
      "payable": false,
      "stateMutability": "view",
      "type": "function"
    },
    {
      "constant": true,
      "inputs": [
        {
          "internalType": "address",
          "name": "",
          "type": "address"
        }
      ],
      "name": "users",
      "outputs": [
        {
          "internalType": "address",
          "name": "addr",
          "type": "address"
        },
        {
          "internalType": "string",
          "name": "name",
          "type": "string"
        },
        {
          "internalType": "string",
          "name": "photo",
          "type": "string"
        },
        {
          "internalType": "string",
          "name": "bio",
          "type": "string"
        }
      ],
      "payable": false,
      "stateMutability": "view",
      "type": "function"
    },
    {
      "constant": false,
      "inputs": [
        {
          "internalType": "string",
          "name": "_name",
          "type": "string"
        },
        {
          "internalType": "string",
          "name": "photo",
          "type": "string"
        },
        {
          "internalType": "string",
          "name": "bio",
          "type": "string"
        },
        {
          "internalType": "uint256",
          "name": "_amount",
          "type": "uint256"
        }
      ],
      "name": "createUser",
      "outputs": [],
      "payable": false,
      "stateMutability": "nonpayable",
      "type": "function"
    },
    {
      "constant": true,
      "inputs": [],
      "name": "getUsers",
      "outputs": [
        {
          "internalType": "address[]",
          "name": "",
          "type": "address[]"
        }
      ],
      "payable": false,
      "stateMutability": "view",
      "type": "function"
    },
    {
      "constant": true,
      "inputs": [
        {
          "internalType": "address",
          "name": "user",
          "type": "address"
        }
      ],
      "name": "getUser",
      "outputs": [
        {
          "components": [
            {
              "internalType": "address",
              "name": "addr",
              "type": "address"
            },
            {
              "internalType": "string",
              "name": "name",
              "type": "string"
            },
            {
              "internalType": "string",
              "name": "photo",
              "type": "string"
            },
            {
              "internalType": "string",
              "name": "bio",
              "type": "string"
            }
          ],
          "internalType": "struct DContent.User",
          "name": "",
          "type": "tuple"
        }
      ],
      "payable": false,
      "stateMutability": "view",
      "type": "function"
    },
    {
      "constant": false,
      "inputs": [
        {
          "internalType": "string",
          "name": "_name",
          "type": "string"
        },
        {
          "internalType": "string",
          "name": "photo",
          "type": "string"
        },
        {
          "internalType": "string",
          "name": "bio",
          "type": "string"
        },
        {
          "internalType": "uint256",
          "name": "_amount",
          "type": "uint256"
        }
      ],
      "name": "updateUser",
      "outputs": [],
      "payable": false,
      "stateMutability": "nonpayable",
      "type": "function"
    },
    {
      "constant": false,
      "inputs": [
        {
          "internalType": "address",
          "name": "user",
          "type": "address"
        }
      ],
      "name": "follow",
      "outputs": [],
      "payable": false,
      "stateMutability": "nonpayable",
      "type": "function"
    },
    {
      "constant": false,
      "inputs": [
        {
          "internalType": "address",
          "name": "user",
          "type": "address"
        }
      ],
      "name": "unfollow",
      "outputs": [],
      "payable": false,
      "stateMutability": "nonpayable",
      "type": "function"
    },
    {
      "constant": false,
      "inputs": [
        {
          "internalType": "string",
          "name": "title",
          "type": "string"
        },
        {
          "internalType": "string",
          "name": "hash",
          "type": "string"
        },
        {
          "internalType": "string",
          "name": "caption",
          "type": "string"
        }
      ],
      "name": "createPost",
      "outputs": [],
      "payable": false,
      "stateMutability": "nonpayable",
      "type": "function"
    },
    {
      "constant": false,
      "inputs": [
        {
          "internalType": "string",
          "name": "title",
          "type": "string"
        },
        {
          "internalType": "string",
          "name": "hash",
          "type": "string"
        },
        {
          "internalType": "string",
          "name": "caption",
          "type": "string"
        }
      ],
      "name": "createPrivatePost",
      "outputs": [],
      "payable": false,
      "stateMutability": "nonpayable",
      "type": "function"
    },
    {
      "constant": false,
      "inputs": [
        {
          "internalType": "address payable",
          "name": "receiver",
          "type": "address"
        }
      ],
      "name": "subscribedUser",
      "outputs": [],
      "payable": true,
      "stateMutability": "payable",
      "type": "function"
    },
    {
      "constant": false,
      "inputs": [
        {
          "internalType": "string",
          "name": "title",
          "type": "string"
        },
        {
          "internalType": "string",
          "name": "hash",
          "type": "string"
        },
        {
          "internalType": "string",
          "name": "caption",
          "type": "string"
        },
        {
          "internalType": "uint256",
          "name": "id",
          "type": "uint256"
        }
      ],
      "name": "updatePost",
      "outputs": [],
      "payable": false,
      "stateMutability": "nonpayable",
      "type": "function"
    },
    {
      "constant": true,
      "inputs": [],
      "name": "getMySubscriptions",
      "outputs": [
        {
          "internalType": "address[]",
          "name": "",
          "type": "address[]"
        }
      ],
      "payable": false,
      "stateMutability": "view",
      "type": "function"
    },
    {
      "constant": true,
      "inputs": [],
      "name": "getPosts",
      "outputs": [
        {
          "components": [
            {
              "internalType": "uint256",
              "name": "id",
              "type": "uint256"
            },
            {
              "internalType": "address",
              "name": "owner",
              "type": "address"
            },
            {
              "internalType": "string",
              "name": "hash",
              "type": "string"
            },
            {
              "internalType": "string",
              "name": "title",
              "type": "string"
            },
            {
              "internalType": "string",
              "name": "caption",
              "type": "string"
            },
            {
              "internalType": "uint256",
              "name": "likes",
              "type": "uint256"
            }
          ],
          "internalType": "struct DContent.Post_data[]",
          "name": "",
          "type": "tuple[]"
        }
      ],
      "payable": false,
      "stateMutability": "view",
      "type": "function"
    },
    {
      "constant": true,
      "inputs": [
        {
          "internalType": "address",
          "name": "user",
          "type": "address"
        }
      ],
      "name": "getPosts",
      "outputs": [
        {
          "components": [
            {
              "internalType": "uint256",
              "name": "id",
              "type": "uint256"
            },
            {
              "internalType": "address",
              "name": "owner",
              "type": "address"
            },
            {
              "internalType": "string",
              "name": "hash",
              "type": "string"
            },
            {
              "internalType": "string",
              "name": "title",
              "type": "string"
            },
            {
              "internalType": "string",
              "name": "caption",
              "type": "string"
            },
            {
              "internalType": "uint256",
              "name": "likes",
              "type": "uint256"
            }
          ],
          "internalType": "struct DContent.Post_data[]",
          "name": "",
          "type": "tuple[]"
        }
      ],
      "payable": false,
      "stateMutability": "view",
      "type": "function"
    },
    {
      "constant": true,
      "inputs": [
        {
          "internalType": "address",
          "name": "user",
          "type": "address"
        }
      ],
      "name": "getPrivatePosts",
      "outputs": [
        {
          "components": [
            {
              "internalType": "uint256",
              "name": "id",
              "type": "uint256"
            },
            {
              "internalType": "address",
              "name": "owner",
              "type": "address"
            },
            {
              "internalType": "string",
              "name": "hash",
              "type": "string"
            },
            {
              "internalType": "string",
              "name": "title",
              "type": "string"
            },
            {
              "internalType": "string",
              "name": "caption",
              "type": "string"
            },
            {
              "internalType": "uint256",
              "name": "likes",
              "type": "uint256"
            }
          ],
          "internalType": "struct DContent.Post_data[]",
          "name": "",
          "type": "tuple[]"
        }
      ],
      "payable": false,
      "stateMutability": "view",
      "type": "function"
    },
    {
      "constant": true,
      "inputs": [],
      "name": "getAllPosts",
      "outputs": [
        {
          "components": [
            {
              "internalType": "uint256",
              "name": "id",
              "type": "uint256"
            },
            {
              "internalType": "address",
              "name": "owner",
              "type": "address"
            },
            {
              "internalType": "string",
              "name": "hash",
              "type": "string"
            },
            {
              "internalType": "string",
              "name": "title",
              "type": "string"
            },
            {
              "internalType": "string",
              "name": "caption",
              "type": "string"
            },
            {
              "internalType": "uint256",
              "name": "likes",
              "type": "uint256"
            }
          ],
          "internalType": "struct DContent.Post_data[]",
          "name": "",
          "type": "tuple[]"
        }
      ],
      "payable": false,
      "stateMutability": "view",
      "type": "function"
    }
  ],
  "bytecode": "0x6080604052600060035534801561001557600080fd5b50614576806100256000396000f3fe6080604052600436106101655760003560e01c8063847ef918116100d1578063c1976b831161008a578063ced95ed011610064578063ced95ed0146105bd578063cef4b20d146105e6578063d26a72281461060f578063e8a4a1eb1461063857610165565b8063c1976b831461051a578063c6b4507f14610543578063ce9ae0011461058057610165565b8063847ef918146103db5780638bb6b284146103f7578063a87430ba14610422578063ad88881b14610462578063b5e2efd21461049f578063b9f0bf66146104dd57610165565b80634caf9d0b116101235780634caf9d0b1461027c5780634dbf27cc146102b95780635c538df3146102e25780636f77926b146103245780637a60ab5a146103615780638244b44b1461039e57610165565b8062ce8e3e1461016a578063015a4ead146101955780632b36d949146101be57806330561100146101e957806341f3004a146102145780634209fff11461023f575b600080fd5b34801561017657600080fd5b5061017f610661565b60405161018c919061415d565b60405180910390f35b3480156101a157600080fd5b506101bc60048036036101b79190810190613bb6565b610729565b005b3480156101ca57600080fd5b506101d3610aa8565b6040516101e0919061415d565b60405180910390f35b3480156101f557600080fd5b506101fe610ddd565b60405161020b919061417f565b60405180910390f35b34801561022057600080fd5b50610229610ff8565b604051610236919061417f565b60405180910390f35b34801561024b57600080fd5b5061026660048036036102619190810190613bb6565b611456565b60405161027391906141a1565b60405180910390f35b34801561028857600080fd5b506102a3600480360361029e9190810190613bb6565b611476565b6040516102b0919061417f565b60405180910390f35b3480156102c557600080fd5b506102e060048036036102db9190810190613bb6565b6118d6565b005b3480156102ee57600080fd5b5061030960048036036103049190810190613c44565b611c54565b60405161031b9695949392919061429f565b60405180910390f35b34801561033057600080fd5b5061034b60048036036103469190810190613bb6565b611e85565b6040516103589190614262565b60405180910390f35b34801561036d57600080fd5b5061038860048036036103839190810190613c44565b6121a9565b6040516103959190614284565b60405180910390f35b3480156103aa57600080fd5b506103c560048036036103c09190810190613bb6565b6121d7565b6040516103d2919061417f565b60405180910390f35b6103f560048036036103f09190810190613bdf565b6126ca565b005b34801561040357600080fd5b5061040c61288f565b6040516104199190614284565b60405180910390f35b34801561042e57600080fd5b5061044960048036036104449190810190613bb6565b612895565b6040516104599493929190614103565b60405180910390f35b34801561046e57600080fd5b5061048960048036036104849190810190613c08565b612aad565b60405161049691906141a1565b60405180910390f35b3480156104ab57600080fd5b506104c660048036036104c19190810190613bb6565b612adc565b6040516104d4929190614315565b60405180910390f35b3480156104e957600080fd5b5061050460048036036104ff9190810190613bb6565b612b00565b6040516105119190614284565b60405180910390f35b34801561052657600080fd5b50610541600480360361053c9190810190613d17565b612b18565b005b34801561054f57600080fd5b5061056a60048036036105659190810190613dc2565b612d58565b60405161057791906140e8565b60405180910390f35b34801561058c57600080fd5b506105a760048036036105a29190810190613c08565b612d94565b6040516105b491906141a1565b60405180910390f35b3480156105c957600080fd5b506105e460048036036105df9190810190613d17565b612dc3565b005b3480156105f257600080fd5b5061060d60048036036106089190810190613c80565b613049565b005b34801561061b57600080fd5b5061063660048036036106319190810190613d17565b6132fd565b005b34801561064457600080fd5b5061065f600480360361065a9190810190613c80565b6136f4565b005b6060600073ffffffffffffffffffffffffffffffffffffffff163373ffffffffffffffffffffffffffffffffffffffff16141561069d57600080fd5b600280548060200260200160405190810160405280929190818152602001828054801561071f57602002820191906000526020600020905b8160009054906101000a900473ffffffffffffffffffffffffffffffffffffffff1673ffffffffffffffffffffffffffffffffffffffff16815260200190600101908083116106d5575b5050505050905090565b600073ffffffffffffffffffffffffffffffffffffffff163373ffffffffffffffffffffffffffffffffffffffff16141561076357600080fd5b600073ffffffffffffffffffffffffffffffffffffffff168173ffffffffffffffffffffffffffffffffffffffff16141561079d57600080fd5b600160003373ffffffffffffffffffffffffffffffffffffffff1673ffffffffffffffffffffffffffffffffffffffff16815260200190815260200160002060009054906101000a900460ff166107f357600080fd5b600160008273ffffffffffffffffffffffffffffffffffffffff1673ffffffffffffffffffffffffffffffffffffffff16815260200190815260200160002060009054906101000a900460ff1661084957600080fd5b600460008273ffffffffffffffffffffffffffffffffffffffff1673ffffffffffffffffffffffffffffffffffffffff16815260200190815260200160002060003373ffffffffffffffffffffffffffffffffffffffff1673ffffffffffffffffffffffffffffffffffffffff16815260200190815260200160002060009054906101000a900460ff1615610aa5576000600460008373ffffffffffffffffffffffffffffffffffffffff1673ffffffffffffffffffffffffffffffffffffffff16815260200190815260200160002060003373ffffffffffffffffffffffffffffffffffffffff1673ffffffffffffffffffffffffffffffffffffffff16815260200190815260200160002060006101000a81548160ff0219169083151502179055506000600560003373ffffffffffffffffffffffffffffffffffffffff1673ffffffffffffffffffffffffffffffffffffffff16815260200190815260200160002060008373ffffffffffffffffffffffffffffffffffffffff1673ffffffffffffffffffffffffffffffffffffffff16815260200190815260200160002060006101000a81548160ff0219169083151502179055506001600660008373ffffffffffffffffffffffffffffffffffffffff1673ffffffffffffffffffffffffffffffffffffffff168152602001908152602001600020600001600082825403925050819055506001600660003373ffffffffffffffffffffffffffffffffffffffff1673ffffffffffffffffffffffffffffffffffffffff168152602001908152602001600020600101600082825403925050819055505b50565b6060600073ffffffffffffffffffffffffffffffffffffffff163373ffffffffffffffffffffffffffffffffffffffff161415610ae457600080fd5b600160003373ffffffffffffffffffffffffffffffffffffffff1673ffffffffffffffffffffffffffffffffffffffff16815260200190815260200160002060009054906101000a900460ff16610b3a57600080fd5b600080905060008090505b600280549050811015610c2e576009600060028381548110610b6357fe5b9060005260206000200160009054906101000a900473ffffffffffffffffffffffffffffffffffffffff1673ffffffffffffffffffffffffffffffffffffffff1673ffffffffffffffffffffffffffffffffffffffff16815260200190815260200160002060003373ffffffffffffffffffffffffffffffffffffffff1673ffffffffffffffffffffffffffffffffffffffff16815260200190815260200160002060009054906101000a900460ff1615610c215781806001019250505b8080600101915050610b45565b50606081604051908082528060200260200182016040528015610c605781602001602082028038833980820191505090505b5090506000915060008090505b600280549050811015610dd4576009600060028381548110610c8b57fe5b9060005260206000200160009054906101000a900473ffffffffffffffffffffffffffffffffffffffff1673ffffffffffffffffffffffffffffffffffffffff1673ffffffffffffffffffffffffffffffffffffffff16815260200190815260200160002060003373ffffffffffffffffffffffffffffffffffffffff1673ffffffffffffffffffffffffffffffffffffffff16815260200190815260200160002060009054906101000a900460ff1615610dc75760028181548110610d4d57fe5b9060005260206000200160009054906101000a900473ffffffffffffffffffffffffffffffffffffffff16828481518110610d8457fe5b602002602001019073ffffffffffffffffffffffffffffffffffffffff16908173ffffffffffffffffffffffffffffffffffffffff168152505082806001019350505b8080600101915050610c6d565b50809250505090565b6060600073ffffffffffffffffffffffffffffffffffffffff163373ffffffffffffffffffffffffffffffffffffffff161415610e1957600080fd5b60006002805490501415610e6a576000604051908082528060200260200182016040528015610e6257816020015b610e4f6139a8565b815260200190600190039081610e475790505b509050610ff5565b6060610ead6002600081548110610e7d57fe5b9060005260206000200160009054906101000a900473ffffffffffffffffffffffffffffffffffffffff16611476565b90506000600190505b600280549050811015610fef576060610f0560028381548110610ed557fe5b9060005260206000200160009054906101000a900473ffffffffffffffffffffffffffffffffffffffff16611476565b905060608151845101604051908082528060200260200182016040528015610f4757816020015b610f346139a8565b815260200190600190039081610f2c5790505b50905060008090505b8451811015610f9157848181518110610f6557fe5b6020026020010151828281518110610f7957fe5b60200260200101819052508080600101915050610f50565b5060008090505b8251811015610fdc57828181518110610fad57fe5b6020026020010151828287510181518110610fc457fe5b60200260200101819052508080600101915050610f98565b5080935050508080600101915050610eb6565b50809150505b90565b6060600073ffffffffffffffffffffffffffffffffffffffff163373ffffffffffffffffffffffffffffffffffffffff16141561103457600080fd5b600160003373ffffffffffffffffffffffffffffffffffffffff1673ffffffffffffffffffffffffffffffffffffffff16815260200190815260200160002060009054906101000a900460ff1661108a57600080fd5b6060600b60003373ffffffffffffffffffffffffffffffffffffffff1673ffffffffffffffffffffffffffffffffffffffff16815260200190815260200160002080548060200260200160405190810160405280929190818152602001828054801561111557602002820191906000526020600020905b815481526020019060010190808311611101575b505050505090506060815160405190808252806020026020018201604052801561115957816020015b6111466139a8565b81526020019060019003908161113e5790505b50905060008090505b825181101561144d57600760003373ffffffffffffffffffffffffffffffffffffffff1673ffffffffffffffffffffffffffffffffffffffff16815260200190815260200160002060008483815181106111b857fe5b602002602001015181526020019081526020016000206040518060c0016040529081600082015481526020016001820160009054906101000a900473ffffffffffffffffffffffffffffffffffffffff1673ffffffffffffffffffffffffffffffffffffffff1673ffffffffffffffffffffffffffffffffffffffff168152602001600282018054600181600116156101000203166002900480601f0160208091040260200160405190810160405280929190818152602001828054600181600116156101000203166002900480156112d25780601f106112a7576101008083540402835291602001916112d2565b820191906000526020600020905b8154815290600101906020018083116112b557829003601f168201915b50505050508152602001600382018054600181600116156101000203166002900480601f0160208091040260200160405190810160405280929190818152602001828054600181600116156101000203166002900480156113745780601f1061134957610100808354040283529160200191611374565b820191906000526020600020905b81548152906001019060200180831161135757829003601f168201915b50505050508152602001600482018054600181600116156101000203166002900480601f0160208091040260200160405190810160405280929190818152602001828054600181600116156101000203166002900480156114165780601f106113eb57610100808354040283529160200191611416565b820191906000526020600020905b8154815290600101906020018083116113f957829003601f168201915b5050505050815260200160058201548152505082828151811061143557fe5b60200260200101819052508080600101915050611162565b50809250505090565b60016020528060005260406000206000915054906101000a900460ff1681565b6060600073ffffffffffffffffffffffffffffffffffffffff168273ffffffffffffffffffffffffffffffffffffffff1614156114b257600080fd5b600160008373ffffffffffffffffffffffffffffffffffffffff1673ffffffffffffffffffffffffffffffffffffffff16815260200190815260200160002060009054906101000a900460ff1661150857600080fd5b6060600b60008473ffffffffffffffffffffffffffffffffffffffff1673ffffffffffffffffffffffffffffffffffffffff16815260200190815260200160002080548060200260200160405190810160405280929190818152602001828054801561159357602002820191906000526020600020905b81548152602001906001019080831161157f575b50505050509050606081516040519080825280602002602001820160405280156115d757816020015b6115c46139a8565b8152602001906001900390816115bc5790505b50905060008090505b82518110156118cb57600760008673ffffffffffffffffffffffffffffffffffffffff1673ffffffffffffffffffffffffffffffffffffffff168152602001908152602001600020600084838151811061163657fe5b602002602001015181526020019081526020016000206040518060c0016040529081600082015481526020016001820160009054906101000a900473ffffffffffffffffffffffffffffffffffffffff1673ffffffffffffffffffffffffffffffffffffffff1673ffffffffffffffffffffffffffffffffffffffff168152602001600282018054600181600116156101000203166002900480601f0160208091040260200160405190810160405280929190818152602001828054600181600116156101000203166002900480156117505780601f1061172557610100808354040283529160200191611750565b820191906000526020600020905b81548152906001019060200180831161173357829003601f168201915b50505050508152602001600382018054600181600116156101000203166002900480601f0160208091040260200160405190810160405280929190818152602001828054600181600116156101000203166002900480156117f25780601f106117c7576101008083540402835291602001916117f2565b820191906000526020600020905b8154815290600101906020018083116117d557829003601f168201915b50505050508152602001600482018054600181600116156101000203166002900480601f0160208091040260200160405190810160405280929190818152602001828054600181600116156101000203166002900480156118945780601f1061186957610100808354040283529160200191611894565b820191906000526020600020905b81548152906001019060200180831161187757829003601f168201915b505050505081526020016005820154815250508282815181106118b357fe5b602002602001018190525080806001019150506115e0565b508092505050919050565b600073ffffffffffffffffffffffffffffffffffffffff163373ffffffffffffffffffffffffffffffffffffffff16141561191057600080fd5b600073ffffffffffffffffffffffffffffffffffffffff168173ffffffffffffffffffffffffffffffffffffffff16141561194a57600080fd5b600160003373ffffffffffffffffffffffffffffffffffffffff1673ffffffffffffffffffffffffffffffffffffffff16815260200190815260200160002060009054906101000a900460ff166119a057600080fd5b600160008273ffffffffffffffffffffffffffffffffffffffff1673ffffffffffffffffffffffffffffffffffffffff16815260200190815260200160002060009054906101000a900460ff166119f657600080fd5b600460008273ffffffffffffffffffffffffffffffffffffffff1673ffffffffffffffffffffffffffffffffffffffff16815260200190815260200160002060003373ffffffffffffffffffffffffffffffffffffffff1673ffffffffffffffffffffffffffffffffffffffff16815260200190815260200160002060009054906101000a900460ff16611c51576001600460008373ffffffffffffffffffffffffffffffffffffffff1673ffffffffffffffffffffffffffffffffffffffff16815260200190815260200160002060003373ffffffffffffffffffffffffffffffffffffffff1673ffffffffffffffffffffffffffffffffffffffff16815260200190815260200160002060006101000a81548160ff0219169083151502179055506001600560003373ffffffffffffffffffffffffffffffffffffffff1673ffffffffffffffffffffffffffffffffffffffff16815260200190815260200160002060008373ffffffffffffffffffffffffffffffffffffffff1673ffffffffffffffffffffffffffffffffffffffff16815260200190815260200160002060006101000a81548160ff0219169083151502179055506001600660008373ffffffffffffffffffffffffffffffffffffffff1673ffffffffffffffffffffffffffffffffffffffff168152602001908152602001600020600001600082825401925050819055506001600660003373ffffffffffffffffffffffffffffffffffffffff1673ffffffffffffffffffffffffffffffffffffffff168152602001908152602001600020600101600082825401925050819055505b50565b6007602052816000526040600020602052806000526040600020600091509150508060000154908060010160009054906101000a900473ffffffffffffffffffffffffffffffffffffffff1690806002018054600181600116156101000203166002900480601f016020809104026020016040519081016040528092919081815260200182805460018160011615610100020316600290048015611d395780601f10611d0e57610100808354040283529160200191611d39565b820191906000526020600020905b815481529060010190602001808311611d1c57829003601f168201915b505050505090806003018054600181600116156101000203166002900480601f016020809104026020016040519081016040528092919081815260200182805460018160011615610100020316600290048015611dd75780601f10611dac57610100808354040283529160200191611dd7565b820191906000526020600020905b815481529060010190602001808311611dba57829003601f168201915b505050505090806004018054600181600116156101000203166002900480601f016020809104026020016040519081016040528092919081815260200182805460018160011615610100020316600290048015611e755780601f10611e4a57610100808354040283529160200191611e75565b820191906000526020600020905b815481529060010190602001808311611e5857829003601f168201915b5050505050908060050154905086565b611e8d6139f4565b600073ffffffffffffffffffffffffffffffffffffffff163373ffffffffffffffffffffffffffffffffffffffff161415611ec757600080fd5b600160008373ffffffffffffffffffffffffffffffffffffffff1673ffffffffffffffffffffffffffffffffffffffff16815260200190815260200160002060009054906101000a900460ff16611f1d57600080fd5b6000808373ffffffffffffffffffffffffffffffffffffffff1673ffffffffffffffffffffffffffffffffffffffff1681526020019081526020016000206040518060800160405290816000820160009054906101000a900473ffffffffffffffffffffffffffffffffffffffff1673ffffffffffffffffffffffffffffffffffffffff1673ffffffffffffffffffffffffffffffffffffffff168152602001600182018054600181600116156101000203166002900480601f0160208091040260200160405190810160405280929190818152602001828054600181600116156101000203166002900480156120555780601f1061202a57610100808354040283529160200191612055565b820191906000526020600020905b81548152906001019060200180831161203857829003601f168201915b50505050508152602001600282018054600181600116156101000203166002900480601f0160208091040260200160405190810160405280929190818152602001828054600181600116156101000203166002900480156120f75780601f106120cc576101008083540402835291602001916120f7565b820191906000526020600020905b8154815290600101906020018083116120da57829003601f168201915b50505050508152602001600382018054600181600116156101000203166002900480601f0160208091040260200160405190810160405280929190818152602001828054600181600116156101000203166002900480156121995780601f1061216e57610100808354040283529160200191612199565b820191906000526020600020905b81548152906001019060200180831161217c57829003601f168201915b5050505050815250509050919050565b600b60205281600052604060002081815481106121c257fe5b90600052602060002001600091509150505481565b6060600073ffffffffffffffffffffffffffffffffffffffff168273ffffffffffffffffffffffffffffffffffffffff16141561221357600080fd5b600160008373ffffffffffffffffffffffffffffffffffffffff1673ffffffffffffffffffffffffffffffffffffffff16815260200190815260200160002060009054906101000a900460ff1661226957600080fd5b600960008373ffffffffffffffffffffffffffffffffffffffff1673ffffffffffffffffffffffffffffffffffffffff16815260200190815260200160002060003373ffffffffffffffffffffffffffffffffffffffff1673ffffffffffffffffffffffffffffffffffffffff16815260200190815260200160002060009054906101000a900460ff166122fc57600080fd5b6060600c60008473ffffffffffffffffffffffffffffffffffffffff1673ffffffffffffffffffffffffffffffffffffffff16815260200190815260200160002080548060200260200160405190810160405280929190818152602001828054801561238757602002820191906000526020600020905b815481526020019060010190808311612373575b50505050509050606081516040519080825280602002602001820160405280156123cb57816020015b6123b86139a8565b8152602001906001900390816123b05790505b50905060008090505b82518110156126bf57600860008673ffffffffffffffffffffffffffffffffffffffff1673ffffffffffffffffffffffffffffffffffffffff168152602001908152602001600020600084838151811061242a57fe5b602002602001015181526020019081526020016000206040518060c0016040529081600082015481526020016001820160009054906101000a900473ffffffffffffffffffffffffffffffffffffffff1673ffffffffffffffffffffffffffffffffffffffff1673ffffffffffffffffffffffffffffffffffffffff168152602001600282018054600181600116156101000203166002900480601f0160208091040260200160405190810160405280929190818152602001828054600181600116156101000203166002900480156125445780601f1061251957610100808354040283529160200191612544565b820191906000526020600020905b81548152906001019060200180831161252757829003601f168201915b50505050508152602001600382018054600181600116156101000203166002900480601f0160208091040260200160405190810160405280929190818152602001828054600181600116156101000203166002900480156125e65780601f106125bb576101008083540402835291602001916125e6565b820191906000526020600020905b8154815290600101906020018083116125c957829003601f168201915b50505050508152602001600482018054600181600116156101000203166002900480601f0160208091040260200160405190810160405280929190818152602001828054600181600116156101000203166002900480156126885780601f1061265d57610100808354040283529160200191612688565b820191906000526020600020905b81548152906001019060200180831161266b57829003601f168201915b505050505081526020016005820154815250508282815181106126a757fe5b602002602001018190525080806001019150506123d4565b508092505050919050565b600073ffffffffffffffffffffffffffffffffffffffff163373ffffffffffffffffffffffffffffffffffffffff16141561270457600080fd5b600160003373ffffffffffffffffffffffffffffffffffffffff1673ffffffffffffffffffffffffffffffffffffffff16815260200190815260200160002060009054906101000a900460ff1661275a57600080fd5b600160008273ffffffffffffffffffffffffffffffffffffffff1673ffffffffffffffffffffffffffffffffffffffff16815260200190815260200160002060009054906101000a900460ff166127b057600080fd5b8073ffffffffffffffffffffffffffffffffffffffff166108fc349081150290604051600060405180830381858888f193505050501580156127f6573d6000803e3d6000fd5b506001600960008373ffffffffffffffffffffffffffffffffffffffff1673ffffffffffffffffffffffffffffffffffffffff16815260200190815260200160002060003373ffffffffffffffffffffffffffffffffffffffff1673ffffffffffffffffffffffffffffffffffffffff16815260200190815260200160002060006101000a81548160ff02191690831515021790555050565b60035481565b60006020528060005260406000206000915090508060000160009054906101000a900473ffffffffffffffffffffffffffffffffffffffff1690806001018054600181600116156101000203166002900480601f0160208091040260200160405190810160405280929190818152602001828054600181600116156101000203166002900480156129675780601f1061293c57610100808354040283529160200191612967565b820191906000526020600020905b81548152906001019060200180831161294a57829003601f168201915b505050505090806002018054600181600116156101000203166002900480601f016020809104026020016040519081016040528092919081815260200182805460018160011615610100020316600290048015612a055780601f106129da57610100808354040283529160200191612a05565b820191906000526020600020905b8154815290600101906020018083116129e857829003601f168201915b505050505090806003018054600181600116156101000203166002900480601f016020809104026020016040519081016040528092919081815260200182805460018160011615610100020316600290048015612aa35780601f10612a7857610100808354040283529160200191612aa3565b820191906000526020600020905b815481529060010190602001808311612a8657829003601f168201915b5050505050905084565b60046020528160005260406000206020528060005260406000206000915091509054906101000a900460ff1681565b60066020528060005260406000206000915090508060000154908060010154905082565b600a6020528060005260406000206000915090505481565b600073ffffffffffffffffffffffffffffffffffffffff163373ffffffffffffffffffffffffffffffffffffffff161415612b5257600080fd5b600160003373ffffffffffffffffffffffffffffffffffffffff1673ffffffffffffffffffffffffffffffffffffffff16815260200190815260200160002060009054906101000a900460ff16612ba857600080fd5b612bb06139f4565b60405180608001604052803373ffffffffffffffffffffffffffffffffffffffff168152602001868152602001858152602001848152509050806000803373ffffffffffffffffffffffffffffffffffffffff1673ffffffffffffffffffffffffffffffffffffffff16815260200190815260200160002060008201518160000160006101000a81548173ffffffffffffffffffffffffffffffffffffffff021916908373ffffffffffffffffffffffffffffffffffffffff1602179055506020820151816001019080519060200190612c8b929190613a32565b506040820151816002019080519060200190612ca8929190613a32565b506060820151816003019080519060200190612cc5929190613a32565b5090505060008214612d165781600a60003373ffffffffffffffffffffffffffffffffffffffff1673ffffffffffffffffffffffffffffffffffffffff168152602001908152602001600020819055505b7f891043d2e94b4aef9153ad13cfd5726c8d60b0f025da0a8fd7160d875808192a858585604051612d49939291906141bc565b60405180910390a15050505050565b60028181548110612d6557fe5b906000526020600020016000915054906101000a900473ffffffffffffffffffffffffffffffffffffffff1681565b60056020528160005260406000206020528060005260406000206000915091509054906101000a900460ff1681565b600073ffffffffffffffffffffffffffffffffffffffff163373ffffffffffffffffffffffffffffffffffffffff161415612dfd57600080fd5b600160003373ffffffffffffffffffffffffffffffffffffffff1673ffffffffffffffffffffffffffffffffffffffff16815260200190815260200160002060009054906101000a900460ff16612e5357600080fd5b612e5b613ab2565b6040518060c001604052808381526020013373ffffffffffffffffffffffffffffffffffffffff168152602001858152602001868152602001848152602001600760003373ffffffffffffffffffffffffffffffffffffffff1673ffffffffffffffffffffffffffffffffffffffff168152602001908152602001600020600085815260200190815260200160002060050154815250905080600760003373ffffffffffffffffffffffffffffffffffffffff1673ffffffffffffffffffffffffffffffffffffffff16815260200190815260200160002060008481526020019081526020016000206000820151816000015560208201518160010160006101000a81548173ffffffffffffffffffffffffffffffffffffffff021916908373ffffffffffffffffffffffffffffffffffffffff1602179055506040820151816002019080519060200190612fb1929190613a32565b506060820151816003019080519060200190612fce929190613a32565b506080820151816004019080519060200190612feb929190613a32565b5060a082015181600501559050507f36d65d457c0bad214885511e167a23c9aa1587088d9d1af45f5dc9fe01cf99ba84826060015183608001518460a0015160405161303a9493929190614208565b60405180910390a15050505050565b600073ffffffffffffffffffffffffffffffffffffffff163373ffffffffffffffffffffffffffffffffffffffff16141561308357600080fd5b600160003373ffffffffffffffffffffffffffffffffffffffff1673ffffffffffffffffffffffffffffffffffffffff16815260200190815260200160002060009054906101000a900460ff166130d957600080fd5b6130e1613ab2565b6040518060c0016040528060035481526020013373ffffffffffffffffffffffffffffffffffffffff1681526020018481526020018581526020018381526020016000815250905080600860003373ffffffffffffffffffffffffffffffffffffffff1673ffffffffffffffffffffffffffffffffffffffff168152602001908152602001600020600060035481526020019081526020016000206000820151816000015560208201518160010160006101000a81548173ffffffffffffffffffffffffffffffffffffffff021916908373ffffffffffffffffffffffffffffffffffffffff16021790555060408201518160020190805190602001906131e9929190613a32565b506060820151816003019080519060200190613206929190613a32565b506080820151816004019080519060200190613223929190613a32565b5060a08201518160050155905050600c60003373ffffffffffffffffffffffffffffffffffffffff1673ffffffffffffffffffffffffffffffffffffffff16815260200190815260200160002060035490806001815401808255809150509060018203906000526020600020016000909192909190915055506003600081548092919060010191905055507f36d65d457c0bad214885511e167a23c9aa1587088d9d1af45f5dc9fe01cf99ba83826060015183608001518460a001516040516132ef9493929190614208565b60405180910390a150505050565b600073ffffffffffffffffffffffffffffffffffffffff163373ffffffffffffffffffffffffffffffffffffffff16141561333757600080fd5b600160003373ffffffffffffffffffffffffffffffffffffffff1673ffffffffffffffffffffffffffffffffffffffff16815260200190815260200160002060009054906101000a900460ff161561338e57600080fd5b6133966139f4565b60405180608001604052803373ffffffffffffffffffffffffffffffffffffffff1681526020018681526020018581526020018481525090506001600960003373ffffffffffffffffffffffffffffffffffffffff1673ffffffffffffffffffffffffffffffffffffffff16815260200190815260200160002060003373ffffffffffffffffffffffffffffffffffffffff1673ffffffffffffffffffffffffffffffffffffffff16815260200190815260200160002060006101000a81548160ff021916908315150217905550806000803373ffffffffffffffffffffffffffffffffffffffff1673ffffffffffffffffffffffffffffffffffffffff16815260200190815260200160002060008201518160000160006101000a81548173ffffffffffffffffffffffffffffffffffffffff021916908373ffffffffffffffffffffffffffffffffffffffff1602179055506020820151816001019080519060200190613506929190613a32565b506040820151816002019080519060200190613523929190613a32565b506060820151816003019080519060200190613540929190613a32565b5090505060023390806001815401808255809150509060018203906000526020600020016000909192909190916101000a81548173ffffffffffffffffffffffffffffffffffffffff021916908373ffffffffffffffffffffffffffffffffffffffff1602179055505060018060003373ffffffffffffffffffffffffffffffffffffffff1673ffffffffffffffffffffffffffffffffffffffff16815260200190815260200160002060006101000a81548160ff0219169083151502179055506040518060400160405280600081526020016000815250600660003373ffffffffffffffffffffffffffffffffffffffff1673ffffffffffffffffffffffffffffffffffffffff168152602001908152602001600020600082015181600001556020820151816001015590505081600a60003373ffffffffffffffffffffffffffffffffffffffff1673ffffffffffffffffffffffffffffffffffffffff168152602001908152602001600020819055507f891043d2e94b4aef9153ad13cfd5726c8d60b0f025da0a8fd7160d875808192a8585856040516136e5939291906141bc565b60405180910390a15050505050565b600073ffffffffffffffffffffffffffffffffffffffff163373ffffffffffffffffffffffffffffffffffffffff16141561372e57600080fd5b600160003373ffffffffffffffffffffffffffffffffffffffff1673ffffffffffffffffffffffffffffffffffffffff16815260200190815260200160002060009054906101000a900460ff1661378457600080fd5b61378c613ab2565b6040518060c0016040528060035481526020013373ffffffffffffffffffffffffffffffffffffffff1681526020018481526020018581526020018381526020016000815250905080600760003373ffffffffffffffffffffffffffffffffffffffff1673ffffffffffffffffffffffffffffffffffffffff168152602001908152602001600020600060035481526020019081526020016000206000820151816000015560208201518160010160006101000a81548173ffffffffffffffffffffffffffffffffffffffff021916908373ffffffffffffffffffffffffffffffffffffffff1602179055506040820151816002019080519060200190613894929190613a32565b5060608201518160030190805190602001906138b1929190613a32565b5060808201518160040190805190602001906138ce929190613a32565b5060a08201518160050155905050600b60003373ffffffffffffffffffffffffffffffffffffffff1673ffffffffffffffffffffffffffffffffffffffff16815260200190815260200160002060035490806001815401808255809150509060018203906000526020600020016000909192909190915055506003600081548092919060010191905055507f36d65d457c0bad214885511e167a23c9aa1587088d9d1af45f5dc9fe01cf99ba83826060015183608001518460a0015160405161399a9493929190614208565b60405180910390a150505050565b6040518060c0016040528060008152602001600073ffffffffffffffffffffffffffffffffffffffff168152602001606081526020016060815260200160608152602001600081525090565b6040518060800160405280600073ffffffffffffffffffffffffffffffffffffffff1681526020016060815260200160608152602001606081525090565b828054600181600116156101000203166002900490600052602060002090601f016020900481019282601f10613a7357805160ff1916838001178555613aa1565b82800160010185558215613aa1579182015b82811115613aa0578251825591602001919060010190613a85565b5b509050613aae9190613afe565b5090565b6040518060c0016040528060008152602001600073ffffffffffffffffffffffffffffffffffffffff168152602001606081526020016060815260200160608152602001600081525090565b613b2091905b80821115613b1c576000816000905550600101613b04565b5090565b90565b600081359050613b32816144ee565b92915050565b600081359050613b4781614505565b92915050565b600082601f830112613b5e57600080fd5b8135613b71613b6c8261436b565b61433e565b91508082526020830160208301858383011115613b8d57600080fd5b613b9883828461449b565b50505092915050565b600081359050613bb08161451c565b92915050565b600060208284031215613bc857600080fd5b6000613bd684828501613b23565b91505092915050565b600060208284031215613bf157600080fd5b6000613bff84828501613b38565b91505092915050565b60008060408385031215613c1b57600080fd5b6000613c2985828601613b23565b9250506020613c3a85828601613b23565b9150509250929050565b60008060408385031215613c5757600080fd5b6000613c6585828601613b23565b9250506020613c7685828601613ba1565b9150509250929050565b600080600060608486031215613c9557600080fd5b600084013567ffffffffffffffff811115613caf57600080fd5b613cbb86828701613b4d565b935050602084013567ffffffffffffffff811115613cd857600080fd5b613ce486828701613b4d565b925050604084013567ffffffffffffffff811115613d0157600080fd5b613d0d86828701613b4d565b9150509250925092565b60008060008060808587031215613d2d57600080fd5b600085013567ffffffffffffffff811115613d4757600080fd5b613d5387828801613b4d565b945050602085013567ffffffffffffffff811115613d7057600080fd5b613d7c87828801613b4d565b935050604085013567ffffffffffffffff811115613d9957600080fd5b613da587828801613b4d565b9250506060613db687828801613ba1565b91505092959194509250565b600060208284031215613dd457600080fd5b6000613de284828501613ba1565b91505092915050565b6000613df78383613e17565b60208301905092915050565b6000613e0f8383613fc2565b905092915050565b613e2081614441565b82525050565b613e2f81614441565b82525050565b6000613e40826143b7565b613e4a81856143fd565b9350613e5583614397565b8060005b83811015613e86578151613e6d8882613deb565b9750613e78836143e3565b925050600181019050613e59565b5085935050505092915050565b6000613e9e826143c2565b613ea8818561440e565b935083602082028501613eba856143a7565b8060005b85811015613ef65784840389528151613ed78582613e03565b9450613ee2836143f0565b925060208a01995050600181019050613ebe565b50829750879550505050505092915050565b613f1181614465565b82525050565b6000613f22826143d8565b613f2c8185614430565b9350613f3c8185602086016144aa565b613f45816144dd565b840191505092915050565b6000613f5b826143cd565b613f65818561441f565b9350613f758185602086016144aa565b613f7e816144dd565b840191505092915050565b6000613f94826143cd565b613f9e8185614430565b9350613fae8185602086016144aa565b613fb7816144dd565b840191505092915050565b600060c083016000830151613fda60008601826140ca565b506020830151613fed6020860182613e17565b50604083015184820360408601526140058282613f50565b9150506060830151848203606086015261401f8282613f50565b915050608083015184820360808601526140398282613f50565b91505060a083015161404e60a08601826140ca565b508091505092915050565b60006080830160008301516140716000860182613e17565b50602083015184820360208601526140898282613f50565b915050604083015184820360408601526140a38282613f50565b915050606083015184820360608601526140bd8282613f50565b9150508091505092915050565b6140d381614491565b82525050565b6140e281614491565b82525050565b60006020820190506140fd6000830184613e26565b92915050565b60006080820190506141186000830187613e26565b818103602083015261412a8186613f89565b9050818103604083015261413e8185613f89565b905081810360608301526141528184613f89565b905095945050505050565b600060208201905081810360008301526141778184613e35565b905092915050565b600060208201905081810360008301526141998184613e93565b905092915050565b60006020820190506141b66000830184613f08565b92915050565b600060608201905081810360008301526141d68186613f17565b905081810360208301526141ea8185613f17565b905081810360408301526141fe8184613f17565b9050949350505050565b600060808201905081810360008301526142228187613f17565b905081810360208301526142368186613f89565b9050818103604083015261424a8185613f89565b905061425960608301846140d9565b95945050505050565b6000602082019050818103600083015261427c8184614059565b905092915050565b600060208201905061429960008301846140d9565b92915050565b600060c0820190506142b460008301896140d9565b6142c16020830188613e26565b81810360408301526142d38187613f89565b905081810360608301526142e78186613f89565b905081810360808301526142fb8185613f89565b905061430a60a08301846140d9565b979650505050505050565b600060408201905061432a60008301856140d9565b61433760208301846140d9565b9392505050565b6000604051905081810181811067ffffffffffffffff8211171561436157600080fd5b8060405250919050565b600067ffffffffffffffff82111561438257600080fd5b601f19601f8301169050602081019050919050565b6000819050602082019050919050565b6000819050602082019050919050565b600081519050919050565b600081519050919050565b600081519050919050565b600081519050919050565b6000602082019050919050565b6000602082019050919050565b600082825260208201905092915050565b600082825260208201905092915050565b600082825260208201905092915050565b600082825260208201905092915050565b600061444c82614471565b9050919050565b600061445e82614471565b9050919050565b60008115159050919050565b600073ffffffffffffffffffffffffffffffffffffffff82169050919050565b6000819050919050565b82818337600083830152505050565b60005b838110156144c85780820151818401526020810190506144ad565b838111156144d7576000848401525b50505050565b6000601f19601f8301169050919050565b6144f781614441565b811461450257600080fd5b50565b61450e81614453565b811461451957600080fd5b50565b61452581614491565b811461453057600080fd5b5056fea365627a7a72315820b7515f4ee57d202d05561d365482e346b7c8d538bce9075cb9888428a2b9013f6c6578706572696d656e74616cf564736f6c63430005100040",
  "source": "// SPDX-License-Identifier: GPL-3.0\n\n// pragma solidity >=0.5.0;\npragma solidity >=0.4.22 <0.9.0;\npragma experimental ABIEncoderV2;\n\n/**\n * @title User\n * @dev Implements decentralised content creation on Blockchain\n */\ncontract DContent {\n\tstruct User {\n\t\taddress addr;\n\t\tstring name;\n\t\tstring photo;\n\t\tstring bio;\n\t}\n\n\tstruct Post_data {\n\t\tuint256 id;\n\t\taddress owner;\n\t\tstring hash;\n\t\tstring title;\n\t\tstring caption;\n\t\tuint256 likes;\n\t}\n\n\tstruct Network {\n\t\tuint256 num_followers;\n\t\tuint256 num_following;\n\t}\n\n\t// Profile\n\tmapping(address => User) public users;\n\tmapping(address => bool) public isUser;\n\taddress[] public user_id;\n\tuint256 public post_counter = 0;\n\n\t// Network\n\tmapping(address => mapping(address => bool)) public followers;\n\tmapping(address => mapping(address => bool)) public following;\n\tmapping(address => Network) public networks;\n\n\tmapping(address => mapping(uint256 => Post_data)) public posts;\n\tmapping(address => mapping(uint256 => Post_data)) internal private_posts;\n\tmapping(address => mapping(address => bool)) internal subscribed;\n\tmapping(address => uint256) public amount;\n\n\tmapping(address => uint256[]) public post_id;\n\tmapping(address => uint256[]) internal private_id;\n\n\tevent UserUpdated(string name, string photo, string bio);\n\n\tevent PostUpdated(string hash, string title, string caption, uint256 likes);\n\n\tfunction createUser(\n\t\tstring memory _name,\n\t\tstring memory photo,\n\t\tstring memory bio,\n\t\tuint256 _amount\n\t) public {\n\t\trequire(msg.sender != address(0));\n\t\trequire(!isUser[msg.sender]);\n\t\tUser memory user = User(msg.sender, _name, photo, bio);\n\t\tsubscribed[msg.sender][msg.sender] = true;\n\t\tusers[msg.sender] = user;\n\t\tuser_id.push(msg.sender);\n\t\tisUser[msg.sender] = true;\n\t\tnetworks[msg.sender] = Network(0, 0);\n\t\tamount[msg.sender] = _amount;\n\t\temit UserUpdated(_name, photo, bio);\n\t}\n\n\tfunction getUsers() public view returns (address[] memory) {\n\t\trequire(msg.sender != address(0));\n\t\t// if (user_id.length == 0) return new User[](0);\n\t\t// User[] memory data = new User[](user_id.length);\n\t\t// for (uint256 i = 0; i < user_id.length; i++) {\n\t\t// \tdata[i] = users[user_id[i]];\n\t\t// }\n\t\treturn user_id;\n\t}\n\n\tfunction getUser(address user) public view returns (User memory) {\n\t\trequire(msg.sender != address(0));\n\t\trequire(isUser[user]);\n\t\treturn users[user];\n\t}\n\n\tfunction updateUser(\n\t\tstring memory _name,\n\t\tstring memory photo,\n\t\tstring memory bio,\n\t\tuint256 _amount\n\t) public {\n\t\trequire(msg.sender != address(0));\n\t\trequire(isUser[msg.sender]);\n\t\tUser memory user = User(msg.sender, _name, photo, bio);\n\t\tusers[msg.sender] = user;\n\t\tif (_amount != 0) {\n\t\t\tamount[msg.sender] = _amount;\n\t\t}\n\t\temit UserUpdated(_name, photo, bio);\n\t}\n\n\tfunction follow(address user) public {\n\t\trequire(msg.sender != address(0));\n\t\trequire(user != address(0));\n\t\trequire(isUser[msg.sender]);\n\t\trequire(isUser[user]);\n\t\tif (!followers[user][msg.sender]) {\n\t\t\tfollowers[user][msg.sender] = true;\n\t\t\tfollowing[msg.sender][user] = true;\n\t\t\tnetworks[user].num_followers += 1;\n\t\t\tnetworks[msg.sender].num_following += 1;\n\t\t}\n\t}\n\n\tfunction unfollow(address user) public {\n\t\trequire(msg.sender != address(0));\n\t\trequire(user != address(0));\n\t\trequire(isUser[msg.sender]);\n\t\trequire(isUser[user]);\n\t\tif (followers[user][msg.sender]) {\n\t\t\tfollowers[user][msg.sender] = false;\n\t\t\tfollowing[msg.sender][user] = false;\n\t\t\tnetworks[user].num_followers -= 1;\n\t\t\tnetworks[msg.sender].num_following -= 1;\n\t\t}\n\t}\n\n\tfunction createPost(\n\t\tstring memory title,\n\t\tstring memory hash,\n\t\tstring memory caption\n\t) public {\n\t\trequire(msg.sender != address(0));\n\t\trequire(isUser[msg.sender]);\n\t\tPost_data memory post = Post_data(\n\t\t\tpost_counter,\n\t\t\tmsg.sender,\n\t\t\thash,\n\t\t\ttitle,\n\t\t\tcaption,\n\t\t\t0\n\t\t);\n\t\tposts[msg.sender][post_counter] = post;\n\t\tpost_id[msg.sender].push(post_counter);\n\t\tpost_counter++;\n\t\temit PostUpdated(hash, post.title, post.caption, post.likes);\n\t}\n\n\tfunction createPrivatePost(\n\t\tstring memory title,\n\t\tstring memory hash,\n\t\tstring memory caption\n\t) public {\n\t\trequire(msg.sender != address(0));\n\t\trequire(isUser[msg.sender]);\n\t\tPost_data memory post = Post_data(\n\t\t\tpost_counter,\n\t\t\tmsg.sender,\n\t\t\thash,\n\t\t\ttitle,\n\t\t\tcaption,\n\t\t\t0\n\t\t);\n\t\tprivate_posts[msg.sender][post_counter] = post;\n\t\tprivate_id[msg.sender].push(post_counter);\n\t\tpost_counter++;\n\t\temit PostUpdated(hash, post.title, post.caption, post.likes);\n\t}\n\n\t// function sendBal(address payable receiver) external payable onlyOwner {\n\t// \tuint256 amount = msg.value;\n\t// \treceiver.transfer(amount);\n\t// }\n\n\tfunction subscribedUser(address payable receiver) external payable {\n\t\trequire(msg.sender != address(0));\n\t\trequire(isUser[msg.sender]);\n\t\trequire(isUser[receiver]);\n\n\t\treceiver.transfer(msg.value);\n\n\t\t// do money trantions\n\t\tsubscribed[receiver][msg.sender] = true;\n\t}\n\n\tfunction updatePost(\n\t\tstring memory title,\n\t\tstring memory hash,\n\t\tstring memory caption,\n\t\tuint256 id\n\t) public {\n\t\trequire(msg.sender != address(0));\n\t\trequire(isUser[msg.sender]);\n\t\tPost_data memory post = Post_data(\n\t\t\tid,\n\t\t\tmsg.sender,\n\t\t\thash,\n\t\t\ttitle,\n\t\t\tcaption,\n\t\t\tposts[msg.sender][id].likes\n\t\t);\n\t\tposts[msg.sender][id] = post;\n\t\temit PostUpdated(hash, post.title, post.caption, post.likes);\n\t}\n\n\tfunction getMySubscriptions() public view returns (address[] memory) {\n\t\trequire(msg.sender != address(0));\n\t\trequire(isUser[msg.sender]);\n\n\t\tuint256 count = 0;\n\t\tfor (uint256 i = 0; i < user_id.length; i++) {\n\t\t\tif (subscribed[user_id[i]][msg.sender]) {\n\t\t\t\tcount++;\n\t\t\t}\n\t\t}\n\n\t\taddress[] memory user = new address[](count);\n\t\tcount = 0;\n\t\tfor (uint256 i = 0; i < user_id.length; i++) {\n\t\t\tif (subscribed[user_id[i]][msg.sender]) {\n\t\t\t\tuser[count] = user_id[i];\n\t\t\t\tcount++;\n\t\t\t}\n\t\t}\n\t\treturn user;\n\t}\n\n\tfunction getPosts() public view returns (Post_data[] memory) {\n\t\trequire(msg.sender != address(0));\n\t\trequire(isUser[msg.sender]);\n\t\tuint256[] memory ids = post_id[msg.sender];\n\t\tPost_data[] memory retrieval = new Post_data[](ids.length);\n\t\tfor (uint256 i = 0; i < ids.length; i++) {\n\t\t\tretrieval[i] = posts[msg.sender][ids[i]];\n\t\t}\n\t\treturn retrieval;\n\t}\n\n\tfunction getPosts(address user) public view returns (Post_data[] memory) {\n\t\trequire(user != address(0));\n\t\trequire(isUser[user]);\n\t\tuint256[] memory ids = post_id[user];\n\t\tPost_data[] memory retrieval = new Post_data[](ids.length);\n\t\tfor (uint256 i = 0; i < ids.length; i++) {\n\t\t\tretrieval[i] = posts[user][ids[i]];\n\t\t}\n\t\treturn retrieval;\n\t}\n\n\tfunction getPrivatePosts(address user)\n\t\tpublic\n\t\tview\n\t\treturns (Post_data[] memory)\n\t{\n\t\trequire(user != address(0));\n\t\trequire(isUser[user]);\n\t\trequire(subscribed[user][msg.sender]);\n\n\t\tuint256[] memory ids = private_id[user];\n\t\tPost_data[] memory retrieval = new Post_data[](ids.length);\n\t\tfor (uint256 i = 0; i < ids.length; i++) {\n\t\t\tretrieval[i] = private_posts[user][ids[i]];\n\t\t}\n\t\treturn retrieval;\n\t}\n\n\tfunction getAllPosts() public view returns (Post_data[] memory) {\n\t\trequire(msg.sender != address(0));\n\t\tif (user_id.length == 0) return new Post_data[](0);\n\t\tPost_data[] memory all_posts = getPosts(user_id[0]);\n\t\tfor (uint256 i = 1; i < user_id.length; i++) {\n\t\t\tPost_data[] memory user_id_posts = getPosts(user_id[i]);\n\t\t\tPost_data[] memory temp = new Post_data[](\n\t\t\t\tall_posts.length + user_id_posts.length\n\t\t\t);\n\t\t\tfor (uint256 j = 0; j < all_posts.length; j++) {\n\t\t\t\ttemp[j] = all_posts[j];\n\t\t\t}\n\t\t\tfor (uint256 j = 0; j < user_id_posts.length; j++) {\n\t\t\t\ttemp[all_posts.length + j] = user_id_posts[j];\n\t\t\t}\n\t\t\tall_posts = temp;\n\t\t}\n\n\t\treturn all_posts;\n\t}\n}\n",
  "sourcePath": "/home/zeel/Desktop/mycode/hakrthon/DContent/src/contracts/DContent.sol",
  "compiler": {
    "name": "solc",
    "version": "0.5.16+commit.9c3226ce.Emscripten.clang"
  },
  "schemaVersion": "3.4.7",
  "updatedAt": "2022-04-24T05:14:55.375Z",
  "networkType": "ethereum",
  "devdoc": {
    "details": "Implements decentralised content creation on Blockchain",
    "methods": {},
    "title": "User"
  },
  "userdoc": {
    "methods": {}
  }
}