{
  "contractName": "DContent",
  "abi": [
    {
      "anonymous": false,
      "inputs": [
        {
          "indexed": false,
          "internalType": "string",
          "name": "hash",
          "type": "string"
        },
        {
          "indexed": false,
          "internalType": "string",
          "name": "title",
          "type": "string"
        },
        {
          "indexed": false,
          "internalType": "string",
          "name": "caption",
          "type": "string"
        },
        {
          "indexed": false,
          "internalType": "uint256",
          "name": "likes",
          "type": "uint256"
        }
      ],
      "name": "PostUpdated",
      "type": "event"
    },
    {
      "anonymous": false,
      "inputs": [
        {
          "indexed": false,
          "internalType": "string",
          "name": "name",
          "type": "string"
        },
        {
          "indexed": false,
          "internalType": "string",
          "name": "photo",
          "type": "string"
        },
        {
          "indexed": false,
          "internalType": "string",
          "name": "bio",
          "type": "string"
        }
      ],
      "name": "UserUpdated",
      "type": "event"
    },
    {
      "constant": true,
      "inputs": [
        {
          "internalType": "address",
          "name": "",
          "type": "address"
        },
        {
          "internalType": "address",
          "name": "",
          "type": "address"
        }
      ],
      "name": "followers",
      "outputs": [
        {
          "internalType": "bool",
          "name": "",
          "type": "bool"
        }
      ],
      "payable": false,
      "stateMutability": "view",
      "type": "function"
    },
    {
      "constant": true,
      "inputs": [
        {
          "internalType": "address",
          "name": "",
          "type": "address"
        },
        {
          "internalType": "address",
          "name": "",
          "type": "address"
        }
      ],
      "name": "following",
      "outputs": [
        {
          "internalType": "bool",
          "name": "",
          "type": "bool"
        }
      ],
      "payable": false,
      "stateMutability": "view",
      "type": "function"
    },
    {
      "constant": true,
      "inputs": [
        {
          "internalType": "address",
          "name": "",
          "type": "address"
        }
      ],
      "name": "isUser",
      "outputs": [
        {
          "internalType": "bool",
          "name": "",
          "type": "bool"
        }
      ],
      "payable": false,
      "stateMutability": "view",
      "type": "function"
    },
    {
      "constant": true,
      "inputs": [
        {
          "internalType": "address",
          "name": "",
          "type": "address"
        }
      ],
      "name": "networks",
      "outputs": [
        {
          "internalType": "uint256",
          "name": "num_followers",
          "type": "uint256"
        },
        {
          "internalType": "uint256",
          "name": "num_following",
          "type": "uint256"
        }
      ],
      "payable": false,
      "stateMutability": "view",
      "type": "function"
    },
    {
      "constant": true,
      "inputs": [
        {
          "internalType": "address",
          "name": "",
          "type": "address"
        },
        {
          "internalType": "uint256",
          "name": "",
          "type": "uint256"
        }
      ],
      "name": "post_id",
      "outputs": [
        {
          "internalType": "string",
          "name": "",
          "type": "string"
        }
      ],
      "payable": false,
      "stateMutability": "view",
      "type": "function"
    },
    {
      "constant": true,
      "inputs": [
        {
          "internalType": "address",
          "name": "",
          "type": "address"
        },
        {
          "internalType": "string",
          "name": "",
          "type": "string"
        }
      ],
      "name": "posts",
      "outputs": [
        {
          "internalType": "address",
          "name": "owner",
          "type": "address"
        },
        {
          "internalType": "string",
          "name": "hash",
          "type": "string"
        },
        {
          "internalType": "string",
          "name": "title",
          "type": "string"
        },
        {
          "internalType": "string",
          "name": "caption",
          "type": "string"
        },
        {
          "internalType": "uint256",
          "name": "likes",
          "type": "uint256"
        }
      ],
      "payable": false,
      "stateMutability": "view",
      "type": "function"
    },
    {
      "constant": true,
      "inputs": [
        {
          "internalType": "uint256",
          "name": "",
          "type": "uint256"
        }
      ],
      "name": "user_id",
      "outputs": [
        {
          "internalType": "address",
          "name": "",
          "type": "address"
        }
      ],
      "payable": false,
      "stateMutability": "view",
      "type": "function"
    },
    {
      "constant": true,
      "inputs": [
        {
          "internalType": "address",
          "name": "",
          "type": "address"
        }
      ],
      "name": "users",
      "outputs": [
        {
          "internalType": "address",
          "name": "addr",
          "type": "address"
        },
        {
          "internalType": "string",
          "name": "name",
          "type": "string"
        },
        {
          "internalType": "string",
          "name": "photo",
          "type": "string"
        },
        {
          "internalType": "string",
          "name": "bio",
          "type": "string"
        }
      ],
      "payable": false,
      "stateMutability": "view",
      "type": "function"
    },
    {
      "constant": false,
      "inputs": [
        {
          "internalType": "string",
          "name": "_name",
          "type": "string"
        },
        {
          "internalType": "string",
          "name": "photo",
          "type": "string"
        },
        {
          "internalType": "string",
          "name": "bio",
          "type": "string"
        }
      ],
      "name": "createUser",
      "outputs": [],
      "payable": false,
      "stateMutability": "nonpayable",
      "type": "function"
    },
    {
      "constant": true,
      "inputs": [],
      "name": "getUsers",
      "outputs": [
        {
          "internalType": "address[]",
          "name": "",
          "type": "address[]"
        }
      ],
      "payable": false,
      "stateMutability": "view",
      "type": "function"
    },
    {
      "constant": true,
      "inputs": [
        {
          "internalType": "address",
          "name": "user",
          "type": "address"
        }
      ],
      "name": "getUser",
      "outputs": [
        {
          "components": [
            {
              "internalType": "address",
              "name": "addr",
              "type": "address"
            },
            {
              "internalType": "string",
              "name": "name",
              "type": "string"
            },
            {
              "internalType": "string",
              "name": "photo",
              "type": "string"
            },
            {
              "internalType": "string",
              "name": "bio",
              "type": "string"
            }
          ],
          "internalType": "struct DContent.User",
          "name": "",
          "type": "tuple"
        }
      ],
      "payable": false,
      "stateMutability": "view",
      "type": "function"
    },
    {
      "constant": true,
      "inputs": [],
      "name": "getName",
      "outputs": [
        {
          "internalType": "string",
          "name": "",
          "type": "string"
        }
      ],
      "payable": false,
      "stateMutability": "view",
      "type": "function"
    },
    {
      "constant": true,
      "inputs": [],
      "name": "getPhoto",
      "outputs": [
        {
          "internalType": "string",
          "name": "",
          "type": "string"
        }
      ],
      "payable": false,
      "stateMutability": "view",
      "type": "function"
    },
    {
      "constant": true,
      "inputs": [],
      "name": "getBio",
      "outputs": [
        {
          "internalType": "string",
          "name": "",
          "type": "string"
        }
      ],
      "payable": false,
      "stateMutability": "view",
      "type": "function"
    },
    {
      "constant": false,
      "inputs": [
        {
          "internalType": "string",
          "name": "newName",
          "type": "string"
        }
      ],
      "name": "setName",
      "outputs": [],
      "payable": false,
      "stateMutability": "nonpayable",
      "type": "function"
    },
    {
      "constant": false,
      "inputs": [
        {
          "internalType": "string",
          "name": "newPhoto",
          "type": "string"
        }
      ],
      "name": "setPhoto",
      "outputs": [],
      "payable": false,
      "stateMutability": "nonpayable",
      "type": "function"
    },
    {
      "constant": false,
      "inputs": [
        {
          "internalType": "string",
          "name": "newBio",
          "type": "string"
        }
      ],
      "name": "setBio",
      "outputs": [],
      "payable": false,
      "stateMutability": "nonpayable",
      "type": "function"
    },
    {
      "constant": false,
      "inputs": [
        {
          "internalType": "address",
          "name": "user",
          "type": "address"
        }
      ],
      "name": "follow",
      "outputs": [],
      "payable": false,
      "stateMutability": "nonpayable",
      "type": "function"
    },
    {
      "constant": false,
      "inputs": [
        {
          "internalType": "address",
          "name": "user",
          "type": "address"
        }
      ],
      "name": "unfollow",
      "outputs": [],
      "payable": false,
      "stateMutability": "nonpayable",
      "type": "function"
    },
    {
      "constant": false,
      "inputs": [
        {
          "internalType": "string",
          "name": "id",
          "type": "string"
        },
        {
          "internalType": "string",
          "name": "hash",
          "type": "string"
        },
        {
          "internalType": "string",
          "name": "title",
          "type": "string"
        },
        {
          "internalType": "string",
          "name": "caption",
          "type": "string"
        }
      ],
      "name": "createPost",
      "outputs": [],
      "payable": false,
      "stateMutability": "nonpayable",
      "type": "function"
    },
    {
      "constant": true,
      "inputs": [],
      "name": "getPosts",
      "outputs": [
        {
          "components": [
            {
              "internalType": "address",
              "name": "owner",
              "type": "address"
            },
            {
              "internalType": "string",
              "name": "hash",
              "type": "string"
            },
            {
              "internalType": "string",
              "name": "title",
              "type": "string"
            },
            {
              "internalType": "string",
              "name": "caption",
              "type": "string"
            },
            {
              "internalType": "uint256",
              "name": "likes",
              "type": "uint256"
            }
          ],
          "internalType": "struct DContent.Post_data[]",
          "name": "",
          "type": "tuple[]"
        }
      ],
      "payable": false,
      "stateMutability": "view",
      "type": "function"
    },
    {
      "constant": true,
      "inputs": [
        {
          "internalType": "address",
          "name": "user",
          "type": "address"
        }
      ],
      "name": "getPosts",
      "outputs": [
        {
          "components": [
            {
              "internalType": "address",
              "name": "owner",
              "type": "address"
            },
            {
              "internalType": "string",
              "name": "hash",
              "type": "string"
            },
            {
              "internalType": "string",
              "name": "title",
              "type": "string"
            },
            {
              "internalType": "string",
              "name": "caption",
              "type": "string"
            },
            {
              "internalType": "uint256",
              "name": "likes",
              "type": "uint256"
            }
          ],
          "internalType": "struct DContent.Post_data[]",
          "name": "",
          "type": "tuple[]"
        }
      ],
      "payable": false,
      "stateMutability": "view",
      "type": "function"
    },
    {
      "constant": true,
      "inputs": [],
      "name": "getAllPosts",
      "outputs": [
        {
          "components": [
            {
              "internalType": "address",
              "name": "owner",
              "type": "address"
            },
            {
              "internalType": "string",
              "name": "hash",
              "type": "string"
            },
            {
              "internalType": "string",
              "name": "title",
              "type": "string"
            },
            {
              "internalType": "string",
              "name": "caption",
              "type": "string"
            },
            {
              "internalType": "uint256",
              "name": "likes",
              "type": "uint256"
            }
          ],
          "internalType": "struct DContent.Post_data[]",
          "name": "",
          "type": "tuple[]"
        }
      ],
      "payable": false,
      "stateMutability": "view",
      "type": "function"
    }
  ],
  "bytecode": "0x608060405234801561001057600080fd5b50613ff4806100206000396000f3fe608060405234801561001057600080fd5b506004361061014c5760003560e01c80637a60ab5a116100c3578063c47f00271161007c578063c47f0027146103c7578063c6b4507f146103e3578063ce9ae00114610413578063f0dd7bfc14610443578063fa165e8f14610477578063fb7e06d8146104955761014c565b80637a60ab5a146102c9578063961a5d0a146102f9578063a87430ba14610315578063ad88881b14610348578063b2ec005e14610378578063b5e2efd2146103965761014c565b806341f3004a1161011557806341f3004a146101e35780634209fff1146102015780634caf9d0b146102315780634dbf27cc1461026157806359ae069b1461027d5780636f77926b146102995761014c565b8062ce8e3e14610151578063015a4ead1461016f5780630d57f91f1461018b57806317d7de7c146101a757806330561100146101c5575b600080fd5b6101596104b1565b6040516101669190613bb9565b60405180910390f35b6101896004803603610184919081019061341a565b610579565b005b6101a560048036036101a091908101906135e7565b6108f8565b005b6101af610ba3565b6040516101bc9190613c3a565b60405180910390f35b6101cd610d14565b6040516101da9190613bdb565b60405180910390f35b6101eb610f2e565b6040516101f89190613bdb565b60405180910390f35b61021b6004803603610216919081019061341a565b61141e565b6040516102289190613bfd565b60405180910390f35b61024b6004803603610246919081019061341a565b61143e565b6040516102589190613bdb565b60405180910390f35b61027b6004803603610276919081019061341a565b611930565b005b61029760048036036102929190810190613550565b611cae565b005b6102b360048036036102ae919081019061341a565b611fcb565b6040516102c09190613d4e565b60405180910390f35b6102e360048036036102de91908101906134d3565b6122f0565b6040516102f09190613c18565b60405180910390f35b610313600480360361030e919081019061350f565b6123b6565b005b61032f600480360361032a919081019061341a565b61259a565b60405161033f9493929190613af7565b60405180910390f35b610362600480360361035d9190810190613443565b6127b2565b60405161036f9190613bfd565b60405180910390f35b6103806127e1565b60405161038d9190613c3a565b60405180910390f35b6103b060048036036103ab919081019061341a565b612952565b6040516103be929190613d70565b60405180910390f35b6103e160048036036103dc919081019061350f565b612976565b005b6103fd60048036036103f891908101906136aa565b612b5a565b60405161040a9190613adc565b60405180910390f35b61042d60048036036104289190810190613443565b612b96565b60405161043a9190613bfd565b60405180910390f35b61045d6004803603610458919081019061347f565b612bc5565b60405161046e959493929190613b51565b60405180910390f35b61047f612e06565b60405161048c9190613c3a565b60405180910390f35b6104af60048036036104aa919081019061350f565b612f77565b005b6060600073ffffffffffffffffffffffffffffffffffffffff163373ffffffffffffffffffffffffffffffffffffffff1614156104ed57600080fd5b600280548060200260200160405190810160405280929190818152602001828054801561056f57602002820191906000526020600020905b8160009054906101000a900473ffffffffffffffffffffffffffffffffffffffff1673ffffffffffffffffffffffffffffffffffffffff1681526020019060010190808311610525575b5050505050905090565b600073ffffffffffffffffffffffffffffffffffffffff163373ffffffffffffffffffffffffffffffffffffffff1614156105b357600080fd5b600073ffffffffffffffffffffffffffffffffffffffff168173ffffffffffffffffffffffffffffffffffffffff1614156105ed57600080fd5b600160003373ffffffffffffffffffffffffffffffffffffffff1673ffffffffffffffffffffffffffffffffffffffff16815260200190815260200160002060009054906101000a900460ff1661064357600080fd5b600160008273ffffffffffffffffffffffffffffffffffffffff1673ffffffffffffffffffffffffffffffffffffffff16815260200190815260200160002060009054906101000a900460ff1661069957600080fd5b600360008273ffffffffffffffffffffffffffffffffffffffff1673ffffffffffffffffffffffffffffffffffffffff16815260200190815260200160002060003373ffffffffffffffffffffffffffffffffffffffff1673ffffffffffffffffffffffffffffffffffffffff16815260200190815260200160002060009054906101000a900460ff16156108f5576000600360008373ffffffffffffffffffffffffffffffffffffffff1673ffffffffffffffffffffffffffffffffffffffff16815260200190815260200160002060003373ffffffffffffffffffffffffffffffffffffffff1673ffffffffffffffffffffffffffffffffffffffff16815260200190815260200160002060006101000a81548160ff0219169083151502179055506000600460003373ffffffffffffffffffffffffffffffffffffffff1673ffffffffffffffffffffffffffffffffffffffff16815260200190815260200160002060008373ffffffffffffffffffffffffffffffffffffffff1673ffffffffffffffffffffffffffffffffffffffff16815260200190815260200160002060006101000a81548160ff0219169083151502179055506001600560008373ffffffffffffffffffffffffffffffffffffffff1673ffffffffffffffffffffffffffffffffffffffff168152602001908152602001600020600001600082825403925050819055506001600560003373ffffffffffffffffffffffffffffffffffffffff1673ffffffffffffffffffffffffffffffffffffffff168152602001908152602001600020600101600082825403925050819055505b50565b600073ffffffffffffffffffffffffffffffffffffffff163373ffffffffffffffffffffffffffffffffffffffff16141561093257600080fd5b600160003373ffffffffffffffffffffffffffffffffffffffff1673ffffffffffffffffffffffffffffffffffffffff16815260200190815260200160002060009054906101000a900460ff1661098857600080fd5b61099061315b565b6040518060a001604052803373ffffffffffffffffffffffffffffffffffffffff1681526020018581526020018481526020018381526020016000815250905080600660003373ffffffffffffffffffffffffffffffffffffffff1673ffffffffffffffffffffffffffffffffffffffff16815260200190815260200160002086604051610a1e9190613ac5565b908152602001604051809103902060008201518160000160006101000a81548173ffffffffffffffffffffffffffffffffffffffff021916908373ffffffffffffffffffffffffffffffffffffffff1602179055506020820151816001019080519060200190610a8f9291906131a0565b506040820151816002019080519060200190610aac9291906131a0565b506060820151816003019080519060200190610ac99291906131a0565b5060808201518160040155905050600860003373ffffffffffffffffffffffffffffffffffffffff1673ffffffffffffffffffffffffffffffffffffffff168152602001908152602001600020859080600181540180825580915050906001820390600052602060002001600090919290919091509080519060200190610b51929190613220565b50507f36d65d457c0bad214885511e167a23c9aa1587088d9d1af45f5dc9fe01cf99ba84826040015183606001518460800151604051610b949493929190613ca8565b60405180910390a15050505050565b6060600073ffffffffffffffffffffffffffffffffffffffff163373ffffffffffffffffffffffffffffffffffffffff161415610bdf57600080fd5b600160003373ffffffffffffffffffffffffffffffffffffffff1673ffffffffffffffffffffffffffffffffffffffff16815260200190815260200160002060009054906101000a900460ff16610c3557600080fd5b6000803373ffffffffffffffffffffffffffffffffffffffff1673ffffffffffffffffffffffffffffffffffffffff1681526020019081526020016000206001018054600181600116156101000203166002900480601f016020809104026020016040519081016040528092919081815260200182805460018160011615610100020316600290048015610d0a5780601f10610cdf57610100808354040283529160200191610d0a565b820191906000526020600020905b815481529060010190602001808311610ced57829003601f168201915b5050505050905090565b6060600073ffffffffffffffffffffffffffffffffffffffff163373ffffffffffffffffffffffffffffffffffffffff161415610d5057600080fd5b60006002805490501415610da1576000604051908082528060200260200182016040528015610d9957816020015b610d866132a0565b815260200190600190039081610d7e5790505b509050610f2b565b6060610de46002600081548110610db457fe5b9060005260206000200160009054906101000a900473ffffffffffffffffffffffffffffffffffffffff1661143e565b905060008090505b600280549050811015610f25576060610e3b60028381548110610e0b57fe5b9060005260206000200160009054906101000a900473ffffffffffffffffffffffffffffffffffffffff1661143e565b905060608151845101604051908082528060200260200182016040528015610e7d57816020015b610e6a6132a0565b815260200190600190039081610e625790505b50905060008090505b8451811015610ec757848181518110610e9b57fe5b6020026020010151828281518110610eaf57fe5b60200260200101819052508080600101915050610e86565b5060008090505b8251811015610f1257828186510181518110610ee657fe5b6020026020010151828281518110610efa57fe5b60200260200101819052508080600101915050610ece565b5080935050508080600101915050610dec565b50809150505b90565b6060600073ffffffffffffffffffffffffffffffffffffffff163373ffffffffffffffffffffffffffffffffffffffff161415610f6a57600080fd5b600160003373ffffffffffffffffffffffffffffffffffffffff1673ffffffffffffffffffffffffffffffffffffffff16815260200190815260200160002060009054906101000a900460ff16610fc057600080fd5b6060600860003373ffffffffffffffffffffffffffffffffffffffff1673ffffffffffffffffffffffffffffffffffffffff168152602001908152602001600020805480602002602001604051908101604052809291908181526020016000905b828210156110dd578382906000526020600020018054600181600116156101000203166002900480601f0160208091040260200160405190810160405280929190818152602001828054600181600116156101000203166002900480156110c95780601f1061109e576101008083540402835291602001916110c9565b820191906000526020600020905b8154815290600101906020018083116110ac57829003601f168201915b505050505081526020019060010190611021565b5050505090506060815160405190808252806020026020018201604052801561112057816020015b61110d6132a0565b8152602001906001900390816111055790505b50905060008090505b825181101561141557600660003373ffffffffffffffffffffffffffffffffffffffff1673ffffffffffffffffffffffffffffffffffffffff16815260200190815260200160002083828151811061117d57fe5b60200260200101516040516111929190613aae565b90815260200160405180910390206040518060a00160405290816000820160009054906101000a900473ffffffffffffffffffffffffffffffffffffffff1673ffffffffffffffffffffffffffffffffffffffff1673ffffffffffffffffffffffffffffffffffffffff168152602001600182018054600181600116156101000203166002900480601f01602080910402602001604051908101604052809291908181526020018280546001816001161561010002031660029004801561129a5780601f1061126f5761010080835404028352916020019161129a565b820191906000526020600020905b81548152906001019060200180831161127d57829003601f168201915b50505050508152602001600282018054600181600116156101000203166002900480601f01602080910402602001604051908101604052809291908181526020018280546001816001161561010002031660029004801561133c5780601f106113115761010080835404028352916020019161133c565b820191906000526020600020905b81548152906001019060200180831161131f57829003601f168201915b50505050508152602001600382018054600181600116156101000203166002900480601f0160208091040260200160405190810160405280929190818152602001828054600181600116156101000203166002900480156113de5780601f106113b3576101008083540402835291602001916113de565b820191906000526020600020905b8154815290600101906020018083116113c157829003601f168201915b505050505081526020016004820154815250508282815181106113fd57fe5b60200260200101819052508080600101915050611129565b50809250505090565b60016020528060005260406000206000915054906101000a900460ff1681565b6060600073ffffffffffffffffffffffffffffffffffffffff168273ffffffffffffffffffffffffffffffffffffffff16141561147a57600080fd5b600160008373ffffffffffffffffffffffffffffffffffffffff1673ffffffffffffffffffffffffffffffffffffffff16815260200190815260200160002060009054906101000a900460ff166114d057600080fd5b6060600860008473ffffffffffffffffffffffffffffffffffffffff1673ffffffffffffffffffffffffffffffffffffffff168152602001908152602001600020805480602002602001604051908101604052809291908181526020016000905b828210156115ed578382906000526020600020018054600181600116156101000203166002900480601f0160208091040260200160405190810160405280929190818152602001828054600181600116156101000203166002900480156115d95780601f106115ae576101008083540402835291602001916115d9565b820191906000526020600020905b8154815290600101906020018083116115bc57829003601f168201915b505050505081526020019060010190611531565b5050505090506060815160405190808252806020026020018201604052801561163057816020015b61161d6132a0565b8152602001906001900390816116155790505b50905060008090505b825181101561192557600660008673ffffffffffffffffffffffffffffffffffffffff1673ffffffffffffffffffffffffffffffffffffffff16815260200190815260200160002083828151811061168d57fe5b60200260200101516040516116a29190613aae565b90815260200160405180910390206040518060a00160405290816000820160009054906101000a900473ffffffffffffffffffffffffffffffffffffffff1673ffffffffffffffffffffffffffffffffffffffff1673ffffffffffffffffffffffffffffffffffffffff168152602001600182018054600181600116156101000203166002900480601f0160208091040260200160405190810160405280929190818152602001828054600181600116156101000203166002900480156117aa5780601f1061177f576101008083540402835291602001916117aa565b820191906000526020600020905b81548152906001019060200180831161178d57829003601f168201915b50505050508152602001600282018054600181600116156101000203166002900480601f01602080910402602001604051908101604052809291908181526020018280546001816001161561010002031660029004801561184c5780601f106118215761010080835404028352916020019161184c565b820191906000526020600020905b81548152906001019060200180831161182f57829003601f168201915b50505050508152602001600382018054600181600116156101000203166002900480601f0160208091040260200160405190810160405280929190818152602001828054600181600116156101000203166002900480156118ee5780601f106118c3576101008083540402835291602001916118ee565b820191906000526020600020905b8154815290600101906020018083116118d157829003601f168201915b5050505050815260200160048201548152505082828151811061190d57fe5b60200260200101819052508080600101915050611639565b508092505050919050565b600073ffffffffffffffffffffffffffffffffffffffff163373ffffffffffffffffffffffffffffffffffffffff16141561196a57600080fd5b600073ffffffffffffffffffffffffffffffffffffffff168173ffffffffffffffffffffffffffffffffffffffff1614156119a457600080fd5b600160003373ffffffffffffffffffffffffffffffffffffffff1673ffffffffffffffffffffffffffffffffffffffff16815260200190815260200160002060009054906101000a900460ff166119fa57600080fd5b600160008273ffffffffffffffffffffffffffffffffffffffff1673ffffffffffffffffffffffffffffffffffffffff16815260200190815260200160002060009054906101000a900460ff16611a5057600080fd5b600360008273ffffffffffffffffffffffffffffffffffffffff1673ffffffffffffffffffffffffffffffffffffffff16815260200190815260200160002060003373ffffffffffffffffffffffffffffffffffffffff1673ffffffffffffffffffffffffffffffffffffffff16815260200190815260200160002060009054906101000a900460ff16611cab576001600360008373ffffffffffffffffffffffffffffffffffffffff1673ffffffffffffffffffffffffffffffffffffffff16815260200190815260200160002060003373ffffffffffffffffffffffffffffffffffffffff1673ffffffffffffffffffffffffffffffffffffffff16815260200190815260200160002060006101000a81548160ff0219169083151502179055506001600460003373ffffffffffffffffffffffffffffffffffffffff1673ffffffffffffffffffffffffffffffffffffffff16815260200190815260200160002060008373ffffffffffffffffffffffffffffffffffffffff1673ffffffffffffffffffffffffffffffffffffffff16815260200190815260200160002060006101000a81548160ff0219169083151502179055506001600560008373ffffffffffffffffffffffffffffffffffffffff1673ffffffffffffffffffffffffffffffffffffffff168152602001908152602001600020600001600082825401925050819055506001600560003373ffffffffffffffffffffffffffffffffffffffff1673ffffffffffffffffffffffffffffffffffffffff168152602001908152602001600020600101600082825401925050819055505b50565b600073ffffffffffffffffffffffffffffffffffffffff163373ffffffffffffffffffffffffffffffffffffffff161415611ce857600080fd5b600160003373ffffffffffffffffffffffffffffffffffffffff1673ffffffffffffffffffffffffffffffffffffffff16815260200190815260200160002060009054906101000a900460ff1615611d3f57600080fd5b611d476132e5565b60405180608001604052803373ffffffffffffffffffffffffffffffffffffffff168152602001858152602001848152602001838152509050806000803373ffffffffffffffffffffffffffffffffffffffff1673ffffffffffffffffffffffffffffffffffffffff16815260200190815260200160002060008201518160000160006101000a81548173ffffffffffffffffffffffffffffffffffffffff021916908373ffffffffffffffffffffffffffffffffffffffff1602179055506020820151816001019080519060200190611e229291906131a0565b506040820151816002019080519060200190611e3f9291906131a0565b506060820151816003019080519060200190611e5c9291906131a0565b5090505060023390806001815401808255809150509060018203906000526020600020016000909192909190916101000a81548173ffffffffffffffffffffffffffffffffffffffff021916908373ffffffffffffffffffffffffffffffffffffffff1602179055505060018060003373ffffffffffffffffffffffffffffffffffffffff1673ffffffffffffffffffffffffffffffffffffffff16815260200190815260200160002060006101000a81548160ff0219169083151502179055506040518060400160405280600081526020016000815250600560003373ffffffffffffffffffffffffffffffffffffffff1673ffffffffffffffffffffffffffffffffffffffff16815260200190815260200160002060008201518160000155602082015181600101559050507f891043d2e94b4aef9153ad13cfd5726c8d60b0f025da0a8fd7160d875808192a848484604051611fbd93929190613c5c565b60405180910390a150505050565b611fd36132e5565b600073ffffffffffffffffffffffffffffffffffffffff163373ffffffffffffffffffffffffffffffffffffffff16141561200d57600080fd5b600160003373ffffffffffffffffffffffffffffffffffffffff1673ffffffffffffffffffffffffffffffffffffffff16815260200190815260200160002060009054906101000a900460ff161561206457600080fd5b6000808373ffffffffffffffffffffffffffffffffffffffff1673ffffffffffffffffffffffffffffffffffffffff1681526020019081526020016000206040518060800160405290816000820160009054906101000a900473ffffffffffffffffffffffffffffffffffffffff1673ffffffffffffffffffffffffffffffffffffffff1673ffffffffffffffffffffffffffffffffffffffff168152602001600182018054600181600116156101000203166002900480601f01602080910402602001604051908101604052809291908181526020018280546001816001161561010002031660029004801561219c5780601f106121715761010080835404028352916020019161219c565b820191906000526020600020905b81548152906001019060200180831161217f57829003601f168201915b50505050508152602001600282018054600181600116156101000203166002900480601f01602080910402602001604051908101604052809291908181526020018280546001816001161561010002031660029004801561223e5780601f106122135761010080835404028352916020019161223e565b820191906000526020600020905b81548152906001019060200180831161222157829003601f168201915b50505050508152602001600382018054600181600116156101000203166002900480601f0160208091040260200160405190810160405280929190818152602001828054600181600116156101000203166002900480156122e05780601f106122b5576101008083540402835291602001916122e0565b820191906000526020600020905b8154815290600101906020018083116122c357829003601f168201915b5050505050815250509050919050565b6008602052816000526040600020818154811061230957fe5b90600052602060002001600091509150508054600181600116156101000203166002900480601f0160208091040260200160405190810160405280929190818152602001828054600181600116156101000203166002900480156123ae5780601f10612383576101008083540402835291602001916123ae565b820191906000526020600020905b81548152906001019060200180831161239157829003601f168201915b505050505081565b600073ffffffffffffffffffffffffffffffffffffffff163373ffffffffffffffffffffffffffffffffffffffff1614156123f057600080fd5b600160003373ffffffffffffffffffffffffffffffffffffffff1673ffffffffffffffffffffffffffffffffffffffff16815260200190815260200160002060009054906101000a900460ff1661244657600080fd5b806000803373ffffffffffffffffffffffffffffffffffffffff1673ffffffffffffffffffffffffffffffffffffffff168152602001908152602001600020600201908051906020019061249b929190613220565b507f891043d2e94b4aef9153ad13cfd5726c8d60b0f025da0a8fd7160d875808192a6000803373ffffffffffffffffffffffffffffffffffffffff1673ffffffffffffffffffffffffffffffffffffffff1681526020019081526020016000206001016000803373ffffffffffffffffffffffffffffffffffffffff1673ffffffffffffffffffffffffffffffffffffffff1681526020019081526020016000206002016000803373ffffffffffffffffffffffffffffffffffffffff1673ffffffffffffffffffffffffffffffffffffffff16815260200190815260200160002060030160405161258f93929190613d02565b60405180910390a150565b60006020528060005260406000206000915090508060000160009054906101000a900473ffffffffffffffffffffffffffffffffffffffff1690806001018054600181600116156101000203166002900480601f01602080910402602001604051908101604052809291908181526020018280546001816001161561010002031660029004801561266c5780601f106126415761010080835404028352916020019161266c565b820191906000526020600020905b81548152906001019060200180831161264f57829003601f168201915b505050505090806002018054600181600116156101000203166002900480601f01602080910402602001604051908101604052809291908181526020018280546001816001161561010002031660029004801561270a5780601f106126df5761010080835404028352916020019161270a565b820191906000526020600020905b8154815290600101906020018083116126ed57829003601f168201915b505050505090806003018054600181600116156101000203166002900480601f0160208091040260200160405190810160405280929190818152602001828054600181600116156101000203166002900480156127a85780601f1061277d576101008083540402835291602001916127a8565b820191906000526020600020905b81548152906001019060200180831161278b57829003601f168201915b5050505050905084565b60036020528160005260406000206020528060005260406000206000915091509054906101000a900460ff1681565b6060600073ffffffffffffffffffffffffffffffffffffffff163373ffffffffffffffffffffffffffffffffffffffff16141561281d57600080fd5b600160003373ffffffffffffffffffffffffffffffffffffffff1673ffffffffffffffffffffffffffffffffffffffff16815260200190815260200160002060009054906101000a900460ff1661287357600080fd5b6000803373ffffffffffffffffffffffffffffffffffffffff1673ffffffffffffffffffffffffffffffffffffffff1681526020019081526020016000206002018054600181600116156101000203166002900480601f0160208091040260200160405190810160405280929190818152602001828054600181600116156101000203166002900480156129485780601f1061291d57610100808354040283529160200191612948565b820191906000526020600020905b81548152906001019060200180831161292b57829003601f168201915b5050505050905090565b60056020528060005260406000206000915090508060000154908060010154905082565b600073ffffffffffffffffffffffffffffffffffffffff163373ffffffffffffffffffffffffffffffffffffffff1614156129b057600080fd5b600160003373ffffffffffffffffffffffffffffffffffffffff1673ffffffffffffffffffffffffffffffffffffffff16815260200190815260200160002060009054906101000a900460ff16612a0657600080fd5b806000803373ffffffffffffffffffffffffffffffffffffffff1673ffffffffffffffffffffffffffffffffffffffff1681526020019081526020016000206001019080519060200190612a5b929190613220565b507f891043d2e94b4aef9153ad13cfd5726c8d60b0f025da0a8fd7160d875808192a6000803373ffffffffffffffffffffffffffffffffffffffff1673ffffffffffffffffffffffffffffffffffffffff1681526020019081526020016000206001016000803373ffffffffffffffffffffffffffffffffffffffff1673ffffffffffffffffffffffffffffffffffffffff1681526020019081526020016000206002016000803373ffffffffffffffffffffffffffffffffffffffff1673ffffffffffffffffffffffffffffffffffffffff168152602001908152602001600020600301604051612b4f93929190613d02565b60405180910390a150565b60028181548110612b6757fe5b906000526020600020016000915054906101000a900473ffffffffffffffffffffffffffffffffffffffff1681565b60046020528160005260406000206020528060005260406000206000915091509054906101000a900460ff1681565b600660205281600052604060002081805160208101820180518482526020830160208501208183528095505050505050600091509150508060000160009054906101000a900473ffffffffffffffffffffffffffffffffffffffff1690806001018054600181600116156101000203166002900480601f016020809104026020016040519081016040528092919081815260200182805460018160011615610100020316600290048015612cba5780601f10612c8f57610100808354040283529160200191612cba565b820191906000526020600020905b815481529060010190602001808311612c9d57829003601f168201915b505050505090806002018054600181600116156101000203166002900480601f016020809104026020016040519081016040528092919081815260200182805460018160011615610100020316600290048015612d585780601f10612d2d57610100808354040283529160200191612d58565b820191906000526020600020905b815481529060010190602001808311612d3b57829003601f168201915b505050505090806003018054600181600116156101000203166002900480601f016020809104026020016040519081016040528092919081815260200182805460018160011615610100020316600290048015612df65780601f10612dcb57610100808354040283529160200191612df6565b820191906000526020600020905b815481529060010190602001808311612dd957829003601f168201915b5050505050908060040154905085565b6060600073ffffffffffffffffffffffffffffffffffffffff163373ffffffffffffffffffffffffffffffffffffffff161415612e4257600080fd5b600160003373ffffffffffffffffffffffffffffffffffffffff1673ffffffffffffffffffffffffffffffffffffffff16815260200190815260200160002060009054906101000a900460ff16612e9857600080fd5b6000803373ffffffffffffffffffffffffffffffffffffffff1673ffffffffffffffffffffffffffffffffffffffff1681526020019081526020016000206003018054600181600116156101000203166002900480601f016020809104026020016040519081016040528092919081815260200182805460018160011615610100020316600290048015612f6d5780601f10612f4257610100808354040283529160200191612f6d565b820191906000526020600020905b815481529060010190602001808311612f5057829003601f168201915b5050505050905090565b600073ffffffffffffffffffffffffffffffffffffffff163373ffffffffffffffffffffffffffffffffffffffff161415612fb157600080fd5b600160003373ffffffffffffffffffffffffffffffffffffffff1673ffffffffffffffffffffffffffffffffffffffff16815260200190815260200160002060009054906101000a900460ff1661300757600080fd5b806000803373ffffffffffffffffffffffffffffffffffffffff1673ffffffffffffffffffffffffffffffffffffffff168152602001908152602001600020600301908051906020019061305c929190613220565b507f891043d2e94b4aef9153ad13cfd5726c8d60b0f025da0a8fd7160d875808192a6000803373ffffffffffffffffffffffffffffffffffffffff1673ffffffffffffffffffffffffffffffffffffffff1681526020019081526020016000206001016000803373ffffffffffffffffffffffffffffffffffffffff1673ffffffffffffffffffffffffffffffffffffffff1681526020019081526020016000206002016000803373ffffffffffffffffffffffffffffffffffffffff1673ffffffffffffffffffffffffffffffffffffffff16815260200190815260200160002060030160405161315093929190613d02565b60405180910390a150565b6040518060a00160405280600073ffffffffffffffffffffffffffffffffffffffff168152602001606081526020016060815260200160608152602001600081525090565b828054600181600116156101000203166002900490600052602060002090601f016020900481019282601f106131e157805160ff191683800117855561320f565b8280016001018555821561320f579182015b8281111561320e5782518255916020019190600101906131f3565b5b50905061321c9190613323565b5090565b828054600181600116156101000203166002900490600052602060002090601f016020900481019282601f1061326157805160ff191683800117855561328f565b8280016001018555821561328f579182015b8281111561328e578251825591602001919060010190613273565b5b50905061329c9190613323565b5090565b6040518060a00160405280600073ffffffffffffffffffffffffffffffffffffffff168152602001606081526020016060815260200160608152602001600081525090565b6040518060800160405280600073ffffffffffffffffffffffffffffffffffffffff1681526020016060815260200160608152602001606081525090565b61334591905b80821115613341576000816000905550600101613329565b5090565b90565b60008135905061335781613f83565b92915050565b600082601f83011261336e57600080fd5b813561338161337c82613dc6565b613d99565b9150808252602083016020830185838301111561339d57600080fd5b6133a8838284613f30565b50505092915050565b600082601f8301126133c257600080fd5b81356133d56133d082613df2565b613d99565b915080825260208301602083018583830111156133f157600080fd5b6133fc838284613f30565b50505092915050565b60008135905061341481613f9a565b92915050565b60006020828403121561342c57600080fd5b600061343a84828501613348565b91505092915050565b6000806040838503121561345657600080fd5b600061346485828601613348565b925050602061347585828601613348565b9150509250929050565b6000806040838503121561349257600080fd5b60006134a085828601613348565b925050602083013567ffffffffffffffff8111156134bd57600080fd5b6134c98582860161335d565b9150509250929050565b600080604083850312156134e657600080fd5b60006134f485828601613348565b925050602061350585828601613405565b9150509250929050565b60006020828403121561352157600080fd5b600082013567ffffffffffffffff81111561353b57600080fd5b613547848285016133b1565b91505092915050565b60008060006060848603121561356557600080fd5b600084013567ffffffffffffffff81111561357f57600080fd5b61358b868287016133b1565b935050602084013567ffffffffffffffff8111156135a857600080fd5b6135b4868287016133b1565b925050604084013567ffffffffffffffff8111156135d157600080fd5b6135dd868287016133b1565b9150509250925092565b600080600080608085870312156135fd57600080fd5b600085013567ffffffffffffffff81111561361757600080fd5b613623878288016133b1565b945050602085013567ffffffffffffffff81111561364057600080fd5b61364c878288016133b1565b935050604085013567ffffffffffffffff81111561366957600080fd5b613675878288016133b1565b925050606085013567ffffffffffffffff81111561369257600080fd5b61369e878288016133b1565b91505092959194509250565b6000602082840312156136bc57600080fd5b60006136ca84828501613405565b91505092915050565b60006136df83836136ff565b60208301905092915050565b60006136f7838361399b565b905092915050565b61370881613ee8565b82525050565b61371781613ee8565b82525050565b600061372882613e53565b6137328185613e99565b935061373d83613e1e565b8060005b8381101561376e57815161375588826136d3565b975061376083613e7f565b925050600181019050613741565b5085935050505092915050565b600061378682613e5e565b6137908185613eaa565b9350836020820285016137a285613e2e565b8060005b858110156137de57848403895281516137bf85826136eb565b94506137ca83613e8c565b925060208a019950506001810190506137a6565b50829750879550505050505092915050565b6137f981613efa565b82525050565b600061380a82613e74565b6138148185613ecc565b9350613824818560208601613f3f565b61382d81613f72565b840191505092915050565b600061384382613e74565b61384d8185613edd565b935061385d818560208601613f3f565b80840191505092915050565b600061387482613e69565b61387e8185613ebb565b935061388e818560208601613f3f565b61389781613f72565b840191505092915050565b60006138ad82613e69565b6138b78185613ecc565b93506138c7818560208601613f3f565b6138d081613f72565b840191505092915050565b60006138e682613e69565b6138f08185613edd565b9350613900818560208601613f3f565b80840191505092915050565b600081546001811660008114613929576001811461394f57613993565b607f600283041661393a8187613ecc565b955060ff198316865260208601935050613993565b6002820461395d8187613ecc565b955061396885613e3e565b60005b8281101561398a5781548189015260018201915060208101905061396b565b80880195505050505b505092915050565b600060a0830160008301516139b360008601826136ff565b50602083015184820360208601526139cb8282613869565b915050604083015184820360408601526139e58282613869565b915050606083015184820360608601526139ff8282613869565b9150506080830151613a146080860182613a90565b508091505092915050565b6000608083016000830151613a3760008601826136ff565b5060208301518482036020860152613a4f8282613869565b91505060408301518482036040860152613a698282613869565b91505060608301518482036060860152613a838282613869565b9150508091505092915050565b613a9981613f26565b82525050565b613aa881613f26565b82525050565b6000613aba82846138db565b915081905092915050565b6000613ad18284613838565b915081905092915050565b6000602082019050613af1600083018461370e565b92915050565b6000608082019050613b0c600083018761370e565b8181036020830152613b1e81866138a2565b90508181036040830152613b3281856138a2565b90508181036060830152613b4681846138a2565b905095945050505050565b600060a082019050613b66600083018861370e565b8181036020830152613b7881876138a2565b90508181036040830152613b8c81866138a2565b90508181036060830152613ba081856138a2565b9050613baf6080830184613a9f565b9695505050505050565b60006020820190508181036000830152613bd3818461371d565b905092915050565b60006020820190508181036000830152613bf5818461377b565b905092915050565b6000602082019050613c1260008301846137f0565b92915050565b60006020820190508181036000830152613c3281846138a2565b905092915050565b60006020820190508181036000830152613c5481846137ff565b905092915050565b60006060820190508181036000830152613c7681866137ff565b90508181036020830152613c8a81856137ff565b90508181036040830152613c9e81846137ff565b9050949350505050565b60006080820190508181036000830152613cc281876137ff565b90508181036020830152613cd681866138a2565b90508181036040830152613cea81856138a2565b9050613cf96060830184613a9f565b95945050505050565b60006060820190508181036000830152613d1c818661390c565b90508181036020830152613d30818561390c565b90508181036040830152613d44818461390c565b9050949350505050565b60006020820190508181036000830152613d688184613a1f565b905092915050565b6000604082019050613d856000830185613a9f565b613d926020830184613a9f565b9392505050565b6000604051905081810181811067ffffffffffffffff82111715613dbc57600080fd5b8060405250919050565b600067ffffffffffffffff821115613ddd57600080fd5b601f19601f8301169050602081019050919050565b600067ffffffffffffffff821115613e0957600080fd5b601f19601f8301169050602081019050919050565b6000819050602082019050919050565b6000819050602082019050919050565b60008190508160005260206000209050919050565b600081519050919050565b600081519050919050565b600081519050919050565b600081519050919050565b6000602082019050919050565b6000602082019050919050565b600082825260208201905092915050565b600082825260208201905092915050565b600082825260208201905092915050565b600082825260208201905092915050565b600081905092915050565b6000613ef382613f06565b9050919050565b60008115159050919050565b600073ffffffffffffffffffffffffffffffffffffffff82169050919050565b6000819050919050565b82818337600083830152505050565b60005b83811015613f5d578082015181840152602081019050613f42565b83811115613f6c576000848401525b50505050565b6000601f19601f8301169050919050565b613f8c81613ee8565b8114613f9757600080fd5b50565b613fa381613f26565b8114613fae57600080fd5b5056fea365627a7a72315820d5db8b7a43b26f784ef79ff5ea946bdfb46cdb3300d4c2d4d991b41a3f5dec026c6578706572696d656e74616cf564736f6c63430005100040",
  "source": "// SPDX-License-Identifier: GPL-3.0\n\n// pragma solidity >=0.5.0;\npragma solidity >=0.4.22 <0.9.0;\npragma experimental ABIEncoderV2;\n\n/**\n * @title User\n * @dev Implements decentralised content creation on Blockchain\n */\ncontract DContent {\n\tstruct User {\n\t\taddress addr;\n\t\tstring name;\n\t\tstring photo;\n\t\tstring bio;\n\t}\n\n\tstruct Post_data {\n\t\taddress owner;\n\t\tstring hash;\n\t\tstring title;\n\t\tstring caption;\n\t\tuint256 likes;\n\t}\n\n\tstruct Network {\n\t\tuint256 num_followers;\n\t\tuint256 num_following;\n\t}\n\n\t// Profile\n\tmapping(address => User) public users;\n\tmapping(address => bool) public isUser;\n\taddress[] public user_id;\n\n\t// Network\n\tmapping(address => mapping(address => bool)) public followers;\n\tmapping(address => mapping(address => bool)) public following;\n\tmapping(address => Network) public networks;\n\n\tmapping(address => mapping(string => Post_data)) public posts;\n\tmapping(address => mapping(string => Post_data)) internal private_posts;\n\tmapping(address => string[]) public post_id;\n\n\tevent UserUpdated(string name, string photo, string bio);\n\n\tevent PostUpdated(string hash, string title, string caption, uint256 likes);\n\n\tfunction createUser(\n\t\tstring memory _name,\n\t\tstring memory photo,\n\t\tstring memory bio\n\t) public {\n\t\trequire(msg.sender != address(0));\n\t\trequire(!isUser[msg.sender]);\n\t\tUser memory user = User(msg.sender, _name, photo, bio);\n\t\tusers[msg.sender] = user;\n\t\tuser_id.push(msg.sender);\n\t\tisUser[msg.sender] = true;\n\t\tnetworks[msg.sender] = Network(0, 0);\n\t\temit UserUpdated(_name, photo, bio);\n\t}\n\n\tfunction getUsers() public view returns (address[] memory) {\n\t\trequire(msg.sender != address(0));\n\t\treturn user_id;\n\t}\n\n\tfunction getUser(address user) public view returns (User memory) {\n\t\trequire(msg.sender != address(0));\n\t\trequire(!isUser[msg.sender]);\n\t\treturn users[user];\n\t}\n\n\tfunction getName() external view returns (string memory) {\n\t\trequire(msg.sender != address(0));\n\t\trequire(isUser[msg.sender]);\n\t\treturn users[msg.sender].name;\n\t}\n\n\tfunction getPhoto() public view returns (string memory) {\n\t\trequire(msg.sender != address(0));\n\t\trequire(isUser[msg.sender]);\n\t\treturn users[msg.sender].photo;\n\t}\n\n\tfunction getBio() public view returns (string memory) {\n\t\trequire(msg.sender != address(0));\n\t\trequire(isUser[msg.sender]);\n\t\treturn users[msg.sender].bio;\n\t}\n\n\tfunction setName(string memory newName) public {\n\t\trequire(msg.sender != address(0));\n\t\trequire(isUser[msg.sender]);\n\t\tusers[msg.sender].name = newName;\n\t\temit UserUpdated(\n\t\t\tusers[msg.sender].name,\n\t\t\tusers[msg.sender].photo,\n\t\t\tusers[msg.sender].bio\n\t\t);\n\t}\n\n\tfunction setPhoto(string memory newPhoto) public {\n\t\trequire(msg.sender != address(0));\n\t\trequire(isUser[msg.sender]);\n\t\tusers[msg.sender].photo = newPhoto;\n\t\temit UserUpdated(\n\t\t\tusers[msg.sender].name,\n\t\t\tusers[msg.sender].photo,\n\t\t\tusers[msg.sender].bio\n\t\t);\n\t}\n\n\tfunction setBio(string memory newBio) public {\n\t\trequire(msg.sender != address(0));\n\t\trequire(isUser[msg.sender]);\n\t\tusers[msg.sender].bio = newBio;\n\t\temit UserUpdated(\n\t\t\tusers[msg.sender].name,\n\t\t\tusers[msg.sender].photo,\n\t\t\tusers[msg.sender].bio\n\t\t);\n\t}\n\n\tfunction follow(address user) public {\n\t\trequire(msg.sender != address(0));\n\t\trequire(user != address(0));\n\t\trequire(isUser[msg.sender]);\n\t\trequire(isUser[user]);\n\t\tif (!followers[user][msg.sender]) {\n\t\t\tfollowers[user][msg.sender] = true;\n\t\t\tfollowing[msg.sender][user] = true;\n\t\t\tnetworks[user].num_followers += 1;\n\t\t\tnetworks[msg.sender].num_following += 1;\n\t\t}\n\t}\n\n\tfunction unfollow(address user) public {\n\t\trequire(msg.sender != address(0));\n\t\trequire(user != address(0));\n\t\trequire(isUser[msg.sender]);\n\t\trequire(isUser[user]);\n\t\tif (followers[user][msg.sender]) {\n\t\t\tfollowers[user][msg.sender] = false;\n\t\t\tfollowing[msg.sender][user] = false;\n\t\t\tnetworks[user].num_followers -= 1;\n\t\t\tnetworks[msg.sender].num_following -= 1;\n\t\t}\n\t}\n\n\tfunction createPost(\n\t\tstring memory id,\n\t\tstring memory hash,\n\t\tstring memory title,\n\t\tstring memory caption\n\t) public {\n\t\trequire(msg.sender != address(0));\n\t\trequire(isUser[msg.sender]);\n\t\tPost_data memory post = Post_data(msg.sender, hash, title, caption, 0);\n\t\tposts[msg.sender][id] = post;\n\t\tpost_id[msg.sender].push(id);\n\t\temit PostUpdated(hash, post.title, post.caption, post.likes);\n\t}\n\n\tfunction getPosts() public view returns (Post_data[] memory) {\n\t\trequire(msg.sender != address(0));\n\t\trequire(isUser[msg.sender]);\n\t\tstring[] memory ids = post_id[msg.sender];\n\t\tPost_data[] memory retrieval = new Post_data[](ids.length);\n\t\tfor (uint256 i = 0; i < ids.length; i++) {\n\t\t\tretrieval[i] = posts[msg.sender][ids[i]];\n\t\t}\n\t\treturn retrieval;\n\t}\n\n\tfunction getPosts(address user) public view returns (Post_data[] memory) {\n\t\trequire(user != address(0));\n\t\trequire(isUser[user]);\n\t\tstring[] memory ids = post_id[user];\n\t\tPost_data[] memory retrieval = new Post_data[](ids.length);\n\t\tfor (uint256 i = 0; i < ids.length; i++) {\n\t\t\tretrieval[i] = posts[user][ids[i]];\n\t\t}\n\t\treturn retrieval;\n\t}\n\n\tfunction getAllPosts() public view returns (Post_data[] memory) {\n\t\trequire(msg.sender != address(0));\n\t\tif (user_id.length == 0) return new Post_data[](0);\n\t\tPost_data[] memory all_posts = getPosts(user_id[0]);\n\t\tfor (uint256 i = 0; i < user_id.length; i++) {\n\t\t\tPost_data[] memory user_id_posts = getPosts(user_id[i]);\n\t\t\tPost_data[] memory temp = new Post_data[](\n\t\t\t\tall_posts.length + user_id_posts.length\n\t\t\t);\n\t\t\tfor (uint256 j = 0; j < all_posts.length; j++) {\n\t\t\t\ttemp[j] = all_posts[j];\n\t\t\t}\n\t\t\tfor (uint256 j = 0; j < user_id_posts.length; j++) {\n\t\t\t\ttemp[j] = user_id_posts[all_posts.length + j];\n\t\t\t}\n\t\t\tall_posts = temp;\n\t\t}\n\n\t\treturn all_posts;\n\t}\n}\n",
  "sourcePath": "/home/zeel/Desktop/mycode/hakrthon/DContent/src/contracts/DContent.sol",
  "compiler": {
    "name": "solc",
    "version": "0.5.16+commit.9c3226ce.Emscripten.clang"
  },
  "schemaVersion": "3.4.7",
  "updatedAt": "2022-04-23T16:51:01.946Z",
  "devdoc": {
    "details": "Implements decentralised content creation on Blockchain",
    "methods": {},
    "title": "User"
  },
  "userdoc": {
    "methods": {}
  }
}