{
  "contractName": "DPost",
  "abi": [
    {
      "constant": true,
      "inputs": [
        {
          "internalType": "uint256",
          "name": "",
          "type": "uint256"
        }
      ],
      "name": "Posts",
      "outputs": [
        {
          "internalType": "uint256",
          "name": "id",
          "type": "uint256"
        },
        {
          "internalType": "string",
          "name": "title",
          "type": "string"
        },
        {
          "internalType": "string",
          "name": "imagehash",
          "type": "string"
        },
        {
          "internalType": "string",
          "name": "descriptions",
          "type": "string"
        },
        {
          "internalType": "bool",
          "name": "isdelete",
          "type": "bool"
        },
        {
          "internalType": "address",
          "name": "author",
          "type": "address"
        }
      ],
      "payable": false,
      "stateMutability": "view",
      "type": "function"
    },
    {
      "constant": true,
      "inputs": [],
      "name": "name",
      "outputs": [
        {
          "internalType": "string",
          "name": "",
          "type": "string"
        }
      ],
      "payable": false,
      "stateMutability": "view",
      "type": "function"
    },
    {
      "constant": true,
      "inputs": [],
      "name": "postCount",
      "outputs": [
        {
          "internalType": "uint256",
          "name": "",
          "type": "uint256"
        }
      ],
      "payable": false,
      "stateMutability": "view",
      "type": "function"
    },
    {
      "constant": false,
      "inputs": [
        {
          "internalType": "string",
          "name": "_title",
          "type": "string"
        },
        {
          "internalType": "string",
          "name": "_imageHash",
          "type": "string"
        },
        {
          "internalType": "string",
          "name": "_descriptions",
          "type": "string"
        }
      ],
      "name": "uploadPost",
      "outputs": [],
      "payable": false,
      "stateMutability": "nonpayable",
      "type": "function"
    },
    {
      "constant": true,
      "inputs": [],
      "name": "getPosts",
      "outputs": [
        {
          "components": [
            {
              "internalType": "uint256",
              "name": "id",
              "type": "uint256"
            },
            {
              "internalType": "string",
              "name": "title",
              "type": "string"
            },
            {
              "internalType": "string",
              "name": "imagehash",
              "type": "string"
            },
            {
              "internalType": "string",
              "name": "descriptions",
              "type": "string"
            },
            {
              "internalType": "bool",
              "name": "isdelete",
              "type": "bool"
            },
            {
              "internalType": "address",
              "name": "author",
              "type": "address"
            }
          ],
          "internalType": "struct DPost.Post[]",
          "name": "",
          "type": "tuple[]"
        }
      ],
      "payable": false,
      "stateMutability": "view",
      "type": "function"
    },
    {
      "constant": true,
      "inputs": [
        {
          "internalType": "uint256",
          "name": "post_id",
          "type": "uint256"
        }
      ],
      "name": "getPost",
      "outputs": [
        {
          "components": [
            {
              "internalType": "uint256",
              "name": "id",
              "type": "uint256"
            },
            {
              "internalType": "string",
              "name": "title",
              "type": "string"
            },
            {
              "internalType": "string",
              "name": "imagehash",
              "type": "string"
            },
            {
              "internalType": "string",
              "name": "descriptions",
              "type": "string"
            },
            {
              "internalType": "bool",
              "name": "isdelete",
              "type": "bool"
            },
            {
              "internalType": "address",
              "name": "author",
              "type": "address"
            }
          ],
          "internalType": "struct DPost.Post",
          "name": "",
          "type": "tuple"
        }
      ],
      "payable": false,
      "stateMutability": "view",
      "type": "function"
    }
  ],
  "bytecode": "0x6080604052600080556040518060400160405280600581526020017f44506f737400000000000000000000000000000000000000000000000000000081525060019080519060200190620000559291906200006a565b503480156200006357600080fd5b5062000119565b828054600181600116156101000203166002900490600052602060002090601f016020900481019282601f10620000ad57805160ff1916838001178555620000de565b82800160010185558215620000de579182015b82811115620000dd578251825591602001919060010190620000c0565b5b509050620000ed9190620000f1565b5090565b6200011691905b8082111562000112576000816000905550600101620000f8565b5090565b90565b6112f280620001296000396000f3fe608060405234801561001057600080fd5b50600436106100625760003560e01c806306fdde031461006757806317906c2e1461008557806340731c24146100a357806341f3004a146100d35780634fafef1a146100f15780636e4d2b7514610126575b600080fd5b61006f610142565b60405161007c9190611069565b60405180910390f35b61008d6101e0565b60405161009a91906110ad565b60405180910390f35b6100bd60048036036100b89190810190610d9b565b6101e6565b6040516100ca919061108b565b60405180910390f35b6100db6104b6565b6040516100e89190611047565b60405180910390f35b61010b60048036036101069190810190610d9b565b6107b0565b60405161011d969594939291906110c8565b60405180910390f35b610140600480360361013b9190810190610d04565b6109ee565b005b60018054600181600116156101000203166002900480601f0160208091040260200160405190810160405280929190818152602001828054600181600116156101000203166002900480156101d85780601f106101ad576101008083540402835291602001916101d8565b820191906000526020600020905b8154815290600101906020018083116101bb57829003601f168201915b505050505081565b60005481565b6101ee610ba8565b600073ffffffffffffffffffffffffffffffffffffffff163373ffffffffffffffffffffffffffffffffffffffff16141561022857600080fd5b6002828154811061023557fe5b90600052602060002090600502016040518060c001604052908160008201548152602001600182018054600181600116156101000203166002900480601f0160208091040260200160405190810160405280929190818152602001828054600181600116156101000203166002900480156102f15780601f106102c6576101008083540402835291602001916102f1565b820191906000526020600020905b8154815290600101906020018083116102d457829003601f168201915b50505050508152602001600282018054600181600116156101000203166002900480601f0160208091040260200160405190810160405280929190818152602001828054600181600116156101000203166002900480156103935780601f1061036857610100808354040283529160200191610393565b820191906000526020600020905b81548152906001019060200180831161037657829003601f168201915b50505050508152602001600382018054600181600116156101000203166002900480601f0160208091040260200160405190810160405280929190818152602001828054600181600116156101000203166002900480156104355780601f1061040a57610100808354040283529160200191610435565b820191906000526020600020905b81548152906001019060200180831161041857829003601f168201915b505050505081526020016004820160009054906101000a900460ff161515151581526020016004820160019054906101000a900473ffffffffffffffffffffffffffffffffffffffff1673ffffffffffffffffffffffffffffffffffffffff1673ffffffffffffffffffffffffffffffffffffffff16815250509050919050565b6060600073ffffffffffffffffffffffffffffffffffffffff163373ffffffffffffffffffffffffffffffffffffffff1614156104f257600080fd5b6002805480602002602001604051908101604052809291908181526020016000905b828210156107a757838290600052602060002090600502016040518060c001604052908160008201548152602001600182018054600181600116156101000203166002900480601f0160208091040260200160405190810160405280929190818152602001828054600181600116156101000203166002900480156105da5780601f106105af576101008083540402835291602001916105da565b820191906000526020600020905b8154815290600101906020018083116105bd57829003601f168201915b50505050508152602001600282018054600181600116156101000203166002900480601f01602080910402602001604051908101604052809291908181526020018280546001816001161561010002031660029004801561067c5780601f106106515761010080835404028352916020019161067c565b820191906000526020600020905b81548152906001019060200180831161065f57829003601f168201915b50505050508152602001600382018054600181600116156101000203166002900480601f01602080910402602001604051908101604052809291908181526020018280546001816001161561010002031660029004801561071e5780601f106106f35761010080835404028352916020019161071e565b820191906000526020600020905b81548152906001019060200180831161070157829003601f168201915b505050505081526020016004820160009054906101000a900460ff161515151581526020016004820160019054906101000a900473ffffffffffffffffffffffffffffffffffffffff1673ffffffffffffffffffffffffffffffffffffffff1673ffffffffffffffffffffffffffffffffffffffff168152505081526020019060010190610514565b50505050905090565b600281815481106107bd57fe5b9060005260206000209060050201600091509050806000015490806001018054600181600116156101000203166002900480601f01602080910402602001604051908101604052809291908181526020018280546001816001161561010002031660029004801561086f5780601f106108445761010080835404028352916020019161086f565b820191906000526020600020905b81548152906001019060200180831161085257829003601f168201915b505050505090806002018054600181600116156101000203166002900480601f01602080910402602001604051908101604052809291908181526020018280546001816001161561010002031660029004801561090d5780601f106108e25761010080835404028352916020019161090d565b820191906000526020600020905b8154815290600101906020018083116108f057829003601f168201915b505050505090806003018054600181600116156101000203166002900480601f0160208091040260200160405190810160405280929190818152602001828054600181600116156101000203166002900480156109ab5780601f10610980576101008083540402835291602001916109ab565b820191906000526020600020905b81548152906001019060200180831161098e57829003601f168201915b5050505050908060040160009054906101000a900460ff16908060040160019054906101000a900473ffffffffffffffffffffffffffffffffffffffff16905086565b60008351116109fc57600080fd5b6000815111610a0a57600080fd5b6000825111610a1857600080fd5b600073ffffffffffffffffffffffffffffffffffffffff163373ffffffffffffffffffffffffffffffffffffffff161415610a5257600080fd5b600080815480929190600101919050555060026040518060c0016040528060005481526020018581526020018481526020018381526020016000151581526020013373ffffffffffffffffffffffffffffffffffffffff1681525090806001815401808255809150509060018203906000526020600020906005020160009091929091909150600082015181600001556020820151816001019080519060200190610afe929190610bf6565b506040820151816002019080519060200190610b1b929190610bf6565b506060820151816003019080519060200190610b38929190610bf6565b5060808201518160040160006101000a81548160ff02191690831515021790555060a08201518160040160016101000a81548173ffffffffffffffffffffffffffffffffffffffff021916908373ffffffffffffffffffffffffffffffffffffffff160217905550505050505050565b6040518060c0016040528060008152602001606081526020016060815260200160608152602001600015158152602001600073ffffffffffffffffffffffffffffffffffffffff1681525090565b828054600181600116156101000203166002900490600052602060002090601f016020900481019282601f10610c3757805160ff1916838001178555610c65565b82800160010185558215610c65579182015b82811115610c64578251825591602001919060010190610c49565b5b509050610c729190610c76565b5090565b610c9891905b80821115610c94576000816000905550600101610c7c565b5090565b90565b600082601f830112610cac57600080fd5b8135610cbf610cba8261116b565b61113e565b91508082526020830160208301858383011115610cdb57600080fd5b610ce6838284611245565b50505092915050565b600081359050610cfe81611298565b92915050565b600080600060608486031215610d1957600080fd5b600084013567ffffffffffffffff811115610d3357600080fd5b610d3f86828701610c9b565b935050602084013567ffffffffffffffff811115610d5c57600080fd5b610d6886828701610c9b565b925050604084013567ffffffffffffffff811115610d8557600080fd5b610d9186828701610c9b565b9150509250925092565b600060208284031215610dad57600080fd5b6000610dbb84828501610cef565b91505092915050565b6000610dd08383610f92565b905092915050565b610de1816111fd565b82525050565b610df0816111fd565b82525050565b6000610e01826111a7565b610e0b81856111ca565b935083602082028501610e1d85611197565b8060005b85811015610e595784840389528151610e3a8582610dc4565b9450610e45836111bd565b925060208a01995050600181019050610e21565b50829750879550505050505092915050565b610e748161120f565b82525050565b610e838161120f565b82525050565b6000610e94826111b2565b610e9e81856111db565b9350610eae818560208601611254565b610eb781611287565b840191505092915050565b6000610ecd826111b2565b610ed781856111ec565b9350610ee7818560208601611254565b610ef081611287565b840191505092915050565b600060c083016000830151610f136000860182611029565b5060208301518482036020860152610f2b8282610e89565b91505060408301518482036040860152610f458282610e89565b91505060608301518482036060860152610f5f8282610e89565b9150506080830151610f746080860182610e6b565b5060a0830151610f8760a0860182610dd8565b508091505092915050565b600060c083016000830151610faa6000860182611029565b5060208301518482036020860152610fc28282610e89565b91505060408301518482036040860152610fdc8282610e89565b91505060608301518482036060860152610ff68282610e89565b915050608083015161100b6080860182610e6b565b5060a083015161101e60a0860182610dd8565b508091505092915050565b6110328161123b565b82525050565b6110418161123b565b82525050565b600060208201905081810360008301526110618184610df6565b905092915050565b600060208201905081810360008301526110838184610ec2565b905092915050565b600060208201905081810360008301526110a58184610efb565b905092915050565b60006020820190506110c26000830184611038565b92915050565b600060c0820190506110dd6000830189611038565b81810360208301526110ef8188610ec2565b905081810360408301526111038187610ec2565b905081810360608301526111178186610ec2565b90506111266080830185610e7a565b61113360a0830184610de7565b979650505050505050565b6000604051905081810181811067ffffffffffffffff8211171561116157600080fd5b8060405250919050565b600067ffffffffffffffff82111561118257600080fd5b601f19601f8301169050602081019050919050565b6000819050602082019050919050565b600081519050919050565b600081519050919050565b6000602082019050919050565b600082825260208201905092915050565b600082825260208201905092915050565b600082825260208201905092915050565b60006112088261121b565b9050919050565b60008115159050919050565b600073ffffffffffffffffffffffffffffffffffffffff82169050919050565b6000819050919050565b82818337600083830152505050565b60005b83811015611272578082015181840152602081019050611257565b83811115611281576000848401525b50505050565b6000601f19601f8301169050919050565b6112a18161123b565b81146112ac57600080fd5b5056fea365627a7a72315820c0ba344cceb151c93e07b810e13dbecd23204286beabb11765ec07da7b4e34d06c6578706572696d656e74616cf564736f6c63430005100040",
  "source": "// SPDX-License-Identifier: GPL-3.0\npragma solidity >0.5.0;\npragma experimental ABIEncoderV2;\n\ncontract DPost {\n\tuint256 public postCount = 0;\n\tstring public name = \"DPost\";\n\tPost[] public Posts;\n\n\tstruct Post {\n\t\tuint256 id;\n\t\tstring title;\n\t\tstring imagehash;\n\t\tstring descriptions;\n\t\tbool isdelete;\n\t\taddress author;\n\t}\n\n\t// abstract constructor() public {}\n\n\tfunction uploadPost(\n\t\tstring memory _title,\n\t\tstring memory _imageHash,\n\t\tstring memory _descriptions\n\t) public {\n\t\trequire(bytes(_title).length > 0);\n\t\trequire(bytes(_descriptions).length > 0);\n\t\trequire(bytes(_imageHash).length > 0);\n\t\trequire(msg.sender != address(0));\n\n\t\tpostCount++;\n\t\tPosts.push(\n\t\t\tPost(\n\t\t\t\tpostCount,\n\t\t\t\t_title,\n\t\t\t\t_imageHash,\n\t\t\t\t_descriptions,\n\t\t\t\tfalse,\n\t\t\t\tmsg.sender\n\t\t\t)\n\t\t);\n\t}\n\n\tfunction getPosts() public view returns (Post[] memory) {\n\t\trequire(msg.sender != address(0));\n\t\treturn Posts;\n\t}\n\n\tfunction getPost(uint256 post_id) public view returns (Post memory) {\n\t\trequire(msg.sender != address(0));\n\t\treturn Posts[post_id];\n\t}\n}\n",
  "sourcePath": "/home/zeel/Desktop/mycode/hakrthon/DContent/src/contracts/Dcontent.sol",
  "compiler": {
    "name": "solc",
    "version": "0.5.16+commit.9c3226ce.Emscripten.clang"
  },
  "schemaVersion": "3.4.7",
  "updatedAt": "2022-04-23T10:27:37.064Z",
  "devdoc": {
    "methods": {}
  },
  "userdoc": {
    "methods": {}
  }
}